{
  "transactions": [
    {
      "hash": "0x36bbb27b0ccab8785881de4f7870da33151820c92e92f8987f0be2467590be2c",
      "transactionType": "CALL",
      "contractName": null,
      "contractAddress": "0x82af49447d8a07e3bd95bd0d56f35241523fbab1",
      "function": "deposit()",
      "arguments": [],
      "transaction": {
        "from": "0x0571235134dc15a00f02916987c2c16b5fc52e2a",
        "to": "0x82af49447d8a07e3bd95bd0d56f35241523fbab1",
        "gas": "0xe983",
        "value": "0xde0b6b3a7640000",
        "input": "0xd0e30db0",
        "nonce": "0x1c",
        "chainId": "0x5f4ff11"
      },
      "additionalContracts": [],
      "isFixedGasLimit": false
    },
    {
      "hash": "0x651d5f7be8e0573c8f23dad7cdc61898fbdfa706dc76e4e91781e93f9f0570ec",
      "transactionType": "CALL",
      "contractName": null,
      "contractAddress": "0x82af49447d8a07e3bd95bd0d56f35241523fbab1",
      "function": "transfer(address,uint256)",
      "arguments": [
        "0x592966903c10037fD1a97a5655ef2392b24E8d1c",
        "1000000000000000000"
      ],
      "transaction": {
        "from": "0x0571235134dc15a00f02916987c2c16b5fc52e2a",
        "to": "0x82af49447d8a07e3bd95bd0d56f35241523fbab1",
        "gas": "0x13e81",
        "value": "0x0",
        "input": "0xa9059cbb000000000000000000000000592966903c10037fd1a97a5655ef2392b24e8d1c0000000000000000000000000000000000000000000000000de0b6b3a7640000",
        "nonce": "0x1d",
        "chainId": "0x5f4ff11"
      },
      "additionalContracts": [],
      "isFixedGasLimit": false
    },
    {
      "hash": "0x845639abd0e8ea23d9da9843dee3b0153bf6c03ce862c126f0e70bf80fac6c36",
      "transactionType": "CALL",
      "contractName": null,
      "contractAddress": "0x592966903c10037fd1a97a5655ef2392b24e8d1c",
      "function": "execute(uint8,(uint8,address,address,uint256,uint256,uint24,uint256,address,bytes)[])",
      "arguments": [
        "1",
        "[(0, 0x82aF49447D8a07e3bd95BD0d56f35241523fBab1, 0x0000000000000000000000000000000000000000, 1000000000000000000, 0, 0, 0, 0x0571235134DC15a00f02916987C2c16b5fC52E2A, 0x), (0, 0xaf88d065e77c8cC2239327C5EDb3A432268e5831, 0x0000000000000000000000000000000000000000, 1000000000, 0, 0, 0, 0x0571235134DC15a00f02916987C2c16b5fC52E2A, 0x), (0, 0xaf88d065e77c8cC2239327C5EDb3A432268e5831, 0x82aF49447D8a07e3bd95BD0d56f35241523fBab1, 0, 0, 3000, 0, 0x0571235134DC15a00f02916987C2c16b5fC52E2A, 0x)]"
      ],
      "transaction": {
        "from": "0x0571235134dc15a00f02916987c2c16b5fc52e2a",
        "to": "0x592966903c10037fd1a97a5655ef2392b24e8d1c",
        "gas": "0xcb8cc",
        "value": "0x0",
        "input": "0x7b0e6120000000000000000000000000000000000000000000000000000000000000000100000000000000000000000000000000000000000000000000000000000000400000000000000000000000000000000000000000000000000000000000000003000000000000000000000000000000000000000000000000000000000000006000000000000000000000000000000000000000000000000000000000000001a000000000000000000000000000000000000000000000000000000000000002e0000000000000000000000000000000000000000000000000000000000000000000000000000000000000000082af49447d8a07e3bd95bd0d56f35241523fbab100000000000000000000000000000000000000000000000000000000000000000000000000000000000000000000000000000000000000000de0b6b3a76400000000000000000000000000000000000000000000000000000000000000000000000000000000000000000000000000000000000000000000000000000000000000000000000000000000000000000000000000000000000000000000000000000000000000000000000000000571235134dc15a00f02916987c2c16b5fc52e2a000000000000000000000000000000000000000000000000000000000000012000000000000000000000000000000000000000000000000000000000000000000000000000000000000000000000000000000000000000000000000000000000000000000000000000000000af88d065e77c8cc2239327c5edb3a432268e58310000000000000000000000000000000000000000000000000000000000000000000000000000000000000000000000000000000000000000000000003b9aca000000000000000000000000000000000000000000000000000000000000000000000000000000000000000000000000000000000000000000000000000000000000000000000000000000000000000000000000000000000000000000000000000000000000000000000000000571235134dc15a00f02916987c2c16b5fc52e2a000000000000000000000000000000000000000000000000000000000000012000000000000000000000000000000000000000000000000000000000000000000000000000000000000000000000000000000000000000000000000000000000000000000000000000000000af88d065e77c8cc2239327c5edb3a432268e583100000000000000000000000082af49447d8a07e3bd95bd0d56f35241523fbab1000000000000000000000000000000000000000000000000000000000000000000000000000000000000000000000000000000000000000000000000000000000000000000000000000000000000000000000000000000000000000000000bb800000000000000000000000000000000000000000000000000000000000000000000000000000000000000000571235134dc15a00f02916987c2c16b5fc52e2a00000000000000000000000000000000000000000000000000000000000001200000000000000000000000000000000000000000000000000000000000000000",
        "nonce": "0x1e",
        "chainId": "0x5f4ff11"
      },
      "additionalContracts": [],
      "isFixedGasLimit": false
    }
  ],
  "receipts": [
    {
      "status": "0x1",
      "cumulativeGasUsed": "0xa041",
      "logs": [
        {
          "address": "0x82af49447d8a07e3bd95bd0d56f35241523fbab1",
          "topics": [
            "0xddf252ad1be2c89b69c2b068fc378daa952ba7f163c4a11628f55a4df523b3ef",
            "0x0000000000000000000000000000000000000000000000000000000000000000",
            "0x0000000000000000000000000571235134dc15a00f02916987c2c16b5fc52e2a"
          ],
          "data": "0x0000000000000000000000000000000000000000000000000de0b6b3a7640000",
          "blockHash": "0xa6bad783dd36625b949a2e3e69dc7b706b190d35c476aa6cbc24986f8ceddb8d",
          "blockNumber": "0x19ffb679",
          "transactionHash": "0x36bbb27b0ccab8785881de4f7870da33151820c92e92f8987f0be2467590be2c",
          "transactionIndex": "0x0",
          "logIndex": "0x0",
          "removed": false
        }
      ],
      "logsBloom": "0x00000000000000000000000000000000000000000000000000000000000000000000000000000000000000000000000000004000000000000000000000000000000000010000000000000008000000000000000000000000000000000000000000000020020000000000000400000800000000000000000000000010000000000000000000000000000000000000000000000000000000000000000000000000000000000000004000000000000000000000000000000000000000000000000000000002000000000000000000000000000000000000000000000000000020000000000000000000000000000000000000000000000400000000000000000000",
      "type": "0x2",
      "transactionHash": "0x36bbb27b0ccab8785881de4f7870da33151820c92e92f8987f0be2467590be2c",
      "transactionIndex": "0x0",
      "blockHash": "0xa6bad783dd36625b949a2e3e69dc7b706b190d35c476aa6cbc24986f8ceddb8d",
      "blockNumber": "0x19ffb679",
      "gasUsed": "0xa041",
      "effectiveGasPrice": "0x133ec21",
      "blobGasUsed": "0x0",
      "from": "0x0571235134dc15a00f02916987c2c16b5fc52e2a",
      "to": "0x82af49447d8a07e3bd95bd0d56f35241523fbab1",
      "contractAddress": null
    },
    {
      "status": "0x1",
      "cumulativeGasUsed": "0xe774",
      "logs": [
        {
          "address": "0x82af49447d8a07e3bd95bd0d56f35241523fbab1",
          "topics": [
            "0xddf252ad1be2c89b69c2b068fc378daa952ba7f163c4a11628f55a4df523b3ef",
            "0x0000000000000000000000000571235134dc15a00f02916987c2c16b5fc52e2a",
            "0x000000000000000000000000592966903c10037fd1a97a5655ef2392b24e8d1c"
          ],
          "data": "0x0000000000000000000000000000000000000000000000000de0b6b3a7640000",
          "blockHash": "0x0c2b689832b816a5f6eedba66b363a9ef9e472484272788e1f7094db8087cb61",
          "blockNumber": "0x19ffb67a",
          "transactionHash": "0x651d5f7be8e0573c8f23dad7cdc61898fbdfa706dc76e4e91781e93f9f0570ec",
          "transactionIndex": "0x0",
          "logIndex": "0x0",
          "removed": false
        }
      ],
      "logsBloom": "0x00000000000000000000000000000000000000000000000000000000000000000000000000000000000000004000000000004000000000000000000000000000000000010000000000000008000000000000000000000000000000000000000000000020000000000000000400000000000000000000000000000010000000000000000000000000000000000020000000000000000000000000080000000000000000000000004000000000000000000000000000000000000000000000000000000002000000000000000000000000000000000000000000000000000000000000000000000000000000000000000000000000000400000000000000000000",
      "type": "0x2",
      "transactionHash": "0x651d5f7be8e0573c8f23dad7cdc61898fbdfa706dc76e4e91781e93f9f0570ec",
      "transactionIndex": "0x0",
      "blockHash": "0x0c2b689832b816a5f6eedba66b363a9ef9e472484272788e1f7094db8087cb61",
      "blockNumber": "0x19ffb67a",
      "gasUsed": "0xe774",
      "effectiveGasPrice": "0x133ec21",
      "blobGasUsed": "0x0",
      "from": "0x0571235134dc15a00f02916987c2c16b5fc52e2a",
      "to": "0x82af49447d8a07e3bd95bd0d56f35241523fbab1",
      "contractAddress": null
    },
    {
      "status": "0x1",
      "cumulativeGasUsed": "0x937a5",
      "logs": [
        {
          "address": "0x82af49447d8a07e3bd95bd0d56f35241523fbab1",
          "topics": [
            "0x8c5be1e5ebec7d5bd14f71427d1e84f3dd0314c0f7b2291e5b200ac8c7c3b925",
            "0x000000000000000000000000592966903c10037fd1a97a5655ef2392b24e8d1c",
            "0x000000000000000000000000794a61358d6845594f94dc1db02a252b5b4814ad"
          ],
          "data": "0x0000000000000000000000000000000000000000000000000de0b6b3a7640000",
          "blockHash": "0x36f888a51c97a344d48161cca685b473d8a30f0505f9f3dec63728a76454bf8d",
          "blockNumber": "0x19ffb67b",
          "transactionHash": "0x845639abd0e8ea23d9da9843dee3b0153bf6c03ce862c126f0e70bf80fac6c36",
          "transactionIndex": "0x0",
          "logIndex": "0x0",
          "removed": false
        },
        {
          "address": "0x794a61358d6845594f94dc1db02a252b5b4814ad",
          "topics": [
            "0x804c9b842b2748a22bb64b345453a3de7ca54a6ca45ce00d415894979e22897a",
            "0x00000000000000000000000082af49447d8a07e3bd95bd0d56f35241523fbab1"
          ],
          "data": "0x00000000000000000000000000000000000000000010008ad9e1c96fbed43483000000000000000000000000000000000000000000000000000000000000000000000000000000000000000000000000000000000014922d8a42c8c808cd901f0000000000000000000000000000000000000000036c51e93890752e2d1e38b700000000000000000000000000000000000000000396529170e622bb56304229",
          "blockHash": "0x36f888a51c97a344d48161cca685b473d8a30f0505f9f3dec63728a76454bf8d",
          "blockNumber": "0x19ffb67b",
          "transactionHash": "0x845639abd0e8ea23d9da9843dee3b0153bf6c03ce862c126f0e70bf80fac6c36",
          "transactionIndex": "0x0",
          "logIndex": "0x1",
          "removed": false
        },
        {
          "address": "0x82af49447d8a07e3bd95bd0d56f35241523fbab1",
          "topics": [
            "0xddf252ad1be2c89b69c2b068fc378daa952ba7f163c4a11628f55a4df523b3ef",
            "0x000000000000000000000000592966903c10037fd1a97a5655ef2392b24e8d1c",
            "0x000000000000000000000000e50fa9b3c56ffb159cb0fca61f5c9d750e8128c8"
          ],
          "data": "0x0000000000000000000000000000000000000000000000000de0b6b3a7640000",
          "blockHash": "0x36f888a51c97a344d48161cca685b473d8a30f0505f9f3dec63728a76454bf8d",
          "blockNumber": "0x19ffb67b",
          "transactionHash": "0x845639abd0e8ea23d9da9843dee3b0153bf6c03ce862c126f0e70bf80fac6c36",
          "transactionIndex": "0x0",
          "logIndex": "0x2",
          "removed": false
        },
        {
          "address": "0x82af49447d8a07e3bd95bd0d56f35241523fbab1",
          "topics": [
            "0x8c5be1e5ebec7d5bd14f71427d1e84f3dd0314c0f7b2291e5b200ac8c7c3b925",
            "0x000000000000000000000000592966903c10037fd1a97a5655ef2392b24e8d1c",
            "0x000000000000000000000000794a61358d6845594f94dc1db02a252b5b4814ad"
          ],
          "data": "0x0000000000000000000000000000000000000000000000000000000000000000",
          "blockHash": "0x36f888a51c97a344d48161cca685b473d8a30f0505f9f3dec63728a76454bf8d",
          "blockNumber": "0x19ffb67b",
          "transactionHash": "0x845639abd0e8ea23d9da9843dee3b0153bf6c03ce862c126f0e70bf80fac6c36",
          "transactionIndex": "0x0",
          "logIndex": "0x3",
          "removed": false
        },
        {
          "address": "0xe50fa9b3c56ffb159cb0fca61f5c9d750e8128c8",
          "topics": [
            "0xddf252ad1be2c89b69c2b068fc378daa952ba7f163c4a11628f55a4df523b3ef",
            "0x0000000000000000000000000000000000000000000000000000000000000000",
            "0x000000000000000000000000592966903c10037fd1a97a5655ef2392b24e8d1c"
          ],
          "data": "0x0000000000000000000000000000000000000000000000000de0b6b3a763ffff",
          "blockHash": "0x36f888a51c97a344d48161cca685b473d8a30f0505f9f3dec63728a76454bf8d",
          "blockNumber": "0x19ffb67b",
          "transactionHash": "0x845639abd0e8ea23d9da9843dee3b0153bf6c03ce862c126f0e70bf80fac6c36",
          "transactionIndex": "0x0",
          "logIndex": "0x4",
          "removed": false
        },
        {
          "address": "0xe50fa9b3c56ffb159cb0fca61f5c9d750e8128c8",
          "topics": [
            "0x458f5fa412d0f69b08dd84872b0215675cc67bc1d5b6fd93300a1c3878b86196",
            "0x000000000000000000000000592966903c10037fd1a97a5655ef2392b24e8d1c",
            "0x000000000000000000000000592966903c10037fd1a97a5655ef2392b24e8d1c"
          ],
          "data": "0x0000000000000000000000000000000000000000000000000de0b6b3a763ffff00000000000000000000000000000000000000000000000000000000000000000000000000000000000000000000000000000000036c51e93890752e2d1e38b7",
          "blockHash": "0x36f888a51c97a344d48161cca685b473d8a30f0505f9f3dec63728a76454bf8d",
          "blockNumber": "0x19ffb67b",
          "transactionHash": "0x845639abd0e8ea23d9da9843dee3b0153bf6c03ce862c126f0e70bf80fac6c36",
          "transactionIndex": "0x0",
          "logIndex": "0x5",
          "removed": false
        },
        {
          "address": "0x794a61358d6845594f94dc1db02a252b5b4814ad",
          "topics": [
            "0x00058a56ea94653cdf4f152d227ace22d4c00ad99e2a43f58cb7d9e3feb295f2",
            "0x00000000000000000000000082af49447d8a07e3bd95bd0d56f35241523fbab1",
            "0x000000000000000000000000592966903c10037fd1a97a5655ef2392b24e8d1c"
          ],
          "data": "0x",
          "blockHash": "0x36f888a51c97a344d48161cca685b473d8a30f0505f9f3dec63728a76454bf8d",
          "blockNumber": "0x19ffb67b",
          "transactionHash": "0x845639abd0e8ea23d9da9843dee3b0153bf6c03ce862c126f0e70bf80fac6c36",
          "transactionIndex": "0x0",
          "logIndex": "0x6",
          "removed": false
        },
        {
          "address": "0x794a61358d6845594f94dc1db02a252b5b4814ad",
          "topics": [
            "0x2b627736bca15cd5381dcf80b0bf11fd197d01a037c52b927a881a10fb73ba61",
            "0x00000000000000000000000082af49447d8a07e3bd95bd0d56f35241523fbab1",
            "0x000000000000000000000000592966903c10037fd1a97a5655ef2392b24e8d1c",
            "0x0000000000000000000000000000000000000000000000000000000000000000"
          ],
          "data": "0x000000000000000000000000592966903c10037fd1a97a5655ef2392b24e8d1c0000000000000000000000000000000000000000000000000de0b6b3a7640000",
          "blockHash": "0x36f888a51c97a344d48161cca685b473d8a30f0505f9f3dec63728a76454bf8d",
          "blockNumber": "0x19ffb67b",
          "transactionHash": "0x845639abd0e8ea23d9da9843dee3b0153bf6c03ce862c126f0e70bf80fac6c36",
          "transactionIndex": "0x0",
          "logIndex": "0x7",
          "removed": false
        },
        {
          "address": "0x592966903c10037fd1a97a5655ef2392b24e8d1c",
          "topics": [
            "0xef9ac81aa0cc398e95ba8022c163414dc6550427f9ea7f6b40f7ef56321ad556",
            "0x00000000000000000000000082af49447d8a07e3bd95bd0d56f35241523fbab1",
            "0x000000000000000000000000592966903c10037fd1a97a5655ef2392b24e8d1c"
          ],
          "data": "0x0000000000000000000000000000000000000000000000000de0b6b3a7640000",
          "blockHash": "0x36f888a51c97a344d48161cca685b473d8a30f0505f9f3dec63728a76454bf8d",
          "blockNumber": "0x19ffb67b",
          "transactionHash": "0x845639abd0e8ea23d9da9843dee3b0153bf6c03ce862c126f0e70bf80fac6c36",
          "transactionIndex": "0x0",
          "logIndex": "0x8",
          "removed": false
        },
        {
          "address": "0xf611aeb5013fd2c0511c9cd55c7dc5c1140741a6",
          "topics": [
            "0xddf252ad1be2c89b69c2b068fc378daa952ba7f163c4a11628f55a4df523b3ef",
            "0x0000000000000000000000000000000000000000000000000000000000000000",
            "0x000000000000000000000000592966903c10037fd1a97a5655ef2392b24e8d1c"
          ],
          "data": "0x000000000000000000000000000000000000000000000000000000003b9aca01",
          "blockHash": "0x36f888a51c97a344d48161cca685b473d8a30f0505f9f3dec63728a76454bf8d",
          "blockNumber": "0x19ffb67b",
          "transactionHash": "0x845639abd0e8ea23d9da9843dee3b0153bf6c03ce862c126f0e70bf80fac6c36",
          "transactionIndex": "0x0",
          "logIndex": "0x9",
          "removed": false
        },
        {
          "address": "0xf611aeb5013fd2c0511c9cd55c7dc5c1140741a6",
          "topics": [
            "0x458f5fa412d0f69b08dd84872b0215675cc67bc1d5b6fd93300a1c3878b86196",
            "0x000000000000000000000000592966903c10037fd1a97a5655ef2392b24e8d1c",
            "0x000000000000000000000000592966903c10037fd1a97a5655ef2392b24e8d1c"
          ],
          "data": "0x000000000000000000000000000000000000000000000000000000003b9aca010000000000000000000000000000000000000000000000000000000000000000000000000000000000000000000000000000000003ef0a8e80d8aa7052800131",
          "blockHash": "0x36f888a51c97a344d48161cca685b473d8a30f0505f9f3dec63728a76454bf8d",
          "blockNumber": "0x19ffb67b",
          "transactionHash": "0x845639abd0e8ea23d9da9843dee3b0153bf6c03ce862c126f0e70bf80fac6c36",
          "transactionIndex": "0x0",
          "logIndex": "0xa",
          "removed": false
        },
        {
          "address": "0x794a61358d6845594f94dc1db02a252b5b4814ad",
          "topics": [
            "0x804c9b842b2748a22bb64b345453a3de7ca54a6ca45ce00d415894979e22897a",
            "0x000000000000000000000000af88d065e77c8cc2239327c5edb3a432268e5831"
          ],
          "data": "0x0000000000000000000000000000000000000000000cbd3fe8d9b1a923b7593a00000000000000000000000000000000000000000000000000000000000000000000000000000000000000000000000000000000001981202bf30d9cb11fec25000000000000000000000000000000000000000003c0fdf382e2b0af4530e57a000000000000000000000000000000000000000003ef0a8e80d8aa7052800131",
          "blockHash": "0x36f888a51c97a344d48161cca685b473d8a30f0505f9f3dec63728a76454bf8d",
          "blockNumber": "0x19ffb67b",
          "transactionHash": "0x845639abd0e8ea23d9da9843dee3b0153bf6c03ce862c126f0e70bf80fac6c36",
          "transactionIndex": "0x0",
          "logIndex": "0xb",
          "removed": false
        },
        {
          "address": "0xaf88d065e77c8cc2239327c5edb3a432268e5831",
          "topics": [
            "0xddf252ad1be2c89b69c2b068fc378daa952ba7f163c4a11628f55a4df523b3ef",
            "0x000000000000000000000000724dc807b04555b71ed48a6896b6f41593b8c637",
            "0x000000000000000000000000592966903c10037fd1a97a5655ef2392b24e8d1c"
          ],
          "data": "0x000000000000000000000000000000000000000000000000000000003b9aca00",
          "blockHash": "0x36f888a51c97a344d48161cca685b473d8a30f0505f9f3dec63728a76454bf8d",
          "blockNumber": "0x19ffb67b",
          "transactionHash": "0x845639abd0e8ea23d9da9843dee3b0153bf6c03ce862c126f0e70bf80fac6c36",
          "transactionIndex": "0x0",
          "logIndex": "0xc",
          "removed": false
        },
        {
          "address": "0x794a61358d6845594f94dc1db02a252b5b4814ad",
          "topics": [
            "0xb3d084820fb1a9decffb176436bd02558d15fac9b0ddfed8c465bc7359d7dce0",
            "0x000000000000000000000000af88d065e77c8cc2239327c5edb3a432268e5831",
            "0x000000000000000000000000592966903c10037fd1a97a5655ef2392b24e8d1c",
            "0x0000000000000000000000000000000000000000000000000000000000000000"
          ],
          "data": "0x000000000000000000000000592966903c10037fd1a97a5655ef2392b24e8d1c000000000000000000000000000000000000000000000000000000003b9aca0000000000000000000000000000000000000000000000000000000000000000020000000000000000000000000000000000000000001981202bf30d9cb11fec25",
          "blockHash": "0x36f888a51c97a344d48161cca685b473d8a30f0505f9f3dec63728a76454bf8d",
          "blockNumber": "0x19ffb67b",
          "transactionHash": "0x845639abd0e8ea23d9da9843dee3b0153bf6c03ce862c126f0e70bf80fac6c36",
          "transactionIndex": "0x0",
          "logIndex": "0xd",
          "removed": false
        },
        {
          "address": "0x592966903c10037fd1a97a5655ef2392b24e8d1c",
          "topics": [
            "0xe11c2c122834f2bf2bf3182f3ce8c4870133c7118230e08a175bcd1569a5a225",
            "0x000000000000000000000000af88d065e77c8cc2239327c5edb3a432268e5831",
            "0x000000000000000000000000592966903c10037fd1a97a5655ef2392b24e8d1c"
          ],
          "data": "0x000000000000000000000000000000000000000000000000000000003b9aca00",
          "blockHash": "0x36f888a51c97a344d48161cca685b473d8a30f0505f9f3dec63728a76454bf8d",
          "blockNumber": "0x19ffb67b",
          "transactionHash": "0x845639abd0e8ea23d9da9843dee3b0153bf6c03ce862c126f0e70bf80fac6c36",
          "transactionIndex": "0x0",
          "logIndex": "0xe",
          "removed": false
        },
        {
          "address": "0xaf88d065e77c8cc2239327c5edb3a432268e5831",
          "topics": [
            "0x8c5be1e5ebec7d5bd14f71427d1e84f3dd0314c0f7b2291e5b200ac8c7c3b925",
            "0x000000000000000000000000592966903c10037fd1a97a5655ef2392b24e8d1c",
            "0x000000000000000000000000e592427a0aece92de3edee1f18e0157c05861564"
          ],
          "data": "0x000000000000000000000000000000000000000000000000000000003b9aca00",
          "blockHash": "0x36f888a51c97a344d48161cca685b473d8a30f0505f9f3dec63728a76454bf8d",
          "blockNumber": "0x19ffb67b",
          "transactionHash": "0x845639abd0e8ea23d9da9843dee3b0153bf6c03ce862c126f0e70bf80fac6c36",
          "transactionIndex": "0x0",
          "logIndex": "0xf",
          "removed": false
        },
        {
          "address": "0x82af49447d8a07e3bd95bd0d56f35241523fbab1",
          "topics": [
            "0xddf252ad1be2c89b69c2b068fc378daa952ba7f163c4a11628f55a4df523b3ef",
            "0x000000000000000000000000c473e2aee3441bf9240be85eb122abb059a3b57c",
            "0x000000000000000000000000592966903c10037fd1a97a5655ef2392b24e8d1c"
          ],
          "data": "0x00000000000000000000000000000000000000000000000006b1612778b712dd",
          "blockHash": "0x36f888a51c97a344d48161cca685b473d8a30f0505f9f3dec63728a76454bf8d",
          "blockNumber": "0x19ffb67b",
          "transactionHash": "0x845639abd0e8ea23d9da9843dee3b0153bf6c03ce862c126f0e70bf80fac6c36",
          "transactionIndex": "0x0",
          "logIndex": "0x10",
          "removed": false
        },
        {
          "address": "0xaf88d065e77c8cc2239327c5edb3a432268e5831",
          "topics": [
            "0xddf252ad1be2c89b69c2b068fc378daa952ba7f163c4a11628f55a4df523b3ef",
            "0x000000000000000000000000592966903c10037fd1a97a5655ef2392b24e8d1c",
            "0x000000000000000000000000c473e2aee3441bf9240be85eb122abb059a3b57c"
          ],
          "data": "0x000000000000000000000000000000000000000000000000000000003b9aca00",
          "blockHash": "0x36f888a51c97a344d48161cca685b473d8a30f0505f9f3dec63728a76454bf8d",
          "blockNumber": "0x19ffb67b",
          "transactionHash": "0x845639abd0e8ea23d9da9843dee3b0153bf6c03ce862c126f0e70bf80fac6c36",
          "transactionIndex": "0x0",
          "logIndex": "0x11",
          "removed": false
        },
        {
          "address": "0xc473e2aee3441bf9240be85eb122abb059a3b57c",
          "topics": [
            "0xc42079f94a6350d7e6235f29174924f928cc2ac818eb64fed8004e115fbcca67",
            "0x000000000000000000000000e592427a0aece92de3edee1f18e0157c05861564",
            "0x000000000000000000000000592966903c10037fd1a97a5655ef2392b24e8d1c"
          ],
          "data": "0xfffffffffffffffffffffffffffffffffffffffffffffffff94e9ed88748ed23000000000000000000000000000000000000000000000000000000003b9aca0000000000000000000000000000000000000000000002fadc245776383110869600000000000000000000000000000000000000000000000002b7c2997365b66ffffffffffffffffffffffffffffffffffffffffffffffffffffffffffffcf2d4",
          "blockHash": "0x36f888a51c97a344d48161cca685b473d8a30f0505f9f3dec63728a76454bf8d",
          "blockNumber": "0x19ffb67b",
          "transactionHash": "0x845639abd0e8ea23d9da9843dee3b0153bf6c03ce862c126f0e70bf80fac6c36",
          "transactionIndex": "0x0",
          "logIndex": "0x12",
          "removed": false
        },
        {
          "address": "0x592966903c10037fd1a97a5655ef2392b24e8d1c",
          "topics": [
            "0x86aa7c88922dc2cd6c72c1d0ca9d4cb3e6ff4acd04b394f07fc1e6997aa06fc8",
            "0x000000000000000000000000af88d065e77c8cc2239327c5edb3a432268e5831",
            "0x00000000000000000000000082af49447d8a07e3bd95bd0d56f35241523fbab1"
          ],
          "data": "0x0000000000000000000000000000000000000000000000000000000000000000000000000000000000000000000000000000000000000000000000003b9aca0000000000000000000000000000000000000000000000000006b1612778b712dd",
          "blockHash": "0x36f888a51c97a344d48161cca685b473d8a30f0505f9f3dec63728a76454bf8d",
          "blockNumber": "0x19ffb67b",
          "transactionHash": "0x845639abd0e8ea23d9da9843dee3b0153bf6c03ce862c126f0e70bf80fac6c36",
          "transactionIndex": "0x0",
          "logIndex": "0x13",
          "removed": false
        },
        {
          "address": "0x592966903c10037fd1a97a5655ef2392b24e8d1c",
          "topics": [
            "0x7634d6a0b03c99b5858171c830c3d12f085e56ed6bed3076491a5aa6ffa13537",
            "0x0000000000000000000000000571235134dc15a00f02916987c2c16b5fc52e2a"
          ],
          "data": "0x000000000000000000000000000000000000000000000000000000003b9aca0000000000000000000000000000000000000000000000000006b1612778b712dd",
          "blockHash": "0x36f888a51c97a344d48161cca685b473d8a30f0505f9f3dec63728a76454bf8d",
          "blockNumber": "0x19ffb67b",
          "transactionHash": "0x845639abd0e8ea23d9da9843dee3b0153bf6c03ce862c126f0e70bf80fac6c36",
          "transactionIndex": "0x0",
          "logIndex": "0x14",
          "removed": false
        },
        {
          "address": "0x592966903c10037fd1a97a5655ef2392b24e8d1c",
          "topics": [
            "0x468f9fcb93c235c4a355ece29880da8a8940637230afaedf6c8504f14aa89616",
            "0x0000000000000000000000000000000000000000000000000000000000000001",
            "0x0000000000000000000000000571235134dc15a00f02916987c2c16b5fc52e2a",
            "0x0000000000000000000000000571235134dc15a00f02916987c2c16b5fc52e2a"
          ],
          "data": "0x",
          "blockHash": "0x36f888a51c97a344d48161cca685b473d8a30f0505f9f3dec63728a76454bf8d",
          "blockNumber": "0x19ffb67b",
          "transactionHash": "0x845639abd0e8ea23d9da9843dee3b0153bf6c03ce862c126f0e70bf80fac6c36",
          "transactionIndex": "0x0",
          "logIndex": "0x15",
          "removed": false
        }
      ],
      "logsBloom": "0x00080002010008000080020000001000000000000000000000001000000000000800000000000000100000404004000000004001040024000000300004240000000000010001000800041008020000012000040000040000800000040020000000000020020000000000100400000800000000100000000000000010000800000000000080000000000001000020000040000800020000000020080120040000020000000000004000000000800000000000000000000902200000000400010002002022000001008000002040400001000000000004040000000000000060000010000000008000020000000001200040040000002c00800000400000010000",
      "type": "0x2",
      "transactionHash": "0x845639abd0e8ea23d9da9843dee3b0153bf6c03ce862c126f0e70bf80fac6c36",
      "transactionIndex": "0x0",
      "blockHash": "0x36f888a51c97a344d48161cca685b473d8a30f0505f9f3dec63728a76454bf8d",
      "blockNumber": "0x19ffb67b",
      "gasUsed": "0x937a5",
      "effectiveGasPrice": "0x133ec21",
      "blobGasUsed": "0x0",
      "from": "0x0571235134dc15a00f02916987c2c16b5fc52e2a",
      "to": "0x592966903c10037fd1a97a5655ef2392b24e8d1c",
      "contractAddress": null
    }
  ],
  "libraries": [],
  "pending": [],
  "returns": {},
  "timestamp": 1772122624,
  "chain": 99942161,
  "commit": "d3255aa"
}