{
  "transactions": [
    {
      "hash": "0x94e997a415a2752f7db9cc422723300a45171b3e955ce1531e218f5a7ef288b6",
      "transactionType": "CALL",
      "contractName": null,
      "contractAddress": "0x82af49447d8a07e3bd95bd0d56f35241523fbab1",
      "function": "deposit()",
      "arguments": [],
      "transaction": {
        "from": "0x0571235134dc15a00f02916987c2c16b5fc52e2a",
        "to": "0x82af49447d8a07e3bd95bd0d56f35241523fbab1",
        "gas": "0xe983",
        "value": "0xde0b6b3a7640000",
        "input": "0xd0e30db0",
        "nonce": "0x18",
        "chainId": "0x5f4ff11"
      },
      "additionalContracts": [],
      "isFixedGasLimit": false
    },
    {
      "hash": "0xf2e13ff44071a20112975c859786a76d6211bfaf15339a08af645d7c8b0d342d",
      "transactionType": "CALL",
      "contractName": null,
      "contractAddress": "0x82af49447d8a07e3bd95bd0d56f35241523fbab1",
      "function": "transfer(address,uint256)",
      "arguments": [
        "0x72CeB199bc1706A175cc4a0B2809A50Ec856eA0E",
        "1000000000000000000"
      ],
      "transaction": {
        "from": "0x0571235134dc15a00f02916987c2c16b5fc52e2a",
        "to": "0x82af49447d8a07e3bd95bd0d56f35241523fbab1",
        "gas": "0x13e81",
        "value": "0x0",
        "input": "0xa9059cbb00000000000000000000000072ceb199bc1706a175cc4a0b2809a50ec856ea0e0000000000000000000000000000000000000000000000000de0b6b3a7640000",
        "nonce": "0x19",
        "chainId": "0x5f4ff11"
      },
      "additionalContracts": [],
      "isFixedGasLimit": false
    },
    {
      "hash": "0xff5a7b6d9804cbf3989796d57d3f33c234238f9f3742e10f849986844c1aa844",
      "transactionType": "CALL",
      "contractName": null,
      "contractAddress": "0x72ceb199bc1706a175cc4a0b2809a50ec856ea0e",
      "function": "execute(uint8,(uint8,address,address,uint256,uint256,uint24,uint256,address,bytes)[])",
      "arguments": [
        "1",
        "[(0, 0x82aF49447D8a07e3bd95BD0d56f35241523fBab1, 0x0000000000000000000000000000000000000000, 1000000000000000000, 0, 0, 0, 0x0571235134DC15a00f02916987C2c16b5fC52E2A, 0x), (0, 0xaf88d065e77c8cC2239327C5EDb3A432268e5831, 0x0000000000000000000000000000000000000000, 1000000000, 0, 0, 0, 0x0571235134DC15a00f02916987C2c16b5fC52E2A, 0x), (0, 0xaf88d065e77c8cC2239327C5EDb3A432268e5831, 0x82aF49447D8a07e3bd95BD0d56f35241523fBab1, 0, 0, 3000, 0, 0x0571235134DC15a00f02916987C2c16b5fC52E2A, 0x)]"
      ],
      "transaction": {
        "from": "0x0571235134dc15a00f02916987c2c16b5fc52e2a",
        "to": "0x72ceb199bc1706a175cc4a0b2809a50ec856ea0e",
        "gas": "0xc11c5",
        "value": "0x0",
        "input": "0x7b0e6120000000000000000000000000000000000000000000000000000000000000000100000000000000000000000000000000000000000000000000000000000000400000000000000000000000000000000000000000000000000000000000000003000000000000000000000000000000000000000000000000000000000000006000000000000000000000000000000000000000000000000000000000000001a000000000000000000000000000000000000000000000000000000000000002e0000000000000000000000000000000000000000000000000000000000000000000000000000000000000000082af49447d8a07e3bd95bd0d56f35241523fbab100000000000000000000000000000000000000000000000000000000000000000000000000000000000000000000000000000000000000000de0b6b3a76400000000000000000000000000000000000000000000000000000000000000000000000000000000000000000000000000000000000000000000000000000000000000000000000000000000000000000000000000000000000000000000000000000000000000000000000000000571235134dc15a00f02916987c2c16b5fc52e2a000000000000000000000000000000000000000000000000000000000000012000000000000000000000000000000000000000000000000000000000000000000000000000000000000000000000000000000000000000000000000000000000000000000000000000000000af88d065e77c8cc2239327c5edb3a432268e58310000000000000000000000000000000000000000000000000000000000000000000000000000000000000000000000000000000000000000000000003b9aca000000000000000000000000000000000000000000000000000000000000000000000000000000000000000000000000000000000000000000000000000000000000000000000000000000000000000000000000000000000000000000000000000000000000000000000000000571235134dc15a00f02916987c2c16b5fc52e2a000000000000000000000000000000000000000000000000000000000000012000000000000000000000000000000000000000000000000000000000000000000000000000000000000000000000000000000000000000000000000000000000000000000000000000000000af88d065e77c8cc2239327c5edb3a432268e583100000000000000000000000082af49447d8a07e3bd95bd0d56f35241523fbab1000000000000000000000000000000000000000000000000000000000000000000000000000000000000000000000000000000000000000000000000000000000000000000000000000000000000000000000000000000000000000000000bb800000000000000000000000000000000000000000000000000000000000000000000000000000000000000000571235134dc15a00f02916987c2c16b5fc52e2a00000000000000000000000000000000000000000000000000000000000001200000000000000000000000000000000000000000000000000000000000000000",
        "nonce": "0x1a",
        "chainId": "0x5f4ff11"
      },
      "additionalContracts": [],
      "isFixedGasLimit": false
    }
  ],
  "receipts": [
    {
      "status": "0x1",
      "cumulativeGasUsed": "0xa041",
      "logs": [
        {
          "address": "0x82af49447d8a07e3bd95bd0d56f35241523fbab1",
          "topics": [
            "0xddf252ad1be2c89b69c2b068fc378daa952ba7f163c4a11628f55a4df523b3ef",
            "0x0000000000000000000000000000000000000000000000000000000000000000",
            "0x0000000000000000000000000571235134dc15a00f02916987c2c16b5fc52e2a"
          ],
          "data": "0x0000000000000000000000000000000000000000000000000de0b6b3a7640000",
          "blockHash": "0x54a0471601552857301873142898d0473891c5b2adfebac14042b5a0d9bfef30",
          "blockNumber": "0x19ffb675",
          "transactionHash": "0x94e997a415a2752f7db9cc422723300a45171b3e955ce1531e218f5a7ef288b6",
          "transactionIndex": "0x0",
          "logIndex": "0x0",
          "removed": false
        }
      ],
      "logsBloom": "0x00000000000000000000000000000000000000000000000000000000000000000000000000000000000000000000000000004000000000000000000000000000000000010000000000000008000000000000000000000000000000000000000000000020020000000000000400000800000000000000000000000010000000000000000000000000000000000000000000000000000000000000000000000000000000000000004000000000000000000000000000000000000000000000000000000002000000000000000000000000000000000000000000000000000020000000000000000000000000000000000000000000000400000000000000000000",
      "type": "0x2",
      "transactionHash": "0x94e997a415a2752f7db9cc422723300a45171b3e955ce1531e218f5a7ef288b6",
      "transactionIndex": "0x0",
      "blockHash": "0x54a0471601552857301873142898d0473891c5b2adfebac14042b5a0d9bfef30",
      "blockNumber": "0x19ffb675",
      "gasUsed": "0xa041",
      "effectiveGasPrice": "0x133ec21",
      "blobGasUsed": "0x0",
      "from": "0x0571235134dc15a00f02916987c2c16b5fc52e2a",
      "to": "0x82af49447d8a07e3bd95bd0d56f35241523fbab1",
      "contractAddress": null
    },
    {
      "status": "0x1",
      "cumulativeGasUsed": "0xe774",
      "logs": [
        {
          "address": "0x82af49447d8a07e3bd95bd0d56f35241523fbab1",
          "topics": [
            "0xddf252ad1be2c89b69c2b068fc378daa952ba7f163c4a11628f55a4df523b3ef",
            "0x0000000000000000000000000571235134dc15a00f02916987c2c16b5fc52e2a",
            "0x00000000000000000000000072ceb199bc1706a175cc4a0b2809a50ec856ea0e"
          ],
          "data": "0x0000000000000000000000000000000000000000000000000de0b6b3a7640000",
          "blockHash": "0x4cfad367ac6ebce0ef912e415f150ed901cb98851dd637ffe794ee96bcc0ae29",
          "blockNumber": "0x19ffb676",
          "transactionHash": "0xf2e13ff44071a20112975c859786a76d6211bfaf15339a08af645d7c8b0d342d",
          "transactionIndex": "0x0",
          "logIndex": "0x0",
          "removed": false
        }
      ],
      "logsBloom": "0x00000000000000000000000000000000000000000000000000000000000000000000000000000000000000000000000000004000000000000000000000000000000000010000000000000008000080000000000000000000000000000000000000000020000000000000000400000000000000000000000000000010000000000000000000000000000000000000000000000000000000000000000000100000000000000000004000000000000000000000000000000000000000000000000000000002000000000000000000000000000000000000000000000000000000000000000000000000000000000000000000000000100400000000000000000000",
      "type": "0x2",
      "transactionHash": "0xf2e13ff44071a20112975c859786a76d6211bfaf15339a08af645d7c8b0d342d",
      "transactionIndex": "0x0",
      "blockHash": "0x4cfad367ac6ebce0ef912e415f150ed901cb98851dd637ffe794ee96bcc0ae29",
      "blockNumber": "0x19ffb676",
      "gasUsed": "0xe774",
      "effectiveGasPrice": "0x133ec21",
      "blobGasUsed": "0x0",
      "from": "0x0571235134dc15a00f02916987c2c16b5fc52e2a",
      "to": "0x82af49447d8a07e3bd95bd0d56f35241523fbab1",
      "contractAddress": null
    },
    {
      "status": "0x1",
      "cumulativeGasUsed": "0x8beb1",
      "logs": [
        {
          "address": "0x82af49447d8a07e3bd95bd0d56f35241523fbab1",
          "topics": [
            "0x8c5be1e5ebec7d5bd14f71427d1e84f3dd0314c0f7b2291e5b200ac8c7c3b925",
            "0x00000000000000000000000072ceb199bc1706a175cc4a0b2809a50ec856ea0e",
            "0x000000000000000000000000794a61358d6845594f94dc1db02a252b5b4814ad"
          ],
          "data": "0x0000000000000000000000000000000000000000000000000de0b6b3a7640000",
          "blockHash": "0xcded38e026f794484dfe3c61f0978ece0c55cf1be409b20a7b6a4fb38fa29c21",
          "blockNumber": "0x19ffb677",
          "transactionHash": "0xff5a7b6d9804cbf3989796d57d3f33c234238f9f3742e10f849986844c1aa844",
          "transactionIndex": "0x0",
          "logIndex": "0x0",
          "removed": false
        },
        {
          "address": "0x794a61358d6845594f94dc1db02a252b5b4814ad",
          "topics": [
            "0x804c9b842b2748a22bb64b345453a3de7ca54a6ca45ce00d415894979e22897a",
            "0x00000000000000000000000082af49447d8a07e3bd95bd0d56f35241523fbab1"
          ],
          "data": "0x0000000000000000000000000000000000000000001000987be030b5821fb26b00000000000000000000000000000000000000000000000000000000000000000000000000000000000000000000000000000000001492364d7a659e3401c4780000000000000000000000000000000000000000036c51c37d367dec36d6956d00000000000000000000000000000000000000000396525e9c8ba474cbaae6d0",
          "blockHash": "0xcded38e026f794484dfe3c61f0978ece0c55cf1be409b20a7b6a4fb38fa29c21",
          "blockNumber": "0x19ffb677",
          "transactionHash": "0xff5a7b6d9804cbf3989796d57d3f33c234238f9f3742e10f849986844c1aa844",
          "transactionIndex": "0x0",
          "logIndex": "0x1",
          "removed": false
        },
        {
          "address": "0x82af49447d8a07e3bd95bd0d56f35241523fbab1",
          "topics": [
            "0xddf252ad1be2c89b69c2b068fc378daa952ba7f163c4a11628f55a4df523b3ef",
            "0x00000000000000000000000072ceb199bc1706a175cc4a0b2809a50ec856ea0e",
            "0x000000000000000000000000e50fa9b3c56ffb159cb0fca61f5c9d750e8128c8"
          ],
          "data": "0x0000000000000000000000000000000000000000000000000de0b6b3a7640000",
          "blockHash": "0xcded38e026f794484dfe3c61f0978ece0c55cf1be409b20a7b6a4fb38fa29c21",
          "blockNumber": "0x19ffb677",
          "transactionHash": "0xff5a7b6d9804cbf3989796d57d3f33c234238f9f3742e10f849986844c1aa844",
          "transactionIndex": "0x0",
          "logIndex": "0x2",
          "removed": false
        },
        {
          "address": "0x82af49447d8a07e3bd95bd0d56f35241523fbab1",
          "topics": [
            "0x8c5be1e5ebec7d5bd14f71427d1e84f3dd0314c0f7b2291e5b200ac8c7c3b925",
            "0x00000000000000000000000072ceb199bc1706a175cc4a0b2809a50ec856ea0e",
            "0x000000000000000000000000794a61358d6845594f94dc1db02a252b5b4814ad"
          ],
          "data": "0x0000000000000000000000000000000000000000000000000000000000000000",
          "blockHash": "0xcded38e026f794484dfe3c61f0978ece0c55cf1be409b20a7b6a4fb38fa29c21",
          "blockNumber": "0x19ffb677",
          "transactionHash": "0xff5a7b6d9804cbf3989796d57d3f33c234238f9f3742e10f849986844c1aa844",
          "transactionIndex": "0x0",
          "logIndex": "0x3",
          "removed": false
        },
        {
          "address": "0xe50fa9b3c56ffb159cb0fca61f5c9d750e8128c8",
          "topics": [
            "0xddf252ad1be2c89b69c2b068fc378daa952ba7f163c4a11628f55a4df523b3ef",
            "0x0000000000000000000000000000000000000000000000000000000000000000",
            "0x00000000000000000000000072ceb199bc1706a175cc4a0b2809a50ec856ea0e"
          ],
          "data": "0x0000000000000000000000000000000000000000000000000de0b6b3a763ffff",
          "blockHash": "0xcded38e026f794484dfe3c61f0978ece0c55cf1be409b20a7b6a4fb38fa29c21",
          "blockNumber": "0x19ffb677",
          "transactionHash": "0xff5a7b6d9804cbf3989796d57d3f33c234238f9f3742e10f849986844c1aa844",
          "transactionIndex": "0x0",
          "logIndex": "0x4",
          "removed": false
        },
        {
          "address": "0xe50fa9b3c56ffb159cb0fca61f5c9d750e8128c8",
          "topics": [
            "0x458f5fa412d0f69b08dd84872b0215675cc67bc1d5b6fd93300a1c3878b86196",
            "0x00000000000000000000000072ceb199bc1706a175cc4a0b2809a50ec856ea0e",
            "0x00000000000000000000000072ceb199bc1706a175cc4a0b2809a50ec856ea0e"
          ],
          "data": "0x0000000000000000000000000000000000000000000000000de0b6b3a763ffff00000000000000000000000000000000000000000000000000000000000000000000000000000000000000000000000000000000036c51c37d367dec36d6956d",
          "blockHash": "0xcded38e026f794484dfe3c61f0978ece0c55cf1be409b20a7b6a4fb38fa29c21",
          "blockNumber": "0x19ffb677",
          "transactionHash": "0xff5a7b6d9804cbf3989796d57d3f33c234238f9f3742e10f849986844c1aa844",
          "transactionIndex": "0x0",
          "logIndex": "0x5",
          "removed": false
        },
        {
          "address": "0x794a61358d6845594f94dc1db02a252b5b4814ad",
          "topics": [
            "0x00058a56ea94653cdf4f152d227ace22d4c00ad99e2a43f58cb7d9e3feb295f2",
            "0x00000000000000000000000082af49447d8a07e3bd95bd0d56f35241523fbab1",
            "0x00000000000000000000000072ceb199bc1706a175cc4a0b2809a50ec856ea0e"
          ],
          "data": "0x",
          "blockHash": "0xcded38e026f794484dfe3c61f0978ece0c55cf1be409b20a7b6a4fb38fa29c21",
          "blockNumber": "0x19ffb677",
          "transactionHash": "0xff5a7b6d9804cbf3989796d57d3f33c234238f9f3742e10f849986844c1aa844",
          "transactionIndex": "0x0",
          "logIndex": "0x6",
          "removed": false
        },
        {
          "address": "0x794a61358d6845594f94dc1db02a252b5b4814ad",
          "topics": [
            "0x2b627736bca15cd5381dcf80b0bf11fd197d01a037c52b927a881a10fb73ba61",
            "0x00000000000000000000000082af49447d8a07e3bd95bd0d56f35241523fbab1",
            "0x00000000000000000000000072ceb199bc1706a175cc4a0b2809a50ec856ea0e",
            "0x0000000000000000000000000000000000000000000000000000000000000000"
          ],
          "data": "0x00000000000000000000000072ceb199bc1706a175cc4a0b2809a50ec856ea0e0000000000000000000000000000000000000000000000000de0b6b3a7640000",
          "blockHash": "0xcded38e026f794484dfe3c61f0978ece0c55cf1be409b20a7b6a4fb38fa29c21",
          "blockNumber": "0x19ffb677",
          "transactionHash": "0xff5a7b6d9804cbf3989796d57d3f33c234238f9f3742e10f849986844c1aa844",
          "transactionIndex": "0x0",
          "logIndex": "0x7",
          "removed": false
        },
        {
          "address": "0x72ceb199bc1706a175cc4a0b2809a50ec856ea0e",
          "topics": [
            "0xef9ac81aa0cc398e95ba8022c163414dc6550427f9ea7f6b40f7ef56321ad556",
            "0x00000000000000000000000082af49447d8a07e3bd95bd0d56f35241523fbab1",
            "0x00000000000000000000000072ceb199bc1706a175cc4a0b2809a50ec856ea0e"
          ],
          "data": "0x0000000000000000000000000000000000000000000000000de0b6b3a7640000",
          "blockHash": "0xcded38e026f794484dfe3c61f0978ece0c55cf1be409b20a7b6a4fb38fa29c21",
          "blockNumber": "0x19ffb677",
          "transactionHash": "0xff5a7b6d9804cbf3989796d57d3f33c234238f9f3742e10f849986844c1aa844",
          "transactionIndex": "0x0",
          "logIndex": "0x8",
          "removed": false
        },
        {
          "address": "0xf611aeb5013fd2c0511c9cd55c7dc5c1140741a6",
          "topics": [
            "0xddf252ad1be2c89b69c2b068fc378daa952ba7f163c4a11628f55a4df523b3ef",
            "0x0000000000000000000000000000000000000000000000000000000000000000",
            "0x00000000000000000000000072ceb199bc1706a175cc4a0b2809a50ec856ea0e"
          ],
          "data": "0x000000000000000000000000000000000000000000000000000000003b9aca02",
          "blockHash": "0xcded38e026f794484dfe3c61f0978ece0c55cf1be409b20a7b6a4fb38fa29c21",
          "blockNumber": "0x19ffb677",
          "transactionHash": "0xff5a7b6d9804cbf3989796d57d3f33c234238f9f3742e10f849986844c1aa844",
          "transactionIndex": "0x0",
          "logIndex": "0x9",
          "removed": false
        },
        {
          "address": "0xf611aeb5013fd2c0511c9cd55c7dc5c1140741a6",
          "topics": [
            "0x458f5fa412d0f69b08dd84872b0215675cc67bc1d5b6fd93300a1c3878b86196",
            "0x00000000000000000000000072ceb199bc1706a175cc4a0b2809a50ec856ea0e",
            "0x00000000000000000000000072ceb199bc1706a175cc4a0b2809a50ec856ea0e"
          ],
          "data": "0x000000000000000000000000000000000000000000000000000000003b9aca020000000000000000000000000000000000000000000000000000000000000000000000000000000000000000000000000000000003ef0a49657926fbfefcdd11",
          "blockHash": "0xcded38e026f794484dfe3c61f0978ece0c55cf1be409b20a7b6a4fb38fa29c21",
          "blockNumber": "0x19ffb677",
          "transactionHash": "0xff5a7b6d9804cbf3989796d57d3f33c234238f9f3742e10f849986844c1aa844",
          "transactionIndex": "0x0",
          "logIndex": "0xa",
          "removed": false
        },
        {
          "address": "0x794a61358d6845594f94dc1db02a252b5b4814ad",
          "topics": [
            "0x804c9b842b2748a22bb64b345453a3de7ca54a6ca45ce00d415894979e22897a",
            "0x000000000000000000000000af88d065e77c8cc2239327c5edb3a432268e5831"
          ],
          "data": "0x0000000000000000000000000000000000000000000cbd34864846ed44f5a07f0000000000000000000000000000000000000000000000000000000000000000000000000000000000000000000000000000000000198114c669213f929e71b0000000000000000000000000000000000000000003c0fdd2924ffac2b6af8988000000000000000000000000000000000000000003ef0a49657926fbfefcdd11",
          "blockHash": "0xcded38e026f794484dfe3c61f0978ece0c55cf1be409b20a7b6a4fb38fa29c21",
          "blockNumber": "0x19ffb677",
          "transactionHash": "0xff5a7b6d9804cbf3989796d57d3f33c234238f9f3742e10f849986844c1aa844",
          "transactionIndex": "0x0",
          "logIndex": "0xb",
          "removed": false
        },
        {
          "address": "0xaf88d065e77c8cc2239327c5edb3a432268e5831",
          "topics": [
            "0xddf252ad1be2c89b69c2b068fc378daa952ba7f163c4a11628f55a4df523b3ef",
            "0x000000000000000000000000724dc807b04555b71ed48a6896b6f41593b8c637",
            "0x00000000000000000000000072ceb199bc1706a175cc4a0b2809a50ec856ea0e"
          ],
          "data": "0x000000000000000000000000000000000000000000000000000000003b9aca00",
          "blockHash": "0xcded38e026f794484dfe3c61f0978ece0c55cf1be409b20a7b6a4fb38fa29c21",
          "blockNumber": "0x19ffb677",
          "transactionHash": "0xff5a7b6d9804cbf3989796d57d3f33c234238f9f3742e10f849986844c1aa844",
          "transactionIndex": "0x0",
          "logIndex": "0xc",
          "removed": false
        },
        {
          "address": "0x794a61358d6845594f94dc1db02a252b5b4814ad",
          "topics": [
            "0xb3d084820fb1a9decffb176436bd02558d15fac9b0ddfed8c465bc7359d7dce0",
            "0x000000000000000000000000af88d065e77c8cc2239327c5edb3a432268e5831",
            "0x00000000000000000000000072ceb199bc1706a175cc4a0b2809a50ec856ea0e",
            "0x0000000000000000000000000000000000000000000000000000000000000000"
          ],
          "data": "0x00000000000000000000000072ceb199bc1706a175cc4a0b2809a50ec856ea0e000000000000000000000000000000000000000000000000000000003b9aca000000000000000000000000000000000000000000000000000000000000000002000000000000000000000000000000000000000000198114c669213f929e71b0",
          "blockHash": "0xcded38e026f794484dfe3c61f0978ece0c55cf1be409b20a7b6a4fb38fa29c21",
          "blockNumber": "0x19ffb677",
          "transactionHash": "0xff5a7b6d9804cbf3989796d57d3f33c234238f9f3742e10f849986844c1aa844",
          "transactionIndex": "0x0",
          "logIndex": "0xd",
          "removed": false
        },
        {
          "address": "0x72ceb199bc1706a175cc4a0b2809a50ec856ea0e",
          "topics": [
            "0xe11c2c122834f2bf2bf3182f3ce8c4870133c7118230e08a175bcd1569a5a225",
            "0x000000000000000000000000af88d065e77c8cc2239327c5edb3a432268e5831",
            "0x00000000000000000000000072ceb199bc1706a175cc4a0b2809a50ec856ea0e"
          ],
          "data": "0x000000000000000000000000000000000000000000000000000000003b9aca00",
          "blockHash": "0xcded38e026f794484dfe3c61f0978ece0c55cf1be409b20a7b6a4fb38fa29c21",
          "blockNumber": "0x19ffb677",
          "transactionHash": "0xff5a7b6d9804cbf3989796d57d3f33c234238f9f3742e10f849986844c1aa844",
          "transactionIndex": "0x0",
          "logIndex": "0xe",
          "removed": false
        },
        {
          "address": "0xaf88d065e77c8cc2239327c5edb3a432268e5831",
          "topics": [
            "0x8c5be1e5ebec7d5bd14f71427d1e84f3dd0314c0f7b2291e5b200ac8c7c3b925",
            "0x00000000000000000000000072ceb199bc1706a175cc4a0b2809a50ec856ea0e",
            "0x000000000000000000000000e592427a0aece92de3edee1f18e0157c05861564"
          ],
          "data": "0x000000000000000000000000000000000000000000000000000000003b9aca00",
          "blockHash": "0xcded38e026f794484dfe3c61f0978ece0c55cf1be409b20a7b6a4fb38fa29c21",
          "blockNumber": "0x19ffb677",
          "transactionHash": "0xff5a7b6d9804cbf3989796d57d3f33c234238f9f3742e10f849986844c1aa844",
          "transactionIndex": "0x0",
          "logIndex": "0xf",
          "removed": false
        },
        {
          "address": "0x82af49447d8a07e3bd95bd0d56f35241523fbab1",
          "topics": [
            "0xddf252ad1be2c89b69c2b068fc378daa952ba7f163c4a11628f55a4df523b3ef",
            "0x000000000000000000000000c473e2aee3441bf9240be85eb122abb059a3b57c",
            "0x00000000000000000000000072ceb199bc1706a175cc4a0b2809a50ec856ea0e"
          ],
          "data": "0x00000000000000000000000000000000000000000000000006b1c0738a04f4ca",
          "blockHash": "0xcded38e026f794484dfe3c61f0978ece0c55cf1be409b20a7b6a4fb38fa29c21",
          "blockNumber": "0x19ffb677",
          "transactionHash": "0xff5a7b6d9804cbf3989796d57d3f33c234238f9f3742e10f849986844c1aa844",
          "transactionIndex": "0x0",
          "logIndex": "0x10",
          "removed": false
        },
        {
          "address": "0xaf88d065e77c8cc2239327c5edb3a432268e5831",
          "topics": [
            "0xddf252ad1be2c89b69c2b068fc378daa952ba7f163c4a11628f55a4df523b3ef",
            "0x00000000000000000000000072ceb199bc1706a175cc4a0b2809a50ec856ea0e",
            "0x000000000000000000000000c473e2aee3441bf9240be85eb122abb059a3b57c"
          ],
          "data": "0x000000000000000000000000000000000000000000000000000000003b9aca00",
          "blockHash": "0xcded38e026f794484dfe3c61f0978ece0c55cf1be409b20a7b6a4fb38fa29c21",
          "blockNumber": "0x19ffb677",
          "transactionHash": "0xff5a7b6d9804cbf3989796d57d3f33c234238f9f3742e10f849986844c1aa844",
          "transactionIndex": "0x0",
          "logIndex": "0x11",
          "removed": false
        },
        {
          "address": "0xc473e2aee3441bf9240be85eb122abb059a3b57c",
          "topics": [
            "0xc42079f94a6350d7e6235f29174924f928cc2ac818eb64fed8004e115fbcca67",
            "0x000000000000000000000000e592427a0aece92de3edee1f18e0157c05861564",
            "0x00000000000000000000000072ceb199bc1706a175cc4a0b2809a50ec856ea0e"
          ],
          "data": "0xfffffffffffffffffffffffffffffffffffffffffffffffff94e3f8c75fb0b36000000000000000000000000000000000000000000000000000000003b9aca0000000000000000000000000000000000000000000002fac6b757d62bd40c6f2a00000000000000000000000000000000000000000000000002cef3283ff5cc53fffffffffffffffffffffffffffffffffffffffffffffffffffffffffffcf2d2",
          "blockHash": "0xcded38e026f794484dfe3c61f0978ece0c55cf1be409b20a7b6a4fb38fa29c21",
          "blockNumber": "0x19ffb677",
          "transactionHash": "0xff5a7b6d9804cbf3989796d57d3f33c234238f9f3742e10f849986844c1aa844",
          "transactionIndex": "0x0",
          "logIndex": "0x12",
          "removed": false
        },
        {
          "address": "0x72ceb199bc1706a175cc4a0b2809a50ec856ea0e",
          "topics": [
            "0x86aa7c88922dc2cd6c72c1d0ca9d4cb3e6ff4acd04b394f07fc1e6997aa06fc8",
            "0x000000000000000000000000af88d065e77c8cc2239327c5edb3a432268e5831",
            "0x00000000000000000000000082af49447d8a07e3bd95bd0d56f35241523fbab1"
          ],
          "data": "0x0000000000000000000000000000000000000000000000000000000000000000000000000000000000000000000000000000000000000000000000003b9aca0000000000000000000000000000000000000000000000000006b1c0738a04f4ca",
          "blockHash": "0xcded38e026f794484dfe3c61f0978ece0c55cf1be409b20a7b6a4fb38fa29c21",
          "blockNumber": "0x19ffb677",
          "transactionHash": "0xff5a7b6d9804cbf3989796d57d3f33c234238f9f3742e10f849986844c1aa844",
          "transactionIndex": "0x0",
          "logIndex": "0x13",
          "removed": false
        },
        {
          "address": "0x72ceb199bc1706a175cc4a0b2809a50ec856ea0e",
          "topics": [
            "0x7634d6a0b03c99b5858171c830c3d12f085e56ed6bed3076491a5aa6ffa13537",
            "0x0000000000000000000000000571235134dc15a00f02916987c2c16b5fc52e2a"
          ],
          "data": "0x000000000000000000000000000000000000000000000000000000003b9aca0000000000000000000000000000000000000000000000000006b1c0738a04f4ca",
          "blockHash": "0xcded38e026f794484dfe3c61f0978ece0c55cf1be409b20a7b6a4fb38fa29c21",
          "blockNumber": "0x19ffb677",
          "transactionHash": "0xff5a7b6d9804cbf3989796d57d3f33c234238f9f3742e10f849986844c1aa844",
          "transactionIndex": "0x0",
          "logIndex": "0x14",
          "removed": false
        },
        {
          "address": "0x72ceb199bc1706a175cc4a0b2809a50ec856ea0e",
          "topics": [
            "0x468f9fcb93c235c4a355ece29880da8a8940637230afaedf6c8504f14aa89616",
            "0x0000000000000000000000000000000000000000000000000000000000000001",
            "0x0000000000000000000000000571235134dc15a00f02916987c2c16b5fc52e2a",
            "0x0000000000000000000000000571235134dc15a00f02916987c2c16b5fc52e2a"
          ],
          "data": "0x",
          "blockHash": "0xcded38e026f794484dfe3c61f0978ece0c55cf1be409b20a7b6a4fb38fa29c21",
          "blockNumber": "0x19ffb677",
          "transactionHash": "0xff5a7b6d9804cbf3989796d57d3f33c234238f9f3742e10f849986844c1aa844",
          "transactionIndex": "0x0",
          "logIndex": "0x15",
          "removed": false
        }
      ],
      "logsBloom": "0x00080002010008000080000000001000000000000000000000001002000000000800000000000000100000400004000000004001040024000000300004a40000000000010001000800041008020080012000040000040000800000040020000000000020020000000000100400000800000000100000000000000010000800000000000080000000000001000000000040000800020000000000000120140000020000000000004000000000800400000000000000000902000000000400010002002022000001008000002040400001000000000004040000000000000060000010000000008000020000000001200040040000102c00800000400000010000",
      "type": "0x2",
      "transactionHash": "0xff5a7b6d9804cbf3989796d57d3f33c234238f9f3742e10f849986844c1aa844",
      "transactionIndex": "0x0",
      "blockHash": "0xcded38e026f794484dfe3c61f0978ece0c55cf1be409b20a7b6a4fb38fa29c21",
      "blockNumber": "0x19ffb677",
      "gasUsed": "0x8beb1",
      "effectiveGasPrice": "0x133ec21",
      "blobGasUsed": "0x0",
      "from": "0x0571235134dc15a00f02916987c2c16b5fc52e2a",
      "to": "0x72ceb199bc1706a175cc4a0b2809a50ec856ea0e",
      "contractAddress": null
    }
  ],
  "libraries": [],
  "pending": [],
  "returns": {},
  "timestamp": 1772121552,
  "chain": 99942161,
  "commit": "d3255aa"
}