{
  "transactions": [
    {
      "hash": "0x52c8d3dc50ba88a35db4007166f1e8e42b9a6ebd100660f855b01104d42ec276",
      "transactionType": "CALL",
      "contractName": null,
      "contractAddress": "0x82af49447d8a07e3bd95bd0d56f35241523fbab1",
      "function": "deposit()",
      "arguments": [],
      "transaction": {
        "from": "0x0571235134dc15a00f02916987c2c16b5fc52e2a",
        "to": "0x82af49447d8a07e3bd95bd0d56f35241523fbab1",
        "gas": "0xe983",
        "value": "0xde0b6b3a7640000",
        "input": "0xd0e30db0",
        "nonce": "0x21",
        "chainId": "0x5f4ff11"
      },
      "additionalContracts": [],
      "isFixedGasLimit": false
    },
    {
      "hash": "0x09d72f81e48d8c83b11f104b6f85f904617344a295ff564aa7b2242831ceddb9",
      "transactionType": "CALL",
      "contractName": null,
      "contractAddress": "0x82af49447d8a07e3bd95bd0d56f35241523fbab1",
      "function": "transfer(address,uint256)",
      "arguments": [
        "0x55a8F4Abf58bDa5AA26ddB402f672b69Eb6D2788",
        "1000000000000000000"
      ],
      "transaction": {
        "from": "0x0571235134dc15a00f02916987c2c16b5fc52e2a",
        "to": "0x82af49447d8a07e3bd95bd0d56f35241523fbab1",
        "gas": "0x13e81",
        "value": "0x0",
        "input": "0xa9059cbb00000000000000000000000055a8f4abf58bda5aa26ddb402f672b69eb6d27880000000000000000000000000000000000000000000000000de0b6b3a7640000",
        "nonce": "0x22",
        "chainId": "0x5f4ff11"
      },
      "additionalContracts": [],
      "isFixedGasLimit": false
    },
    {
      "hash": "0x2cccf4467d4b7dc0702fb0b422320343ad19b8cabb068998fe27e850b6e9c8b2",
      "transactionType": "CALL",
      "contractName": null,
      "contractAddress": "0x55a8f4abf58bda5aa26ddb402f672b69eb6d2788",
      "function": "execute(uint8,(uint8,address,address,uint256,uint256,uint24,uint256,address,bytes)[])",
      "arguments": [
        "1",
        "[(0, 0x82aF49447D8a07e3bd95BD0d56f35241523fBab1, 0x0000000000000000000000000000000000000000, 1000000000000000000, 0, 0, 0, 0x0571235134DC15a00f02916987C2c16b5fC52E2A, 0x), (0, 0xaf88d065e77c8cC2239327C5EDb3A432268e5831, 0x0000000000000000000000000000000000000000, 1000000000, 0, 0, 0, 0x0571235134DC15a00f02916987C2c16b5fC52E2A, 0x), (0, 0xaf88d065e77c8cC2239327C5EDb3A432268e5831, 0x82aF49447D8a07e3bd95BD0d56f35241523fBab1, 0, 0, 3000, 0, 0x0571235134DC15a00f02916987C2c16b5fC52E2A, 0x)]"
      ],
      "transaction": {
        "from": "0x0571235134dc15a00f02916987c2c16b5fc52e2a",
        "to": "0x55a8f4abf58bda5aa26ddb402f672b69eb6d2788",
        "gas": "0xcccd3",
        "value": "0x0",
        "input": "0x7b0e6120000000000000000000000000000000000000000000000000000000000000000100000000000000000000000000000000000000000000000000000000000000400000000000000000000000000000000000000000000000000000000000000003000000000000000000000000000000000000000000000000000000000000006000000000000000000000000000000000000000000000000000000000000001a000000000000000000000000000000000000000000000000000000000000002e0000000000000000000000000000000000000000000000000000000000000000000000000000000000000000082af49447d8a07e3bd95bd0d56f35241523fbab100000000000000000000000000000000000000000000000000000000000000000000000000000000000000000000000000000000000000000de0b6b3a76400000000000000000000000000000000000000000000000000000000000000000000000000000000000000000000000000000000000000000000000000000000000000000000000000000000000000000000000000000000000000000000000000000000000000000000000000000571235134dc15a00f02916987c2c16b5fc52e2a000000000000000000000000000000000000000000000000000000000000012000000000000000000000000000000000000000000000000000000000000000000000000000000000000000000000000000000000000000000000000000000000000000000000000000000000af88d065e77c8cc2239327c5edb3a432268e58310000000000000000000000000000000000000000000000000000000000000000000000000000000000000000000000000000000000000000000000003b9aca000000000000000000000000000000000000000000000000000000000000000000000000000000000000000000000000000000000000000000000000000000000000000000000000000000000000000000000000000000000000000000000000000000000000000000000000000571235134dc15a00f02916987c2c16b5fc52e2a000000000000000000000000000000000000000000000000000000000000012000000000000000000000000000000000000000000000000000000000000000000000000000000000000000000000000000000000000000000000000000000000000000000000000000000000af88d065e77c8cc2239327c5edb3a432268e583100000000000000000000000082af49447d8a07e3bd95bd0d56f35241523fbab1000000000000000000000000000000000000000000000000000000000000000000000000000000000000000000000000000000000000000000000000000000000000000000000000000000000000000000000000000000000000000000000bb800000000000000000000000000000000000000000000000000000000000000000000000000000000000000000571235134dc15a00f02916987c2c16b5fc52e2a00000000000000000000000000000000000000000000000000000000000001200000000000000000000000000000000000000000000000000000000000000000",
        "nonce": "0x23",
        "chainId": "0x5f4ff11"
      },
      "additionalContracts": [],
      "isFixedGasLimit": false
    }
  ],
  "receipts": [
    {
      "status": "0x1",
      "cumulativeGasUsed": "0xa041",
      "logs": [
        {
          "address": "0x82af49447d8a07e3bd95bd0d56f35241523fbab1",
          "topics": [
            "0xddf252ad1be2c89b69c2b068fc378daa952ba7f163c4a11628f55a4df523b3ef",
            "0x0000000000000000000000000000000000000000000000000000000000000000",
            "0x0000000000000000000000000571235134dc15a00f02916987c2c16b5fc52e2a"
          ],
          "data": "0x0000000000000000000000000000000000000000000000000de0b6b3a7640000",
          "blockHash": "0x11fc6dc3e777508f6b1bb4e8f57e4a8908897e8d76e580865f01fa759f77b1c8",
          "blockNumber": "0x19ffb67e",
          "transactionHash": "0x52c8d3dc50ba88a35db4007166f1e8e42b9a6ebd100660f855b01104d42ec276",
          "transactionIndex": "0x0",
          "logIndex": "0x0",
          "removed": false
        }
      ],
      "logsBloom": "0x00000000000000000000000000000000000000000000000000000000000000000000000000000000000000000000000000004000000000000000000000000000000000010000000000000008000000000000000000000000000000000000000000000020020000000000000400000800000000000000000000000010000000000000000000000000000000000000000000000000000000000000000000000000000000000000004000000000000000000000000000000000000000000000000000000002000000000000000000000000000000000000000000000000000020000000000000000000000000000000000000000000000400000000000000000000",
      "type": "0x2",
      "transactionHash": "0x52c8d3dc50ba88a35db4007166f1e8e42b9a6ebd100660f855b01104d42ec276",
      "transactionIndex": "0x0",
      "blockHash": "0x11fc6dc3e777508f6b1bb4e8f57e4a8908897e8d76e580865f01fa759f77b1c8",
      "blockNumber": "0x19ffb67e",
      "gasUsed": "0xa041",
      "effectiveGasPrice": "0x133ec21",
      "blobGasUsed": "0x0",
      "from": "0x0571235134dc15a00f02916987c2c16b5fc52e2a",
      "to": "0x82af49447d8a07e3bd95bd0d56f35241523fbab1",
      "contractAddress": null
    },
    {
      "status": "0x1",
      "cumulativeGasUsed": "0xe774",
      "logs": [
        {
          "address": "0x82af49447d8a07e3bd95bd0d56f35241523fbab1",
          "topics": [
            "0xddf252ad1be2c89b69c2b068fc378daa952ba7f163c4a11628f55a4df523b3ef",
            "0x0000000000000000000000000571235134dc15a00f02916987c2c16b5fc52e2a",
            "0x00000000000000000000000055a8f4abf58bda5aa26ddb402f672b69eb6d2788"
          ],
          "data": "0x0000000000000000000000000000000000000000000000000de0b6b3a7640000",
          "blockHash": "0xb7caad63eae4bae064f6b0ce0e10a9ec6e3f154b6b11b0fd2aa2e1a1df96e455",
          "blockNumber": "0x19ffb67f",
          "transactionHash": "0x09d72f81e48d8c83b11f104b6f85f904617344a295ff564aa7b2242831ceddb9",
          "transactionIndex": "0x0",
          "logIndex": "0x0",
          "removed": false
        }
      ],
      "logsBloom": "0x00000000000000000000000000000000000000000000000000000000000000000000000000000000000000000000000000004000000000000000000000000000000000010000000000000008000000000002000000000000000000000000000000000020000000000000000400000000000000000000000000000010000000000000000000000000000000000000000000000000000000000000000080000000000000000000004000000000000000000000000000000000000000000000000000000002000000000000000000000000000000000000000000000000000000000000000000000000080000000000000000000000000400000000000000000000",
      "type": "0x2",
      "transactionHash": "0x09d72f81e48d8c83b11f104b6f85f904617344a295ff564aa7b2242831ceddb9",
      "transactionIndex": "0x0",
      "blockHash": "0xb7caad63eae4bae064f6b0ce0e10a9ec6e3f154b6b11b0fd2aa2e1a1df96e455",
      "blockNumber": "0x19ffb67f",
      "gasUsed": "0xe774",
      "effectiveGasPrice": "0x133ec21",
      "blobGasUsed": "0x0",
      "from": "0x0571235134dc15a00f02916987c2c16b5fc52e2a",
      "to": "0x82af49447d8a07e3bd95bd0d56f35241523fbab1",
      "contractAddress": null
    },
    {
      "status": "0x1",
      "cumulativeGasUsed": "0x8c251",
      "logs": [
        {
          "address": "0x82af49447d8a07e3bd95bd0d56f35241523fbab1",
          "topics": [
            "0x8c5be1e5ebec7d5bd14f71427d1e84f3dd0314c0f7b2291e5b200ac8c7c3b925",
            "0x00000000000000000000000055a8f4abf58bda5aa26ddb402f672b69eb6d2788",
            "0x000000000000000000000000794a61358d6845594f94dc1db02a252b5b4814ad"
          ],
          "data": "0x0000000000000000000000000000000000000000000000000de0b6b3a7640000",
          "blockHash": "0x6f61a5c68fad8a9c959058f9d57bd3e4f08bad382921e5985eeaf5ba96e25812",
          "blockNumber": "0x19ffb680",
          "transactionHash": "0x2cccf4467d4b7dc0702fb0b422320343ad19b8cabb068998fe27e850b6e9c8b2",
          "transactionIndex": "0x0",
          "logIndex": "0x0",
          "removed": false
        },
        {
          "address": "0x794a61358d6845594f94dc1db02a252b5b4814ad",
          "topics": [
            "0x804c9b842b2748a22bb64b345453a3de7ca54a6ca45ce00d415894979e22897a",
            "0x00000000000000000000000082af49447d8a07e3bd95bd0d56f35241523fbab1"
          ],
          "data": "0x00000000000000000000000000000000000000000010007d33ddf7a2d73eca640000000000000000000000000000000000000000000000000000000000000000000000000000000000000000000000000000000000149224c471c4c8325fb2680000000000000000000000000000000000000000036c520aefa4970565b0db620000000000000000000000000000000000000000039652bedc1e24530a5af59d",
          "blockHash": "0x6f61a5c68fad8a9c959058f9d57bd3e4f08bad382921e5985eeaf5ba96e25812",
          "blockNumber": "0x19ffb680",
          "transactionHash": "0x2cccf4467d4b7dc0702fb0b422320343ad19b8cabb068998fe27e850b6e9c8b2",
          "transactionIndex": "0x0",
          "logIndex": "0x1",
          "removed": false
        },
        {
          "address": "0x82af49447d8a07e3bd95bd0d56f35241523fbab1",
          "topics": [
            "0xddf252ad1be2c89b69c2b068fc378daa952ba7f163c4a11628f55a4df523b3ef",
            "0x00000000000000000000000055a8f4abf58bda5aa26ddb402f672b69eb6d2788",
            "0x000000000000000000000000e50fa9b3c56ffb159cb0fca61f5c9d750e8128c8"
          ],
          "data": "0x0000000000000000000000000000000000000000000000000de0b6b3a7640000",
          "blockHash": "0x6f61a5c68fad8a9c959058f9d57bd3e4f08bad382921e5985eeaf5ba96e25812",
          "blockNumber": "0x19ffb680",
          "transactionHash": "0x2cccf4467d4b7dc0702fb0b422320343ad19b8cabb068998fe27e850b6e9c8b2",
          "transactionIndex": "0x0",
          "logIndex": "0x2",
          "removed": false
        },
        {
          "address": "0x82af49447d8a07e3bd95bd0d56f35241523fbab1",
          "topics": [
            "0x8c5be1e5ebec7d5bd14f71427d1e84f3dd0314c0f7b2291e5b200ac8c7c3b925",
            "0x00000000000000000000000055a8f4abf58bda5aa26ddb402f672b69eb6d2788",
            "0x000000000000000000000000794a61358d6845594f94dc1db02a252b5b4814ad"
          ],
          "data": "0x0000000000000000000000000000000000000000000000000000000000000000",
          "blockHash": "0x6f61a5c68fad8a9c959058f9d57bd3e4f08bad382921e5985eeaf5ba96e25812",
          "blockNumber": "0x19ffb680",
          "transactionHash": "0x2cccf4467d4b7dc0702fb0b422320343ad19b8cabb068998fe27e850b6e9c8b2",
          "transactionIndex": "0x0",
          "logIndex": "0x3",
          "removed": false
        },
        {
          "address": "0xe50fa9b3c56ffb159cb0fca61f5c9d750e8128c8",
          "topics": [
            "0xddf252ad1be2c89b69c2b068fc378daa952ba7f163c4a11628f55a4df523b3ef",
            "0x0000000000000000000000000000000000000000000000000000000000000000",
            "0x00000000000000000000000055a8f4abf58bda5aa26ddb402f672b69eb6d2788"
          ],
          "data": "0x0000000000000000000000000000000000000000000000000de0b6b3a763ffff",
          "blockHash": "0x6f61a5c68fad8a9c959058f9d57bd3e4f08bad382921e5985eeaf5ba96e25812",
          "blockNumber": "0x19ffb680",
          "transactionHash": "0x2cccf4467d4b7dc0702fb0b422320343ad19b8cabb068998fe27e850b6e9c8b2",
          "transactionIndex": "0x0",
          "logIndex": "0x4",
          "removed": false
        },
        {
          "address": "0xe50fa9b3c56ffb159cb0fca61f5c9d750e8128c8",
          "topics": [
            "0x458f5fa412d0f69b08dd84872b0215675cc67bc1d5b6fd93300a1c3878b86196",
            "0x00000000000000000000000055a8f4abf58bda5aa26ddb402f672b69eb6d2788",
            "0x00000000000000000000000055a8f4abf58bda5aa26ddb402f672b69eb6d2788"
          ],
          "data": "0x0000000000000000000000000000000000000000000000000de0b6b3a763ffff00000000000000000000000000000000000000000000000000000000000000000000000000000000000000000000000000000000036c520aefa4970565b0db62",
          "blockHash": "0x6f61a5c68fad8a9c959058f9d57bd3e4f08bad382921e5985eeaf5ba96e25812",
          "blockNumber": "0x19ffb680",
          "transactionHash": "0x2cccf4467d4b7dc0702fb0b422320343ad19b8cabb068998fe27e850b6e9c8b2",
          "transactionIndex": "0x0",
          "logIndex": "0x5",
          "removed": false
        },
        {
          "address": "0x794a61358d6845594f94dc1db02a252b5b4814ad",
          "topics": [
            "0x00058a56ea94653cdf4f152d227ace22d4c00ad99e2a43f58cb7d9e3feb295f2",
            "0x00000000000000000000000082af49447d8a07e3bd95bd0d56f35241523fbab1",
            "0x00000000000000000000000055a8f4abf58bda5aa26ddb402f672b69eb6d2788"
          ],
          "data": "0x",
          "blockHash": "0x6f61a5c68fad8a9c959058f9d57bd3e4f08bad382921e5985eeaf5ba96e25812",
          "blockNumber": "0x19ffb680",
          "transactionHash": "0x2cccf4467d4b7dc0702fb0b422320343ad19b8cabb068998fe27e850b6e9c8b2",
          "transactionIndex": "0x0",
          "logIndex": "0x6",
          "removed": false
        },
        {
          "address": "0x794a61358d6845594f94dc1db02a252b5b4814ad",
          "topics": [
            "0x2b627736bca15cd5381dcf80b0bf11fd197d01a037c52b927a881a10fb73ba61",
            "0x00000000000000000000000082af49447d8a07e3bd95bd0d56f35241523fbab1",
            "0x00000000000000000000000055a8f4abf58bda5aa26ddb402f672b69eb6d2788",
            "0x0000000000000000000000000000000000000000000000000000000000000000"
          ],
          "data": "0x00000000000000000000000055a8f4abf58bda5aa26ddb402f672b69eb6d27880000000000000000000000000000000000000000000000000de0b6b3a7640000",
          "blockHash": "0x6f61a5c68fad8a9c959058f9d57bd3e4f08bad382921e5985eeaf5ba96e25812",
          "blockNumber": "0x19ffb680",
          "transactionHash": "0x2cccf4467d4b7dc0702fb0b422320343ad19b8cabb068998fe27e850b6e9c8b2",
          "transactionIndex": "0x0",
          "logIndex": "0x7",
          "removed": false
        },
        {
          "address": "0x55a8f4abf58bda5aa26ddb402f672b69eb6d2788",
          "topics": [
            "0xef9ac81aa0cc398e95ba8022c163414dc6550427f9ea7f6b40f7ef56321ad556",
            "0x00000000000000000000000082af49447d8a07e3bd95bd0d56f35241523fbab1",
            "0x00000000000000000000000055a8f4abf58bda5aa26ddb402f672b69eb6d2788"
          ],
          "data": "0x0000000000000000000000000000000000000000000000000de0b6b3a7640000",
          "blockHash": "0x6f61a5c68fad8a9c959058f9d57bd3e4f08bad382921e5985eeaf5ba96e25812",
          "blockNumber": "0x19ffb680",
          "transactionHash": "0x2cccf4467d4b7dc0702fb0b422320343ad19b8cabb068998fe27e850b6e9c8b2",
          "transactionIndex": "0x0",
          "logIndex": "0x8",
          "removed": false
        },
        {
          "address": "0xf611aeb5013fd2c0511c9cd55c7dc5c1140741a6",
          "topics": [
            "0xddf252ad1be2c89b69c2b068fc378daa952ba7f163c4a11628f55a4df523b3ef",
            "0x0000000000000000000000000000000000000000000000000000000000000000",
            "0x00000000000000000000000055a8f4abf58bda5aa26ddb402f672b69eb6d2788"
          ],
          "data": "0x000000000000000000000000000000000000000000000000000000003b9aca01",
          "blockHash": "0x6f61a5c68fad8a9c959058f9d57bd3e4f08bad382921e5985eeaf5ba96e25812",
          "blockNumber": "0x19ffb680",
          "transactionHash": "0x2cccf4467d4b7dc0702fb0b422320343ad19b8cabb068998fe27e850b6e9c8b2",
          "transactionIndex": "0x0",
          "logIndex": "0x9",
          "removed": false
        },
        {
          "address": "0xf611aeb5013fd2c0511c9cd55c7dc5c1140741a6",
          "topics": [
            "0x458f5fa412d0f69b08dd84872b0215675cc67bc1d5b6fd93300a1c3878b86196",
            "0x00000000000000000000000055a8f4abf58bda5aa26ddb402f672b69eb6d2788",
            "0x00000000000000000000000055a8f4abf58bda5aa26ddb402f672b69eb6d2788"
          ],
          "data": "0x000000000000000000000000000000000000000000000000000000003b9aca010000000000000000000000000000000000000000000000000000000000000000000000000000000000000000000000000000000003ef0acc413a41c6af4a3452",
          "blockHash": "0x6f61a5c68fad8a9c959058f9d57bd3e4f08bad382921e5985eeaf5ba96e25812",
          "blockNumber": "0x19ffb680",
          "transactionHash": "0x2cccf4467d4b7dc0702fb0b422320343ad19b8cabb068998fe27e850b6e9c8b2",
          "transactionIndex": "0x0",
          "logIndex": "0xa",
          "removed": false
        },
        {
          "address": "0x794a61358d6845594f94dc1db02a252b5b4814ad",
          "topics": [
            "0x804c9b842b2748a22bb64b345453a3de7ca54a6ca45ce00d415894979e22897a",
            "0x000000000000000000000000af88d065e77c8cc2239327c5edb3a432268e5831"
          ],
          "data": "0x0000000000000000000000000000000000000000000cbd4b363c6103b09cfae7000000000000000000000000000000000000000000000000000000000000000000000000000000000000000000000000000000000019812b7c43af703c13714b000000000000000000000000000000000000000003c0fe10f1fb00d49b0fda4a000000000000000000000000000000000000000003ef0acc413a41c6af4a3452",
          "blockHash": "0x6f61a5c68fad8a9c959058f9d57bd3e4f08bad382921e5985eeaf5ba96e25812",
          "blockNumber": "0x19ffb680",
          "transactionHash": "0x2cccf4467d4b7dc0702fb0b422320343ad19b8cabb068998fe27e850b6e9c8b2",
          "transactionIndex": "0x0",
          "logIndex": "0xb",
          "removed": false
        },
        {
          "address": "0xaf88d065e77c8cc2239327c5edb3a432268e5831",
          "topics": [
            "0xddf252ad1be2c89b69c2b068fc378daa952ba7f163c4a11628f55a4df523b3ef",
            "0x000000000000000000000000724dc807b04555b71ed48a6896b6f41593b8c637",
            "0x00000000000000000000000055a8f4abf58bda5aa26ddb402f672b69eb6d2788"
          ],
          "data": "0x000000000000000000000000000000000000000000000000000000003b9aca00",
          "blockHash": "0x6f61a5c68fad8a9c959058f9d57bd3e4f08bad382921e5985eeaf5ba96e25812",
          "blockNumber": "0x19ffb680",
          "transactionHash": "0x2cccf4467d4b7dc0702fb0b422320343ad19b8cabb068998fe27e850b6e9c8b2",
          "transactionIndex": "0x0",
          "logIndex": "0xc",
          "removed": false
        },
        {
          "address": "0x794a61358d6845594f94dc1db02a252b5b4814ad",
          "topics": [
            "0xb3d084820fb1a9decffb176436bd02558d15fac9b0ddfed8c465bc7359d7dce0",
            "0x000000000000000000000000af88d065e77c8cc2239327c5edb3a432268e5831",
            "0x00000000000000000000000055a8f4abf58bda5aa26ddb402f672b69eb6d2788",
            "0x0000000000000000000000000000000000000000000000000000000000000000"
          ],
          "data": "0x00000000000000000000000055a8f4abf58bda5aa26ddb402f672b69eb6d2788000000000000000000000000000000000000000000000000000000003b9aca00000000000000000000000000000000000000000000000000000000000000000200000000000000000000000000000000000000000019812b7c43af703c13714b",
          "blockHash": "0x6f61a5c68fad8a9c959058f9d57bd3e4f08bad382921e5985eeaf5ba96e25812",
          "blockNumber": "0x19ffb680",
          "transactionHash": "0x2cccf4467d4b7dc0702fb0b422320343ad19b8cabb068998fe27e850b6e9c8b2",
          "transactionIndex": "0x0",
          "logIndex": "0xd",
          "removed": false
        },
        {
          "address": "0x55a8f4abf58bda5aa26ddb402f672b69eb6d2788",
          "topics": [
            "0xe11c2c122834f2bf2bf3182f3ce8c4870133c7118230e08a175bcd1569a5a225",
            "0x000000000000000000000000af88d065e77c8cc2239327c5edb3a432268e5831",
            "0x00000000000000000000000055a8f4abf58bda5aa26ddb402f672b69eb6d2788"
          ],
          "data": "0x000000000000000000000000000000000000000000000000000000003b9aca00",
          "blockHash": "0x6f61a5c68fad8a9c959058f9d57bd3e4f08bad382921e5985eeaf5ba96e25812",
          "blockNumber": "0x19ffb680",
          "transactionHash": "0x2cccf4467d4b7dc0702fb0b422320343ad19b8cabb068998fe27e850b6e9c8b2",
          "transactionIndex": "0x0",
          "logIndex": "0xe",
          "removed": false
        },
        {
          "address": "0xaf88d065e77c8cc2239327c5edb3a432268e5831",
          "topics": [
            "0x8c5be1e5ebec7d5bd14f71427d1e84f3dd0314c0f7b2291e5b200ac8c7c3b925",
            "0x00000000000000000000000055a8f4abf58bda5aa26ddb402f672b69eb6d2788",
            "0x000000000000000000000000e592427a0aece92de3edee1f18e0157c05861564"
          ],
          "data": "0x000000000000000000000000000000000000000000000000000000003b9aca00",
          "blockHash": "0x6f61a5c68fad8a9c959058f9d57bd3e4f08bad382921e5985eeaf5ba96e25812",
          "blockNumber": "0x19ffb680",
          "transactionHash": "0x2cccf4467d4b7dc0702fb0b422320343ad19b8cabb068998fe27e850b6e9c8b2",
          "transactionIndex": "0x0",
          "logIndex": "0xf",
          "removed": false
        },
        {
          "address": "0x82af49447d8a07e3bd95bd0d56f35241523fbab1",
          "topics": [
            "0xddf252ad1be2c89b69c2b068fc378daa952ba7f163c4a11628f55a4df523b3ef",
            "0x000000000000000000000000c473e2aee3441bf9240be85eb122abb059a3b57c",
            "0x00000000000000000000000055a8f4abf58bda5aa26ddb402f672b69eb6d2788"
          ],
          "data": "0x00000000000000000000000000000000000000000000000006b0ff8ffa04bff9",
          "blockHash": "0x6f61a5c68fad8a9c959058f9d57bd3e4f08bad382921e5985eeaf5ba96e25812",
          "blockNumber": "0x19ffb680",
          "transactionHash": "0x2cccf4467d4b7dc0702fb0b422320343ad19b8cabb068998fe27e850b6e9c8b2",
          "transactionIndex": "0x0",
          "logIndex": "0x10",
          "removed": false
        },
        {
          "address": "0xaf88d065e77c8cc2239327c5edb3a432268e5831",
          "topics": [
            "0xddf252ad1be2c89b69c2b068fc378daa952ba7f163c4a11628f55a4df523b3ef",
            "0x00000000000000000000000055a8f4abf58bda5aa26ddb402f672b69eb6d2788",
            "0x000000000000000000000000c473e2aee3441bf9240be85eb122abb059a3b57c"
          ],
          "data": "0x000000000000000000000000000000000000000000000000000000003b9aca00",
          "blockHash": "0x6f61a5c68fad8a9c959058f9d57bd3e4f08bad382921e5985eeaf5ba96e25812",
          "blockNumber": "0x19ffb680",
          "transactionHash": "0x2cccf4467d4b7dc0702fb0b422320343ad19b8cabb068998fe27e850b6e9c8b2",
          "transactionIndex": "0x0",
          "logIndex": "0x11",
          "removed": false
        },
        {
          "address": "0xc473e2aee3441bf9240be85eb122abb059a3b57c",
          "topics": [
            "0xc42079f94a6350d7e6235f29174924f928cc2ac818eb64fed8004e115fbcca67",
            "0x000000000000000000000000e592427a0aece92de3edee1f18e0157c05861564",
            "0x00000000000000000000000055a8f4abf58bda5aa26ddb402f672b69eb6d2788"
          ],
          "data": "0xfffffffffffffffffffffffffffffffffffffffffffffffff94f007005fb4007000000000000000000000000000000000000000000000000000000003b9aca0000000000000000000000000000000000000000000002faf201dc88f87d6d185e00000000000000000000000000000000000000000000000002b7c2997365b66ffffffffffffffffffffffffffffffffffffffffffffffffffffffffffffcf2d7",
          "blockHash": "0x6f61a5c68fad8a9c959058f9d57bd3e4f08bad382921e5985eeaf5ba96e25812",
          "blockNumber": "0x19ffb680",
          "transactionHash": "0x2cccf4467d4b7dc0702fb0b422320343ad19b8cabb068998fe27e850b6e9c8b2",
          "transactionIndex": "0x0",
          "logIndex": "0x12",
          "removed": false
        },
        {
          "address": "0x55a8f4abf58bda5aa26ddb402f672b69eb6d2788",
          "topics": [
            "0x86aa7c88922dc2cd6c72c1d0ca9d4cb3e6ff4acd04b394f07fc1e6997aa06fc8",
            "0x000000000000000000000000af88d065e77c8cc2239327c5edb3a432268e5831",
            "0x00000000000000000000000082af49447d8a07e3bd95bd0d56f35241523fbab1"
          ],
          "data": "0x0000000000000000000000000000000000000000000000000000000000000000000000000000000000000000000000000000000000000000000000003b9aca0000000000000000000000000000000000000000000000000006b0ff8ffa04bff9",
          "blockHash": "0x6f61a5c68fad8a9c959058f9d57bd3e4f08bad382921e5985eeaf5ba96e25812",
          "blockNumber": "0x19ffb680",
          "transactionHash": "0x2cccf4467d4b7dc0702fb0b422320343ad19b8cabb068998fe27e850b6e9c8b2",
          "transactionIndex": "0x0",
          "logIndex": "0x13",
          "removed": false
        },
        {
          "address": "0x55a8f4abf58bda5aa26ddb402f672b69eb6d2788",
          "topics": [
            "0x7634d6a0b03c99b5858171c830c3d12f085e56ed6bed3076491a5aa6ffa13537",
            "0x0000000000000000000000000571235134dc15a00f02916987c2c16b5fc52e2a"
          ],
          "data": "0x000000000000000000000000000000000000000000000000000000003b9aca0000000000000000000000000000000000000000000000000006b0ff8ffa04bff9",
          "blockHash": "0x6f61a5c68fad8a9c959058f9d57bd3e4f08bad382921e5985eeaf5ba96e25812",
          "blockNumber": "0x19ffb680",
          "transactionHash": "0x2cccf4467d4b7dc0702fb0b422320343ad19b8cabb068998fe27e850b6e9c8b2",
          "transactionIndex": "0x0",
          "logIndex": "0x14",
          "removed": false
        },
        {
          "address": "0x55a8f4abf58bda5aa26ddb402f672b69eb6d2788",
          "topics": [
            "0x468f9fcb93c235c4a355ece29880da8a8940637230afaedf6c8504f14aa89616",
            "0x0000000000000000000000000000000000000000000000000000000000000001",
            "0x0000000000000000000000000571235134dc15a00f02916987c2c16b5fc52e2a",
            "0x0000000000000000000000000571235134dc15a00f02916987c2c16b5fc52e2a"
          ],
          "data": "0x",
          "blockHash": "0x6f61a5c68fad8a9c959058f9d57bd3e4f08bad382921e5985eeaf5ba96e25812",
          "blockNumber": "0x19ffb680",
          "transactionHash": "0x2cccf4467d4b7dc0702fb0b422320343ad19b8cabb068998fe27e850b6e9c8b2",
          "transactionIndex": "0x0",
          "logIndex": "0x15",
          "removed": false
        }
      ],
      "logsBloom": "0x000800020100080000800002000010000000000000000000000010000000000008000000000000001000004000040000000040010400240000003000042400000000000100010008000410080200000120020400000400008000000400200000000000200200000000001004000008000000001000000000000000100008000000000000800000000000010000000000400008000200000000000001a00400000200000000000040000000008000000000000000000009020000000004000100020020220000010080000020404000010000000000040400020000000000600000100000000084000a0000000001200040040000002c00800000400000010000",
      "type": "0x2",
      "transactionHash": "0x2cccf4467d4b7dc0702fb0b422320343ad19b8cabb068998fe27e850b6e9c8b2",
      "transactionIndex": "0x0",
      "blockHash": "0x6f61a5c68fad8a9c959058f9d57bd3e4f08bad382921e5985eeaf5ba96e25812",
      "blockNumber": "0x19ffb680",
      "gasUsed": "0x8c251",
      "effectiveGasPrice": "0x133ec21",
      "blobGasUsed": "0x0",
      "from": "0x0571235134dc15a00f02916987c2c16b5fc52e2a",
      "to": "0x55a8f4abf58bda5aa26ddb402f672b69eb6d2788",
      "contractAddress": null
    }
  ],
  "libraries": [],
  "pending": [],
  "returns": {},
  "timestamp": 1772123579,
  "chain": 99942161,
  "commit": "d3255aa"
}