{
  "transactions": [
    {
      "hash": "0x102a32a041090a19e4abbdbf3c6f44449b84bde2432df393f7a66959950d08bc",
      "transactionType": "CALL",
      "contractName": null,
      "contractAddress": "0x82af49447d8a07e3bd95bd0d56f35241523fbab1",
      "function": "deposit()",
      "arguments": [],
      "transaction": {
        "from": "0x0571235134dc15a00f02916987c2c16b5fc52e2a",
        "to": "0x82af49447d8a07e3bd95bd0d56f35241523fbab1",
        "gas": "0x138cd",
        "value": "0xde0b6b3a7640000",
        "input": "0xd0e30db0",
        "nonce": "0x1b",
        "chainId": "0x5f4ff11"
      },
      "additionalContracts": [],
      "isFixedGasLimit": false
    },
    {
      "hash": "0x4d1e28275e9895ea05f61ef3ad3be299d6ebf484c35b058c87a4f1942f999345",
      "transactionType": "CALL",
      "contractName": null,
      "contractAddress": "0x82af49447d8a07e3bd95bd0d56f35241523fbab1",
      "function": "transfer(address,uint256)",
      "arguments": [
        "0x7c59c16Dd64D4D1B1eD3d646A43c07928447A3dB",
        "1000000000000000000"
      ],
      "transaction": {
        "from": "0x0571235134dc15a00f02916987c2c16b5fc52e2a",
        "to": "0x82af49447d8a07e3bd95bd0d56f35241523fbab1",
        "gas": "0xc857",
        "value": "0x0",
        "input": "0xa9059cbb0000000000000000000000007c59c16dd64d4d1b1ed3d646a43c07928447a3db0000000000000000000000000000000000000000000000000de0b6b3a7640000",
        "nonce": "0x1c",
        "chainId": "0x5f4ff11"
      },
      "additionalContracts": [],
      "isFixedGasLimit": false
    },
    {
      "hash": "0x9bf867b53e7501ceceec289b80397feb0bda12abb6777175145a03f03b6163aa",
      "transactionType": "CALL",
      "contractName": null,
      "contractAddress": "0x7c59c16dd64d4d1b1ed3d646a43c07928447a3db",
      "function": "execute(uint8,(uint8,address,address,uint256,uint256,uint24,uint256,address,bytes)[])",
      "arguments": [
        "1",
        "[(0, 0x82aF49447D8a07e3bd95BD0d56f35241523fBab1, 0x0000000000000000000000000000000000000000, 1000000000000000000, 0, 0, 0, 0x0571235134DC15a00f02916987C2c16b5fC52E2A, 0x), (0, 0xaf88d065e77c8cC2239327C5EDb3A432268e5831, 0x0000000000000000000000000000000000000000, 1000000000, 0, 0, 0, 0x0571235134DC15a00f02916987C2c16b5fC52E2A, 0x), (0, 0xaf88d065e77c8cC2239327C5EDb3A432268e5831, 0x82aF49447D8a07e3bd95BD0d56f35241523fBab1, 0, 0, 3000, 0, 0x0571235134DC15a00f02916987C2c16b5fC52E2A, 0x)]"
      ],
      "transaction": {
        "from": "0x0571235134dc15a00f02916987c2c16b5fc52e2a",
        "to": "0x7c59c16dd64d4d1b1ed3d646a43c07928447a3db",
        "gas": "0xccab0",
        "value": "0x0",
        "input": "0x7b0e6120000000000000000000000000000000000000000000000000000000000000000100000000000000000000000000000000000000000000000000000000000000400000000000000000000000000000000000000000000000000000000000000003000000000000000000000000000000000000000000000000000000000000006000000000000000000000000000000000000000000000000000000000000001a000000000000000000000000000000000000000000000000000000000000002e0000000000000000000000000000000000000000000000000000000000000000000000000000000000000000082af49447d8a07e3bd95bd0d56f35241523fbab100000000000000000000000000000000000000000000000000000000000000000000000000000000000000000000000000000000000000000de0b6b3a76400000000000000000000000000000000000000000000000000000000000000000000000000000000000000000000000000000000000000000000000000000000000000000000000000000000000000000000000000000000000000000000000000000000000000000000000000000571235134dc15a00f02916987c2c16b5fc52e2a000000000000000000000000000000000000000000000000000000000000012000000000000000000000000000000000000000000000000000000000000000000000000000000000000000000000000000000000000000000000000000000000000000000000000000000000af88d065e77c8cc2239327c5edb3a432268e58310000000000000000000000000000000000000000000000000000000000000000000000000000000000000000000000000000000000000000000000003b9aca000000000000000000000000000000000000000000000000000000000000000000000000000000000000000000000000000000000000000000000000000000000000000000000000000000000000000000000000000000000000000000000000000000000000000000000000000571235134dc15a00f02916987c2c16b5fc52e2a000000000000000000000000000000000000000000000000000000000000012000000000000000000000000000000000000000000000000000000000000000000000000000000000000000000000000000000000000000000000000000000000000000000000000000000000af88d065e77c8cc2239327c5edb3a432268e583100000000000000000000000082af49447d8a07e3bd95bd0d56f35241523fbab1000000000000000000000000000000000000000000000000000000000000000000000000000000000000000000000000000000000000000000000000000000000000000000000000000000000000000000000000000000000000000000000bb800000000000000000000000000000000000000000000000000000000000000000000000000000000000000000571235134dc15a00f02916987c2c16b5fc52e2a00000000000000000000000000000000000000000000000000000000000001200000000000000000000000000000000000000000000000000000000000000000",
        "nonce": "0x1d",
        "chainId": "0x5f4ff11"
      },
      "additionalContracts": [],
      "isFixedGasLimit": false
    }
  ],
  "receipts": [
    {
      "status": "0x1",
      "cumulativeGasUsed": "0xe294",
      "logs": [
        {
          "address": "0x82af49447d8a07e3bd95bd0d56f35241523fbab1",
          "topics": [
            "0xddf252ad1be2c89b69c2b068fc378daa952ba7f163c4a11628f55a4df523b3ef",
            "0x0000000000000000000000000000000000000000000000000000000000000000",
            "0x0000000000000000000000000571235134dc15a00f02916987c2c16b5fc52e2a"
          ],
          "data": "0x0000000000000000000000000000000000000000000000000de0b6b3a7640000",
          "blockHash": "0xa2c2e8fdf08684247df47b47878ccaec25fca0cbbd4cabe268d0e519d450d529",
          "blockNumber": "0x19f79dbf",
          "transactionHash": "0x102a32a041090a19e4abbdbf3c6f44449b84bde2432df393f7a66959950d08bc",
          "transactionIndex": "0x0",
          "logIndex": "0x0",
          "removed": false
        }
      ],
      "logsBloom": "0x00000000000000000000000000000000000000000000000000000000000000000000000000000000000000000000000000004000000000000000000000000000000000010000000000000008000000000000000000000000000000000000000000000020020000000000000400000800000000000000000000000010000000000000000000000000000000000000000000000000000000000000000000000000000000000000004000000000000000000000000000000000000000000000000000000002000000000000000000000000000000000000000000000000000020000000000000000000000000000000000000000000000400000000000000000000",
      "type": "0x2",
      "transactionHash": "0x102a32a041090a19e4abbdbf3c6f44449b84bde2432df393f7a66959950d08bc",
      "transactionIndex": "0x0",
      "blockHash": "0xa2c2e8fdf08684247df47b47878ccaec25fca0cbbd4cabe268d0e519d450d529",
      "blockNumber": "0x19f79dbf",
      "gasUsed": "0xe294",
      "effectiveGasPrice": "0x14410f1",
      "blobGasUsed": "0x0",
      "from": "0x0571235134dc15a00f02916987c2c16b5fc52e2a",
      "to": "0x82af49447d8a07e3bd95bd0d56f35241523fbab1",
      "contractAddress": null
    },
    {
      "status": "0x1",
      "cumulativeGasUsed": "0x9137",
      "logs": [
        {
          "address": "0x82af49447d8a07e3bd95bd0d56f35241523fbab1",
          "topics": [
            "0xddf252ad1be2c89b69c2b068fc378daa952ba7f163c4a11628f55a4df523b3ef",
            "0x0000000000000000000000000571235134dc15a00f02916987c2c16b5fc52e2a",
            "0x0000000000000000000000007c59c16dd64d4d1b1ed3d646a43c07928447a3db"
          ],
          "data": "0x0000000000000000000000000000000000000000000000000de0b6b3a7640000",
          "blockHash": "0xe1798980df04540b493b701e85dad892043069890ccbcc813ce41ecc484ac16c",
          "blockNumber": "0x19f79dc0",
          "transactionHash": "0x4d1e28275e9895ea05f61ef3ad3be299d6ebf484c35b058c87a4f1942f999345",
          "transactionIndex": "0x0",
          "logIndex": "0x0",
          "removed": false
        }
      ],
      "logsBloom": "0x00000000000000000000000000000000000000000000000000000000000000000000000000000000000000000000000000004000000000000000000000000000000000010000000000000008000000000000000000000000000000000000000000000020000000000000000400000000000000000000000000000010000000000000000000000000000000000000000000000000000000000000000000000000000000400000004000000000000000000000004000000000000000000000000000000002000000000000000000008000000000000000000000000000000000000000000000000000000000000000000000000000000400000000000000000000",
      "type": "0x2",
      "transactionHash": "0x4d1e28275e9895ea05f61ef3ad3be299d6ebf484c35b058c87a4f1942f999345",
      "transactionIndex": "0x0",
      "blockHash": "0xe1798980df04540b493b701e85dad892043069890ccbcc813ce41ecc484ac16c",
      "blockNumber": "0x19f79dc0",
      "gasUsed": "0x9137",
      "effectiveGasPrice": "0x14410f1",
      "blobGasUsed": "0x0",
      "from": "0x0571235134dc15a00f02916987c2c16b5fc52e2a",
      "to": "0x82af49447d8a07e3bd95bd0d56f35241523fbab1",
      "contractAddress": null
    },
    {
      "status": "0x1",
      "cumulativeGasUsed": "0x8bf76",
      "logs": [
        {
          "address": "0x82af49447d8a07e3bd95bd0d56f35241523fbab1",
          "topics": [
            "0x8c5be1e5ebec7d5bd14f71427d1e84f3dd0314c0f7b2291e5b200ac8c7c3b925",
            "0x0000000000000000000000007c59c16dd64d4d1b1ed3d646a43c07928447a3db",
            "0x000000000000000000000000794a61358d6845594f94dc1db02a252b5b4814ad"
          ],
          "data": "0x0000000000000000000000000000000000000000000000000de0b6b3a7640000",
          "blockHash": "0x24746b76a6292e2e3a251181f44d6ea4a93cee3a45bd6b4fdc9989591744aa70",
          "blockNumber": "0x19f79dc1",
          "transactionHash": "0x9bf867b53e7501ceceec289b80397feb0bda12abb6777175145a03f03b6163aa",
          "transactionIndex": "0x0",
          "logIndex": "0x0",
          "removed": false
        },
        {
          "address": "0x794a61358d6845594f94dc1db02a252b5b4814ad",
          "topics": [
            "0x804c9b842b2748a22bb64b345453a3de7ca54a6ca45ce00d415894979e22897a",
            "0x00000000000000000000000082af49447d8a07e3bd95bd0d56f35241523fbab1"
          ],
          "data": "0x0000000000000000000000000000000000000000000fcbc9d5a2f431def38f470000000000000000000000000000000000000000000000000000000000000000000000000000000000000000000000000000000000147028f16e841a34b69a2d0000000000000000000000000000000000000000036c4880e7cbd168f259e5b80000000000000000000000000000000000000000039645c7aa7532eb18914d12",
          "blockHash": "0x24746b76a6292e2e3a251181f44d6ea4a93cee3a45bd6b4fdc9989591744aa70",
          "blockNumber": "0x19f79dc1",
          "transactionHash": "0x9bf867b53e7501ceceec289b80397feb0bda12abb6777175145a03f03b6163aa",
          "transactionIndex": "0x0",
          "logIndex": "0x1",
          "removed": false
        },
        {
          "address": "0x82af49447d8a07e3bd95bd0d56f35241523fbab1",
          "topics": [
            "0xddf252ad1be2c89b69c2b068fc378daa952ba7f163c4a11628f55a4df523b3ef",
            "0x0000000000000000000000007c59c16dd64d4d1b1ed3d646a43c07928447a3db",
            "0x000000000000000000000000e50fa9b3c56ffb159cb0fca61f5c9d750e8128c8"
          ],
          "data": "0x0000000000000000000000000000000000000000000000000de0b6b3a7640000",
          "blockHash": "0x24746b76a6292e2e3a251181f44d6ea4a93cee3a45bd6b4fdc9989591744aa70",
          "blockNumber": "0x19f79dc1",
          "transactionHash": "0x9bf867b53e7501ceceec289b80397feb0bda12abb6777175145a03f03b6163aa",
          "transactionIndex": "0x0",
          "logIndex": "0x2",
          "removed": false
        },
        {
          "address": "0x82af49447d8a07e3bd95bd0d56f35241523fbab1",
          "topics": [
            "0x8c5be1e5ebec7d5bd14f71427d1e84f3dd0314c0f7b2291e5b200ac8c7c3b925",
            "0x0000000000000000000000007c59c16dd64d4d1b1ed3d646a43c07928447a3db",
            "0x000000000000000000000000794a61358d6845594f94dc1db02a252b5b4814ad"
          ],
          "data": "0x0000000000000000000000000000000000000000000000000000000000000000",
          "blockHash": "0x24746b76a6292e2e3a251181f44d6ea4a93cee3a45bd6b4fdc9989591744aa70",
          "blockNumber": "0x19f79dc1",
          "transactionHash": "0x9bf867b53e7501ceceec289b80397feb0bda12abb6777175145a03f03b6163aa",
          "transactionIndex": "0x0",
          "logIndex": "0x3",
          "removed": false
        },
        {
          "address": "0xe50fa9b3c56ffb159cb0fca61f5c9d750e8128c8",
          "topics": [
            "0xddf252ad1be2c89b69c2b068fc378daa952ba7f163c4a11628f55a4df523b3ef",
            "0x0000000000000000000000000000000000000000000000000000000000000000",
            "0x0000000000000000000000007c59c16dd64d4d1b1ed3d646a43c07928447a3db"
          ],
          "data": "0x0000000000000000000000000000000000000000000000000de0b6b3a763ffff",
          "blockHash": "0x24746b76a6292e2e3a251181f44d6ea4a93cee3a45bd6b4fdc9989591744aa70",
          "blockNumber": "0x19f79dc1",
          "transactionHash": "0x9bf867b53e7501ceceec289b80397feb0bda12abb6777175145a03f03b6163aa",
          "transactionIndex": "0x0",
          "logIndex": "0x4",
          "removed": false
        },
        {
          "address": "0xe50fa9b3c56ffb159cb0fca61f5c9d750e8128c8",
          "topics": [
            "0x458f5fa412d0f69b08dd84872b0215675cc67bc1d5b6fd93300a1c3878b86196",
            "0x0000000000000000000000007c59c16dd64d4d1b1ed3d646a43c07928447a3db",
            "0x0000000000000000000000007c59c16dd64d4d1b1ed3d646a43c07928447a3db"
          ],
          "data": "0x0000000000000000000000000000000000000000000000000de0b6b3a763ffff00000000000000000000000000000000000000000000000000000000000000000000000000000000000000000000000000000000036c4880e7cbd168f259e5b8",
          "blockHash": "0x24746b76a6292e2e3a251181f44d6ea4a93cee3a45bd6b4fdc9989591744aa70",
          "blockNumber": "0x19f79dc1",
          "transactionHash": "0x9bf867b53e7501ceceec289b80397feb0bda12abb6777175145a03f03b6163aa",
          "transactionIndex": "0x0",
          "logIndex": "0x5",
          "removed": false
        },
        {
          "address": "0x794a61358d6845594f94dc1db02a252b5b4814ad",
          "topics": [
            "0x00058a56ea94653cdf4f152d227ace22d4c00ad99e2a43f58cb7d9e3feb295f2",
            "0x00000000000000000000000082af49447d8a07e3bd95bd0d56f35241523fbab1",
            "0x0000000000000000000000007c59c16dd64d4d1b1ed3d646a43c07928447a3db"
          ],
          "data": "0x",
          "blockHash": "0x24746b76a6292e2e3a251181f44d6ea4a93cee3a45bd6b4fdc9989591744aa70",
          "blockNumber": "0x19f79dc1",
          "transactionHash": "0x9bf867b53e7501ceceec289b80397feb0bda12abb6777175145a03f03b6163aa",
          "transactionIndex": "0x0",
          "logIndex": "0x6",
          "removed": false
        },
        {
          "address": "0x794a61358d6845594f94dc1db02a252b5b4814ad",
          "topics": [
            "0x2b627736bca15cd5381dcf80b0bf11fd197d01a037c52b927a881a10fb73ba61",
            "0x00000000000000000000000082af49447d8a07e3bd95bd0d56f35241523fbab1",
            "0x0000000000000000000000007c59c16dd64d4d1b1ed3d646a43c07928447a3db",
            "0x0000000000000000000000000000000000000000000000000000000000000000"
          ],
          "data": "0x0000000000000000000000007c59c16dd64d4d1b1ed3d646a43c07928447a3db0000000000000000000000000000000000000000000000000de0b6b3a7640000",
          "blockHash": "0x24746b76a6292e2e3a251181f44d6ea4a93cee3a45bd6b4fdc9989591744aa70",
          "blockNumber": "0x19f79dc1",
          "transactionHash": "0x9bf867b53e7501ceceec289b80397feb0bda12abb6777175145a03f03b6163aa",
          "transactionIndex": "0x0",
          "logIndex": "0x7",
          "removed": false
        },
        {
          "address": "0x7c59c16dd64d4d1b1ed3d646a43c07928447a3db",
          "topics": [
            "0xef9ac81aa0cc398e95ba8022c163414dc6550427f9ea7f6b40f7ef56321ad556",
            "0x00000000000000000000000082af49447d8a07e3bd95bd0d56f35241523fbab1",
            "0x0000000000000000000000007c59c16dd64d4d1b1ed3d646a43c07928447a3db"
          ],
          "data": "0x0000000000000000000000000000000000000000000000000de0b6b3a7640000",
          "blockHash": "0x24746b76a6292e2e3a251181f44d6ea4a93cee3a45bd6b4fdc9989591744aa70",
          "blockNumber": "0x19f79dc1",
          "transactionHash": "0x9bf867b53e7501ceceec289b80397feb0bda12abb6777175145a03f03b6163aa",
          "transactionIndex": "0x0",
          "logIndex": "0x8",
          "removed": false
        },
        {
          "address": "0xf611aeb5013fd2c0511c9cd55c7dc5c1140741a6",
          "topics": [
            "0xddf252ad1be2c89b69c2b068fc378daa952ba7f163c4a11628f55a4df523b3ef",
            "0x0000000000000000000000000000000000000000000000000000000000000000",
            "0x0000000000000000000000007c59c16dd64d4d1b1ed3d646a43c07928447a3db"
          ],
          "data": "0x000000000000000000000000000000000000000000000000000000003b9aca01",
          "blockHash": "0x24746b76a6292e2e3a251181f44d6ea4a93cee3a45bd6b4fdc9989591744aa70",
          "blockNumber": "0x19f79dc1",
          "transactionHash": "0x9bf867b53e7501ceceec289b80397feb0bda12abb6777175145a03f03b6163aa",
          "transactionIndex": "0x0",
          "logIndex": "0x9",
          "removed": false
        },
        {
          "address": "0xf611aeb5013fd2c0511c9cd55c7dc5c1140741a6",
          "topics": [
            "0x458f5fa412d0f69b08dd84872b0215675cc67bc1d5b6fd93300a1c3878b86196",
            "0x0000000000000000000000007c59c16dd64d4d1b1ed3d646a43c07928447a3db",
            "0x0000000000000000000000007c59c16dd64d4d1b1ed3d646a43c07928447a3db"
          ],
          "data": "0x000000000000000000000000000000000000000000000000000000003b9aca010000000000000000000000000000000000000000000000000000000000000000000000000000000000000000000000000000000003eef8e32f9b9ccc512587f7",
          "blockHash": "0x24746b76a6292e2e3a251181f44d6ea4a93cee3a45bd6b4fdc9989591744aa70",
          "blockNumber": "0x19f79dc1",
          "transactionHash": "0x9bf867b53e7501ceceec289b80397feb0bda12abb6777175145a03f03b6163aa",
          "transactionIndex": "0x0",
          "logIndex": "0xa",
          "removed": false
        },
        {
          "address": "0x794a61358d6845594f94dc1db02a252b5b4814ad",
          "topics": [
            "0x804c9b842b2748a22bb64b345453a3de7ca54a6ca45ce00d415894979e22897a",
            "0x000000000000000000000000af88d065e77c8cc2239327c5edb3a432268e5831"
          ],
          "data": "0x0000000000000000000000000000000000000000000d6754bac9ff3f9f20f45800000000000000000000000000000000000000000000000000000000000000000000000000000000000000000000000000000000001a293753eece922235eac2000000000000000000000000000000000000000003c0f577caff350799a34439000000000000000000000000000000000000000003eef8e32f9b9ccc512587f7",
          "blockHash": "0x24746b76a6292e2e3a251181f44d6ea4a93cee3a45bd6b4fdc9989591744aa70",
          "blockNumber": "0x19f79dc1",
          "transactionHash": "0x9bf867b53e7501ceceec289b80397feb0bda12abb6777175145a03f03b6163aa",
          "transactionIndex": "0x0",
          "logIndex": "0xb",
          "removed": false
        },
        {
          "address": "0xaf88d065e77c8cc2239327c5edb3a432268e5831",
          "topics": [
            "0xddf252ad1be2c89b69c2b068fc378daa952ba7f163c4a11628f55a4df523b3ef",
            "0x000000000000000000000000724dc807b04555b71ed48a6896b6f41593b8c637",
            "0x0000000000000000000000007c59c16dd64d4d1b1ed3d646a43c07928447a3db"
          ],
          "data": "0x000000000000000000000000000000000000000000000000000000003b9aca00",
          "blockHash": "0x24746b76a6292e2e3a251181f44d6ea4a93cee3a45bd6b4fdc9989591744aa70",
          "blockNumber": "0x19f79dc1",
          "transactionHash": "0x9bf867b53e7501ceceec289b80397feb0bda12abb6777175145a03f03b6163aa",
          "transactionIndex": "0x0",
          "logIndex": "0xc",
          "removed": false
        },
        {
          "address": "0x794a61358d6845594f94dc1db02a252b5b4814ad",
          "topics": [
            "0xb3d084820fb1a9decffb176436bd02558d15fac9b0ddfed8c465bc7359d7dce0",
            "0x000000000000000000000000af88d065e77c8cc2239327c5edb3a432268e5831",
            "0x0000000000000000000000007c59c16dd64d4d1b1ed3d646a43c07928447a3db",
            "0x0000000000000000000000000000000000000000000000000000000000000000"
          ],
          "data": "0x0000000000000000000000007c59c16dd64d4d1b1ed3d646a43c07928447a3db000000000000000000000000000000000000000000000000000000003b9aca0000000000000000000000000000000000000000000000000000000000000000020000000000000000000000000000000000000000001a293753eece922235eac2",
          "blockHash": "0x24746b76a6292e2e3a251181f44d6ea4a93cee3a45bd6b4fdc9989591744aa70",
          "blockNumber": "0x19f79dc1",
          "transactionHash": "0x9bf867b53e7501ceceec289b80397feb0bda12abb6777175145a03f03b6163aa",
          "transactionIndex": "0x0",
          "logIndex": "0xd",
          "removed": false
        },
        {
          "address": "0x7c59c16dd64d4d1b1ed3d646a43c07928447a3db",
          "topics": [
            "0xe11c2c122834f2bf2bf3182f3ce8c4870133c7118230e08a175bcd1569a5a225",
            "0x000000000000000000000000af88d065e77c8cc2239327c5edb3a432268e5831",
            "0x0000000000000000000000007c59c16dd64d4d1b1ed3d646a43c07928447a3db"
          ],
          "data": "0x000000000000000000000000000000000000000000000000000000003b9aca00",
          "blockHash": "0x24746b76a6292e2e3a251181f44d6ea4a93cee3a45bd6b4fdc9989591744aa70",
          "blockNumber": "0x19f79dc1",
          "transactionHash": "0x9bf867b53e7501ceceec289b80397feb0bda12abb6777175145a03f03b6163aa",
          "transactionIndex": "0x0",
          "logIndex": "0xe",
          "removed": false
        },
        {
          "address": "0xaf88d065e77c8cc2239327c5edb3a432268e5831",
          "topics": [
            "0x8c5be1e5ebec7d5bd14f71427d1e84f3dd0314c0f7b2291e5b200ac8c7c3b925",
            "0x0000000000000000000000007c59c16dd64d4d1b1ed3d646a43c07928447a3db",
            "0x000000000000000000000000e592427a0aece92de3edee1f18e0157c05861564"
          ],
          "data": "0x000000000000000000000000000000000000000000000000000000003b9aca00",
          "blockHash": "0x24746b76a6292e2e3a251181f44d6ea4a93cee3a45bd6b4fdc9989591744aa70",
          "blockNumber": "0x19f79dc1",
          "transactionHash": "0x9bf867b53e7501ceceec289b80397feb0bda12abb6777175145a03f03b6163aa",
          "transactionIndex": "0x0",
          "logIndex": "0xf",
          "removed": false
        },
        {
          "address": "0x82af49447d8a07e3bd95bd0d56f35241523fbab1",
          "topics": [
            "0xddf252ad1be2c89b69c2b068fc378daa952ba7f163c4a11628f55a4df523b3ef",
            "0x000000000000000000000000c473e2aee3441bf9240be85eb122abb059a3b57c",
            "0x0000000000000000000000007c59c16dd64d4d1b1ed3d646a43c07928447a3db"
          ],
          "data": "0x000000000000000000000000000000000000000000000000073fca77ba02e800",
          "blockHash": "0x24746b76a6292e2e3a251181f44d6ea4a93cee3a45bd6b4fdc9989591744aa70",
          "blockNumber": "0x19f79dc1",
          "transactionHash": "0x9bf867b53e7501ceceec289b80397feb0bda12abb6777175145a03f03b6163aa",
          "transactionIndex": "0x0",
          "logIndex": "0x10",
          "removed": false
        },
        {
          "address": "0xaf88d065e77c8cc2239327c5edb3a432268e5831",
          "topics": [
            "0xddf252ad1be2c89b69c2b068fc378daa952ba7f163c4a11628f55a4df523b3ef",
            "0x0000000000000000000000007c59c16dd64d4d1b1ed3d646a43c07928447a3db",
            "0x000000000000000000000000c473e2aee3441bf9240be85eb122abb059a3b57c"
          ],
          "data": "0x000000000000000000000000000000000000000000000000000000003b9aca00",
          "blockHash": "0x24746b76a6292e2e3a251181f44d6ea4a93cee3a45bd6b4fdc9989591744aa70",
          "blockNumber": "0x19f79dc1",
          "transactionHash": "0x9bf867b53e7501ceceec289b80397feb0bda12abb6777175145a03f03b6163aa",
          "transactionIndex": "0x0",
          "logIndex": "0x11",
          "removed": false
        },
        {
          "address": "0xc473e2aee3441bf9240be85eb122abb059a3b57c",
          "topics": [
            "0xc42079f94a6350d7e6235f29174924f928cc2ac818eb64fed8004e115fbcca67",
            "0x000000000000000000000000e592427a0aece92de3edee1f18e0157c05861564",
            "0x0000000000000000000000007c59c16dd64d4d1b1ed3d646a43c07928447a3db"
          ],
          "data": "0xfffffffffffffffffffffffffffffffffffffffffffffffff8c0358845fd1800000000000000000000000000000000000000000000000000000000003b9aca0000000000000000000000000000000000000000000002dd037535b41424be317f0000000000000000000000000000000000000000000000000260d10a63c2ef53fffffffffffffffffffffffffffffffffffffffffffffffffffffffffffcefb6",
          "blockHash": "0x24746b76a6292e2e3a251181f44d6ea4a93cee3a45bd6b4fdc9989591744aa70",
          "blockNumber": "0x19f79dc1",
          "transactionHash": "0x9bf867b53e7501ceceec289b80397feb0bda12abb6777175145a03f03b6163aa",
          "transactionIndex": "0x0",
          "logIndex": "0x12",
          "removed": false
        },
        {
          "address": "0x7c59c16dd64d4d1b1ed3d646a43c07928447a3db",
          "topics": [
            "0x86aa7c88922dc2cd6c72c1d0ca9d4cb3e6ff4acd04b394f07fc1e6997aa06fc8",
            "0x000000000000000000000000af88d065e77c8cc2239327c5edb3a432268e5831",
            "0x00000000000000000000000082af49447d8a07e3bd95bd0d56f35241523fbab1"
          ],
          "data": "0x0000000000000000000000000000000000000000000000000000000000000000000000000000000000000000000000000000000000000000000000003b9aca00000000000000000000000000000000000000000000000000073fca77ba02e800",
          "blockHash": "0x24746b76a6292e2e3a251181f44d6ea4a93cee3a45bd6b4fdc9989591744aa70",
          "blockNumber": "0x19f79dc1",
          "transactionHash": "0x9bf867b53e7501ceceec289b80397feb0bda12abb6777175145a03f03b6163aa",
          "transactionIndex": "0x0",
          "logIndex": "0x13",
          "removed": false
        },
        {
          "address": "0x7c59c16dd64d4d1b1ed3d646a43c07928447a3db",
          "topics": [
            "0x7634d6a0b03c99b5858171c830c3d12f085e56ed6bed3076491a5aa6ffa13537",
            "0x0000000000000000000000000571235134dc15a00f02916987c2c16b5fc52e2a"
          ],
          "data": "0x000000000000000000000000000000000000000000000000000000003b9aca00000000000000000000000000000000000000000000000000073fca77ba02e800",
          "blockHash": "0x24746b76a6292e2e3a251181f44d6ea4a93cee3a45bd6b4fdc9989591744aa70",
          "blockNumber": "0x19f79dc1",
          "transactionHash": "0x9bf867b53e7501ceceec289b80397feb0bda12abb6777175145a03f03b6163aa",
          "transactionIndex": "0x0",
          "logIndex": "0x14",
          "removed": false
        },
        {
          "address": "0x7c59c16dd64d4d1b1ed3d646a43c07928447a3db",
          "topics": [
            "0x468f9fcb93c235c4a355ece29880da8a8940637230afaedf6c8504f14aa89616",
            "0x0000000000000000000000000000000000000000000000000000000000000001",
            "0x0000000000000000000000000571235134dc15a00f02916987c2c16b5fc52e2a",
            "0x0000000000000000000000000571235134dc15a00f02916987c2c16b5fc52e2a"
          ],
          "data": "0x",
          "blockHash": "0x24746b76a6292e2e3a251181f44d6ea4a93cee3a45bd6b4fdc9989591744aa70",
          "blockNumber": "0x19f79dc1",
          "transactionHash": "0x9bf867b53e7501ceceec289b80397feb0bda12abb6777175145a03f03b6163aa",
          "transactionIndex": "0x0",
          "logIndex": "0x15",
          "removed": false
        }
      ],
      "logsBloom": "0x00080002010008000080000000001000000000000040000000001004000000000800000000000000100000400004000000004001040024000000300004240000000000010001000800041008020000012000040000040000800000040020000000000020020000000000100400000800000000100040000000000010000800000000000080000000000001000000000040000800020000000000000120040000020000400000004000000000800000000000004000000902000000000400010002002022000001008000002040408001000000000004040000000000000060000010000000008000020000000001200040040000002c00800000400000010000",
      "type": "0x2",
      "transactionHash": "0x9bf867b53e7501ceceec289b80397feb0bda12abb6777175145a03f03b6163aa",
      "transactionIndex": "0x0",
      "blockHash": "0x24746b76a6292e2e3a251181f44d6ea4a93cee3a45bd6b4fdc9989591744aa70",
      "blockNumber": "0x19f79dc1",
      "gasUsed": "0x8bf76",
      "effectiveGasPrice": "0x14410f1",
      "blobGasUsed": "0x0",
      "from": "0x0571235134dc15a00f02916987c2c16b5fc52e2a",
      "to": "0x7c59c16dd64d4d1b1ed3d646a43c07928447a3db",
      "contractAddress": null
    }
  ],
  "libraries": [],
  "pending": [],
  "returns": {},
  "timestamp": 1772053010,
  "chain": 99942161,
  "commit": "a822a26"
}