{
  "transactions": [
    {
      "hash": "0xadceb4db72511f33fb98190e39fe97384246a759f28b525ae3026de01a5f49bd",
      "transactionType": "CALL",
      "contractName": null,
      "contractAddress": "0xc02aaa39b223fe8d0a0e5c4f27ead9083c756cc2",
      "function": "deposit()",
      "arguments": [],
      "transaction": {
        "from": "0x0571235134dc15a00f02916987c2c16b5fc52e2a",
        "to": "0xc02aaa39b223fe8d0a0e5c4f27ead9083c756cc2",
        "gas": "0x9f9b",
        "value": "0x8ac7230489e80000",
        "input": "0xd0e30db0",
        "nonce": "0x1a",
        "chainId": "0x1"
      },
      "additionalContracts": [],
      "isFixedGasLimit": false
    },
    {
      "hash": "0xc656301566b0b721f9b36864ecbf48a130d889a2ebb38b1dddb2a8a613fcab3c",
      "transactionType": "CALL",
      "contractName": null,
      "contractAddress": "0xc02aaa39b223fe8d0a0e5c4f27ead9083c756cc2",
      "function": "transfer(address,uint256)",
      "arguments": [
        "0xdc7a67547ADDB28B8334ae9C046426Ca87B35227",
        "10000000000000000000"
      ],
      "transaction": {
        "from": "0x0571235134dc15a00f02916987c2c16b5fc52e2a",
        "to": "0xc02aaa39b223fe8d0a0e5c4f27ead9083c756cc2",
        "gas": "0xba1b",
        "value": "0x0",
        "input": "0xa9059cbb000000000000000000000000dc7a67547addb28b8334ae9c046426ca87b352270000000000000000000000000000000000000000000000008ac7230489e80000",
        "nonce": "0x1b",
        "chainId": "0x1"
      },
      "additionalContracts": [],
      "isFixedGasLimit": false
    },
    {
      "hash": "0xce97af7d8a6c02416faee390ae627a10b936b3db15320d3531c8bb146c3847f0",
      "transactionType": "CALL",
      "contractName": null,
      "contractAddress": "0xdc7a67547addb28b8334ae9c046426ca87b35227",
      "function": "execute(uint8,(uint8,address,address,uint256,uint256,uint24,uint256,address,bytes)[])",
      "arguments": [
        "2",
        "[(0, 0xC02aaA39b223FE8D0A0e5C4F27eAD9083C756Cc2, 0xA0b86991c6218b36c1d19D4a2e9Eb0cE3606eB48, 10000000000000000000, 0, 3000, 0, 0x0571235134DC15a00f02916987C2c16b5fC52E2A, 0x)]"
      ],
      "transaction": {
        "from": "0x0571235134dc15a00f02916987c2c16b5fc52e2a",
        "to": "0xdc7a67547addb28b8334ae9c046426ca87b35227",
        "gas": "0x32d94",
        "value": "0x0",
        "input": "0x7b0e612000000000000000000000000000000000000000000000000000000000000000020000000000000000000000000000000000000000000000000000000000000040000000000000000000000000000000000000000000000000000000000000000100000000000000000000000000000000000000000000000000000000000000200000000000000000000000000000000000000000000000000000000000000000000000000000000000000000c02aaa39b223fe8d0a0e5c4f27ead9083c756cc2000000000000000000000000a0b86991c6218b36c1d19d4a2e9eb0ce3606eb480000000000000000000000000000000000000000000000008ac7230489e8000000000000000000000000000000000000000000000000000000000000000000000000000000000000000000000000000000000000000000000000000000000bb800000000000000000000000000000000000000000000000000000000000000000000000000000000000000000571235134dc15a00f02916987c2c16b5fc52e2a00000000000000000000000000000000000000000000000000000000000001200000000000000000000000000000000000000000000000000000000000000000",
        "nonce": "0x1c",
        "chainId": "0x1"
      },
      "additionalContracts": [],
      "isFixedGasLimit": false
    }
  ],
  "receipts": [
    {
      "status": "0x1",
      "cumulativeGasUsed": "0x6d22",
      "logs": [
        {
          "address": "0xc02aaa39b223fe8d0a0e5c4f27ead9083c756cc2",
          "topics": [
            "0xe1fffcc4923d04b559f4d29a8bfc6cda04eb5b0d3c460751c2402c5c5cc9109c",
            "0x0000000000000000000000000571235134dc15a00f02916987c2c16b5fc52e2a"
          ],
          "data": "0x0000000000000000000000000000000000000000000000008ac7230489e80000",
          "blockHash": "0x0fb820ea630922f560656a35b3637ab408b1dbb445efeaac327d7c5925e7e98d",
          "blockNumber": "0x175a073",
          "transactionHash": "0xadceb4db72511f33fb98190e39fe97384246a759f28b525ae3026de01a5f49bd",
          "transactionIndex": "0x0",
          "logIndex": "0x0",
          "removed": false
        }
      ],
      "logsBloom": "0x00000000000000000000000000000000000000000000000000000000000000000000000000000000000000000000000002000000080000000000000000000000000000000000000000000000000000000000000000000000000000008000000000000020000000000000000000000000000000000000000000000000000000000000000000000000000000000000000000000001000000000000000000000000000000000000004000000000000000000000000000000000000000000000000000000000000000000000000000000000000000000000000000000000000000000000200000000000000000000000000000000000000400400000000000000000",
      "type": "0x2",
      "transactionHash": "0xadceb4db72511f33fb98190e39fe97384246a759f28b525ae3026de01a5f49bd",
      "transactionIndex": "0x0",
      "blockHash": "0x0fb820ea630922f560656a35b3637ab408b1dbb445efeaac327d7c5925e7e98d",
      "blockNumber": "0x175a073",
      "gasUsed": "0x6d22",
      "effectiveGasPrice": "0x41f0ab",
      "blobGasUsed": "0x0",
      "from": "0x0571235134dc15a00f02916987c2c16b5fc52e2a",
      "to": "0xc02aaa39b223fe8d0a0e5c4f27ead9083c756cc2",
      "contractAddress": null
    },
    {
      "status": "0x1",
      "cumulativeGasUsed": "0x86be",
      "logs": [
        {
          "address": "0xc02aaa39b223fe8d0a0e5c4f27ead9083c756cc2",
          "topics": [
            "0xddf252ad1be2c89b69c2b068fc378daa952ba7f163c4a11628f55a4df523b3ef",
            "0x0000000000000000000000000571235134dc15a00f02916987c2c16b5fc52e2a",
            "0x000000000000000000000000dc7a67547addb28b8334ae9c046426ca87b35227"
          ],
          "data": "0x0000000000000000000000000000000000000000000000008ac7230489e80000",
          "blockHash": "0x8f3247d643877e54b6afeb521c043c63cff209fd5cbdad317351efc41c28520a",
          "blockNumber": "0x175a074",
          "transactionHash": "0xc656301566b0b721f9b36864ecbf48a130d889a2ebb38b1dddb2a8a613fcab3c",
          "transactionIndex": "0x0",
          "logIndex": "0x0",
          "removed": false
        }
      ],
      "logsBloom": "0x00000000000000000000000000000000000000000000000000000000000000100000000000000000000000000000000002000000080000000000000000000000000000000000000000000008000000000000000000000000000000000000000000000020000000000000000000000000000000000000000000000010000000000000000000000000000000000000000000000000000000000800000000000000000000000000004000000000000000000000000000000000000000000000000000000002000000000000000000000000000000000000000000000000000000000000200000000000000000000000000000000000000400000000000000000200",
      "type": "0x2",
      "transactionHash": "0xc656301566b0b721f9b36864ecbf48a130d889a2ebb38b1dddb2a8a613fcab3c",
      "transactionIndex": "0x0",
      "blockHash": "0x8f3247d643877e54b6afeb521c043c63cff209fd5cbdad317351efc41c28520a",
      "blockNumber": "0x175a074",
      "gasUsed": "0x86be",
      "effectiveGasPrice": "0x41f0ab",
      "blobGasUsed": "0x0",
      "from": "0x0571235134dc15a00f02916987c2c16b5fc52e2a",
      "to": "0xc02aaa39b223fe8d0a0e5c4f27ead9083c756cc2",
      "contractAddress": null
    },
    {
      "status": "0x1",
      "cumulativeGasUsed": "0x24d05",
      "logs": [
        {
          "address": "0xc02aaa39b223fe8d0a0e5c4f27ead9083c756cc2",
          "topics": [
            "0x8c5be1e5ebec7d5bd14f71427d1e84f3dd0314c0f7b2291e5b200ac8c7c3b925",
            "0x000000000000000000000000dc7a67547addb28b8334ae9c046426ca87b35227",
            "0x000000000000000000000000e592427a0aece92de3edee1f18e0157c05861564"
          ],
          "data": "0x0000000000000000000000000000000000000000000000008ac7230489e80000",
          "blockHash": "0x3b6e10896dbff38b659e209095bdb62d6764c06ec7e76320467294338730f60c",
          "blockNumber": "0x175a075",
          "transactionHash": "0xce97af7d8a6c02416faee390ae627a10b936b3db15320d3531c8bb146c3847f0",
          "transactionIndex": "0x0",
          "logIndex": "0x0",
          "removed": false
        },
        {
          "address": "0xa0b86991c6218b36c1d19d4a2e9eb0ce3606eb48",
          "topics": [
            "0xddf252ad1be2c89b69c2b068fc378daa952ba7f163c4a11628f55a4df523b3ef",
            "0x0000000000000000000000008ad599c3a0ff1de082011efddc58f1908eb6e6d8",
            "0x0000000000000000000000000571235134dc15a00f02916987c2c16b5fc52e2a"
          ],
          "data": "0x000000000000000000000000000000000000000000000000000000047d6e32db",
          "blockHash": "0x3b6e10896dbff38b659e209095bdb62d6764c06ec7e76320467294338730f60c",
          "blockNumber": "0x175a075",
          "transactionHash": "0xce97af7d8a6c02416faee390ae627a10b936b3db15320d3531c8bb146c3847f0",
          "transactionIndex": "0x0",
          "logIndex": "0x1",
          "removed": false
        },
        {
          "address": "0xc02aaa39b223fe8d0a0e5c4f27ead9083c756cc2",
          "topics": [
            "0xddf252ad1be2c89b69c2b068fc378daa952ba7f163c4a11628f55a4df523b3ef",
            "0x000000000000000000000000dc7a67547addb28b8334ae9c046426ca87b35227",
            "0x0000000000000000000000008ad599c3a0ff1de082011efddc58f1908eb6e6d8"
          ],
          "data": "0x0000000000000000000000000000000000000000000000008ac7230489e80000",
          "blockHash": "0x3b6e10896dbff38b659e209095bdb62d6764c06ec7e76320467294338730f60c",
          "blockNumber": "0x175a075",
          "transactionHash": "0xce97af7d8a6c02416faee390ae627a10b936b3db15320d3531c8bb146c3847f0",
          "transactionIndex": "0x0",
          "logIndex": "0x2",
          "removed": false
        },
        {
          "address": "0x8ad599c3a0ff1de082011efddc58f1908eb6e6d8",
          "topics": [
            "0xc42079f94a6350d7e6235f29174924f928cc2ac818eb64fed8004e115fbcca67",
            "0x000000000000000000000000e592427a0aece92de3edee1f18e0157c05861564",
            "0x0000000000000000000000000571235134dc15a00f02916987c2c16b5fc52e2a"
          ],
          "data": "0xfffffffffffffffffffffffffffffffffffffffffffffffffffffffb8291cd250000000000000000000000000000000000000000000000008ac7230489e8000000000000000000000000000000000000000058d759fb2da7b4def455dc19b0610000000000000000000000000000000000000000000000000c36d01973fc71a70000000000000000000000000000000000000000000000000000000000030fca",
          "blockHash": "0x3b6e10896dbff38b659e209095bdb62d6764c06ec7e76320467294338730f60c",
          "blockNumber": "0x175a075",
          "transactionHash": "0xce97af7d8a6c02416faee390ae627a10b936b3db15320d3531c8bb146c3847f0",
          "transactionIndex": "0x0",
          "logIndex": "0x3",
          "removed": false
        },
        {
          "address": "0xdc7a67547addb28b8334ae9c046426ca87b35227",
          "topics": [
            "0xc260238793a788b5ac8b291f2e3da0d9a04e385576d01d2ed68c319ed174c0ca",
            "0x0000000000000000000000000000000000000000000000000000000000000000",
            "0x000000000000000000000000c02aaa39b223fe8d0a0e5c4f27ead9083c756cc2",
            "0x000000000000000000000000a0b86991c6218b36c1d19d4a2e9eb0ce3606eb48"
          ],
          "data": "0x00000000000000000000000000000000000000000000000000000000000000000000000000000000000000000000000000000000000000008ac7230489e80000000000000000000000000000000000000000000000000000000000047d6e32db0000000000000000000000000571235134dc15a00f02916987c2c16b5fc52e2a",
          "blockHash": "0x3b6e10896dbff38b659e209095bdb62d6764c06ec7e76320467294338730f60c",
          "blockNumber": "0x175a075",
          "transactionHash": "0xce97af7d8a6c02416faee390ae627a10b936b3db15320d3531c8bb146c3847f0",
          "transactionIndex": "0x0",
          "logIndex": "0x4",
          "removed": false
        },
        {
          "address": "0xdc7a67547addb28b8334ae9c046426ca87b35227",
          "topics": [
            "0x468f9fcb93c235c4a355ece29880da8a8940637230afaedf6c8504f14aa89616",
            "0x0000000000000000000000000000000000000000000000000000000000000002",
            "0x0000000000000000000000000571235134dc15a00f02916987c2c16b5fc52e2a",
            "0x0000000000000000000000000571235134dc15a00f02916987c2c16b5fc52e2a"
          ],
          "data": "0x",
          "blockHash": "0x3b6e10896dbff38b659e209095bdb62d6764c06ec7e76320467294338730f60c",
          "blockNumber": "0x175a075",
          "transactionHash": "0xce97af7d8a6c02416faee390ae627a10b936b3db15320d3531c8bb146c3847f0",
          "transactionIndex": "0x0",
          "logIndex": "0x5",
          "removed": false
        }
      ],
      "logsBloom": "0x04000002400000000000000000000010000000000000000000001000000800181000000000000000000002000000000002000000080020000000000004200000000000000000000808000008000000800000000000000000000000000000000000800020020000000000100000000800000000000000000000000010000800000000000000000000000000402000000600000000010000000800000000000000020200000000204000000100800000000000000000000000000000000000000000000002020000000000000000080000000000000004000000000000000020000010200000000000000000008000000004010000008400000000000000000200",
      "type": "0x2",
      "transactionHash": "0xce97af7d8a6c02416faee390ae627a10b936b3db15320d3531c8bb146c3847f0",
      "transactionIndex": "0x0",
      "blockHash": "0x3b6e10896dbff38b659e209095bdb62d6764c06ec7e76320467294338730f60c",
      "blockNumber": "0x175a075",
      "gasUsed": "0x24d05",
      "effectiveGasPrice": "0x41f0ab",
      "blobGasUsed": "0x0",
      "from": "0x0571235134dc15a00f02916987c2c16b5fc52e2a",
      "to": "0xdc7a67547addb28b8334ae9c046426ca87b35227",
      "contractAddress": null
    }
  ],
  "libraries": [],
  "pending": [],
  "returns": {},
  "timestamp": 1771853055,
  "chain": 1,
  "commit": "c0695e3"
}