{
  "transactions": [
    {
      "hash": "0xdfff47277a23d516b4cc76a74642510ddd8726ce0e675443f01980ae32d5c45f",
      "transactionType": "CALL",
      "contractName": null,
      "contractAddress": "0xc02aaa39b223fe8d0a0e5c4f27ead9083c756cc2",
      "function": "deposit()",
      "arguments": [],
      "transaction": {
        "from": "0x0571235134dc15a00f02916987c2c16b5fc52e2a",
        "to": "0xc02aaa39b223fe8d0a0e5c4f27ead9083c756cc2",
        "gas": "0x9f9b",
        "value": "0x8ac7230489e80000",
        "input": "0xd0e30db0",
        "nonce": "0x17",
        "chainId": "0x1"
      },
      "additionalContracts": [],
      "isFixedGasLimit": false
    },
    {
      "hash": "0x7364ef158ede7323b0afcf5488a08a21dbff6f9c31a38ee0a49ff34b8dda23be",
      "transactionType": "CALL",
      "contractName": null,
      "contractAddress": "0xc02aaa39b223fe8d0a0e5c4f27ead9083c756cc2",
      "function": "transfer(address,uint256)",
      "arguments": [
        "0xdc7a67547ADDB28B8334ae9C046426Ca87B35227",
        "10000000000000000000"
      ],
      "transaction": {
        "from": "0x0571235134dc15a00f02916987c2c16b5fc52e2a",
        "to": "0xc02aaa39b223fe8d0a0e5c4f27ead9083c756cc2",
        "gas": "0xba1b",
        "value": "0x0",
        "input": "0xa9059cbb000000000000000000000000dc7a67547addb28b8334ae9c046426ca87b352270000000000000000000000000000000000000000000000008ac7230489e80000",
        "nonce": "0x18",
        "chainId": "0x1"
      },
      "additionalContracts": [],
      "isFixedGasLimit": false
    },
    {
      "hash": "0x95d6cb203739771638dcf718cc85485e1e639103a132c45ba030061e53bf9a61",
      "transactionType": "CALL",
      "contractName": null,
      "contractAddress": "0xdc7a67547addb28b8334ae9c046426ca87b35227",
      "function": "execute(uint8,(uint8,address,address,uint256,uint256,uint24,uint256,address,bytes)[])",
      "arguments": [
        "2",
        "[(0, 0xC02aaA39b223FE8D0A0e5C4F27eAD9083C756Cc2, 0xA0b86991c6218b36c1d19D4a2e9Eb0cE3606eB48, 10000000000000000000, 0, 3000, 0, 0x0571235134DC15a00f02916987C2c16b5fC52E2A, 0x)]"
      ],
      "transaction": {
        "from": "0x0571235134dc15a00f02916987c2c16b5fc52e2a",
        "to": "0xdc7a67547addb28b8334ae9c046426ca87b35227",
        "gas": "0x33bdf",
        "value": "0x0",
        "input": "0x7b0e612000000000000000000000000000000000000000000000000000000000000000020000000000000000000000000000000000000000000000000000000000000040000000000000000000000000000000000000000000000000000000000000000100000000000000000000000000000000000000000000000000000000000000200000000000000000000000000000000000000000000000000000000000000000000000000000000000000000c02aaa39b223fe8d0a0e5c4f27ead9083c756cc2000000000000000000000000a0b86991c6218b36c1d19d4a2e9eb0ce3606eb480000000000000000000000000000000000000000000000008ac7230489e8000000000000000000000000000000000000000000000000000000000000000000000000000000000000000000000000000000000000000000000000000000000bb800000000000000000000000000000000000000000000000000000000000000000000000000000000000000000571235134dc15a00f02916987c2c16b5fc52e2a00000000000000000000000000000000000000000000000000000000000001200000000000000000000000000000000000000000000000000000000000000000",
        "nonce": "0x19",
        "chainId": "0x1"
      },
      "additionalContracts": [],
      "isFixedGasLimit": false
    }
  ],
  "receipts": [
    {
      "status": "0x1",
      "cumulativeGasUsed": "0x6d22",
      "logs": [
        {
          "address": "0xc02aaa39b223fe8d0a0e5c4f27ead9083c756cc2",
          "topics": [
            "0xe1fffcc4923d04b559f4d29a8bfc6cda04eb5b0d3c460751c2402c5c5cc9109c",
            "0x0000000000000000000000000571235134dc15a00f02916987c2c16b5fc52e2a"
          ],
          "data": "0x0000000000000000000000000000000000000000000000008ac7230489e80000",
          "blockHash": "0x1c22710ab1d6cfde4e51eebace15c059b6beefb1612f0305f1695f4ae2d6937a",
          "blockNumber": "0x175a070",
          "transactionHash": "0xdfff47277a23d516b4cc76a74642510ddd8726ce0e675443f01980ae32d5c45f",
          "transactionIndex": "0x0",
          "logIndex": "0x0",
          "removed": false
        }
      ],
      "logsBloom": "0x00000000000000000000000000000000000000000000000000000000000000000000000000000000000000000000000002000000080000000000000000000000000000000000000000000000000000000000000000000000000000008000000000000020000000000000000000000000000000000000000000000000000000000000000000000000000000000000000000000001000000000000000000000000000000000000004000000000000000000000000000000000000000000000000000000000000000000000000000000000000000000000000000000000000000000000200000000000000000000000000000000000000400400000000000000000",
      "type": "0x2",
      "transactionHash": "0xdfff47277a23d516b4cc76a74642510ddd8726ce0e675443f01980ae32d5c45f",
      "transactionIndex": "0x0",
      "blockHash": "0x1c22710ab1d6cfde4e51eebace15c059b6beefb1612f0305f1695f4ae2d6937a",
      "blockNumber": "0x175a070",
      "gasUsed": "0x6d22",
      "effectiveGasPrice": "0x41f0ab",
      "blobGasUsed": "0x0",
      "from": "0x0571235134dc15a00f02916987c2c16b5fc52e2a",
      "to": "0xc02aaa39b223fe8d0a0e5c4f27ead9083c756cc2",
      "contractAddress": null
    },
    {
      "status": "0x1",
      "cumulativeGasUsed": "0x86be",
      "logs": [
        {
          "address": "0xc02aaa39b223fe8d0a0e5c4f27ead9083c756cc2",
          "topics": [
            "0xddf252ad1be2c89b69c2b068fc378daa952ba7f163c4a11628f55a4df523b3ef",
            "0x0000000000000000000000000571235134dc15a00f02916987c2c16b5fc52e2a",
            "0x000000000000000000000000dc7a67547addb28b8334ae9c046426ca87b35227"
          ],
          "data": "0x0000000000000000000000000000000000000000000000008ac7230489e80000",
          "blockHash": "0xabc24a6603e2fcda7589932b4c7992293d0d1925714ce67c99a0061b18505a19",
          "blockNumber": "0x175a072",
          "transactionHash": "0x7364ef158ede7323b0afcf5488a08a21dbff6f9c31a38ee0a49ff34b8dda23be",
          "transactionIndex": "0x0",
          "logIndex": "0x0",
          "removed": false
        }
      ],
      "logsBloom": "0x00000000000000000000000000000000000000000000000000000000000000100000000000000000000000000000000002000000080000000000000000000000000000000000000000000008000000000000000000000000000000000000000000000020000000000000000000000000000000000000000000000010000000000000000000000000000000000000000000000000000000000800000000000000000000000000004000000000000000000000000000000000000000000000000000000002000000000000000000000000000000000000000000000000000000000000200000000000000000000000000000000000000400000000000000000200",
      "type": "0x2",
      "transactionHash": "0x7364ef158ede7323b0afcf5488a08a21dbff6f9c31a38ee0a49ff34b8dda23be",
      "transactionIndex": "0x0",
      "blockHash": "0xabc24a6603e2fcda7589932b4c7992293d0d1925714ce67c99a0061b18505a19",
      "blockNumber": "0x175a072",
      "gasUsed": "0x86be",
      "effectiveGasPrice": "0x41f0ab",
      "blobGasUsed": "0x0",
      "from": "0x0571235134dc15a00f02916987c2c16b5fc52e2a",
      "to": "0xc02aaa39b223fe8d0a0e5c4f27ead9083c756cc2",
      "contractAddress": null
    }
  ],
  "libraries": [],
  "pending": [],
  "returns": {},
  "timestamp": 1771852762,
  "chain": 1,
  "commit": "c0695e3"
}