{
  "transactions": [
    {
      "hash": "0x3051b39c576907924c2dacfb24aba167d8665968360ca5c7362d2ba17a78d2eb",
      "transactionType": "CALL",
      "contractName": null,
      "contractAddress": "0x82af49447d8a07e3bd95bd0d56f35241523fbab1",
      "function": "deposit()",
      "arguments": [],
      "transaction": {
        "from": "0x0571235134dc15a00f02916987c2c16b5fc52e2a",
        "to": "0x82af49447d8a07e3bd95bd0d56f35241523fbab1",
        "gas": "0xe983",
        "value": "0x8ac7230489e80000",
        "input": "0xd0e30db0",
        "nonce": "0x29",
        "chainId": "0x5f4ff11"
      },
      "additionalContracts": [],
      "isFixedGasLimit": false
    },
    {
      "hash": "0xb0efaf2550ebf6b7d6193f657c321b7151f38057f27820da1d966d096a143445",
      "transactionType": "CALL",
      "contractName": null,
      "contractAddress": "0x82af49447d8a07e3bd95bd0d56f35241523fbab1",
      "function": "transfer(address,uint256)",
      "arguments": [
        "0xC1D9D726BBE5af20bd844c6F6ECf4BCa52E985e9",
        "10000000000000000000"
      ],
      "transaction": {
        "from": "0x0571235134dc15a00f02916987c2c16b5fc52e2a",
        "to": "0x82af49447d8a07e3bd95bd0d56f35241523fbab1",
        "gas": "0x13e81",
        "value": "0x0",
        "input": "0xa9059cbb000000000000000000000000c1d9d726bbe5af20bd844c6f6ecf4bca52e985e90000000000000000000000000000000000000000000000008ac7230489e80000",
        "nonce": "0x2a",
        "chainId": "0x5f4ff11"
      },
      "additionalContracts": [],
      "isFixedGasLimit": false
    },
    {
      "hash": "0x3ac978e50f4dfd2b758c5c34818e26eb60d2f0abc4ac9902769253fa3599f136",
      "transactionType": "CALL",
      "contractName": null,
      "contractAddress": "0xc1d9d726bbe5af20bd844c6f6ecf4bca52e985e9",
      "function": "createLongOrder((address,uint256,address,uint256,((address,address,address,address,address,address,address[]),(uint256,uint256,uint256,uint256,uint256,uint256,uint256,uint256),uint8,uint8,bool,bool,bool,bytes32,bytes32[])))",
      "arguments": [
        "(0x31eF83a530Fde1B38EE9A18093A333D8Bbbc40D5, 1000000000000000, 0x82aF49447D8a07e3bd95BD0d56f35241523fBab1, 10000000000000000000, ((0x0571235134DC15a00f02916987C2c16b5fC52E2A, 0x0000000000000000000000000000000000000000, 0x0000000000000000000000000000000000000000, 0x0000000000000000000000000000000000000000, 0x70d95587d40A2caf56bd97485aB3Eec10Bee6336, 0x82aF49447D8a07e3bd95BD0d56f35241523fBab1, []), (1000000000000000000000000000000, 0, 4000000000000000000000000000000, 4000000000000000000000000000000, 1000000000000000, 0, 0, 0), 2, 0, true, false, false, 0x0000000000000000000000000000000000000000000000000000000000000000, []))"
      ],
      "transaction": {
        "from": "0x0571235134dc15a00f02916987c2c16b5fc52e2a",
        "to": "0xc1d9d726bbe5af20bd844c6f6ecf4bca52e985e9",
        "gas": "0x143b22",
        "value": "0x38d7ea4c68000",
        "input": "0x85eeaf55000000000000000000000000000000000000000000000000000000000000002000000000000000000000000031ef83a530fde1b38ee9a18093a333d8bbbc40d500000000000000000000000000000000000000000000000000038d7ea4c6800000000000000000000000000082af49447d8a07e3bd95bd0d56f35241523fbab10000000000000000000000000000000000000000000000008ac7230489e8000000000000000000000000000000000000000000000000000000000000000000a00000000000000000000000000000000000000000000000000000000000000200000000000000000000000000000000000000000c9f2c9cd04674edea40000000000000000000000000000000000000000000000000000000000000000000000000000000000000000000000000000000000000327cb2734119d3b7a90000000000000000000000000000000000000000000000327cb2734119d3b7a90000000000000000000000000000000000000000000000000000000000038d7ea4c6800000000000000000000000000000000000000000000000000000000000000000000000000000000000000000000000000000000000000000000000000000000000000000000000000000000000000000000000000000000000000000000000000000000000000000000000000000000000000000000000000000000000000000020000000000000000000000000000000000000000000000000000000000000000000000000000000000000000000000000000000000000000000000000000000100000000000000000000000000000000000000000000000000000000000000000000000000000000000000000000000000000000000000000000000000000000000000000000000000000000000000000000000000000000000000000000000000000000000000000000000000000000000000000000000000000000000003000000000000000000000000000571235134dc15a00f02916987c2c16b5fc52e2a00000000000000000000000000000000000000000000000000000000000000000000000000000000000000000000000000000000000000000000000000000000000000000000000000000000000000000000000000000000000000000000000000000000000000000000000070d95587d40a2caf56bd97485ab3eec10bee633600000000000000000000000082af49447d8a07e3bd95bd0d56f35241523fbab100000000000000000000000000000000000000000000000000000000000000e000000000000000000000000000000000000000000000000000000000000000000000000000000000000000000000000000000000000000000000000000000000",
        "nonce": "0x2b",
        "chainId": "0x5f4ff11"
      },
      "additionalContracts": [],
      "isFixedGasLimit": false
    }
  ],
  "receipts": [
    {
      "status": "0x1",
      "cumulativeGasUsed": "0xa041",
      "logs": [
        {
          "address": "0x82af49447d8a07e3bd95bd0d56f35241523fbab1",
          "topics": [
            "0xddf252ad1be2c89b69c2b068fc378daa952ba7f163c4a11628f55a4df523b3ef",
            "0x0000000000000000000000000000000000000000000000000000000000000000",
            "0x0000000000000000000000000571235134dc15a00f02916987c2c16b5fc52e2a"
          ],
          "data": "0x0000000000000000000000000000000000000000000000008ac7230489e80000",
          "blockHash": "0xff882673a17116534088b6a2d2d0fc505a1ca51b85b276463b198202701c717c",
          "blockNumber": "0x19ffb686",
          "transactionHash": "0x3051b39c576907924c2dacfb24aba167d8665968360ca5c7362d2ba17a78d2eb",
          "transactionIndex": "0x0",
          "logIndex": "0x0",
          "removed": false
        }
      ],
      "logsBloom": "0x00000000000000000000000000000000000000000000000000000000000000000000000000000000000000000000000000004000000000000000000000000000000000010000000000000008000000000000000000000000000000000000000000000020020000000000000400000800000000000000000000000010000000000000000000000000000000000000000000000000000000000000000000000000000000000000004000000000000000000000000000000000000000000000000000000002000000000000000000000000000000000000000000000000000020000000000000000000000000000000000000000000000400000000000000000000",
      "type": "0x2",
      "transactionHash": "0x3051b39c576907924c2dacfb24aba167d8665968360ca5c7362d2ba17a78d2eb",
      "transactionIndex": "0x0",
      "blockHash": "0xff882673a17116534088b6a2d2d0fc505a1ca51b85b276463b198202701c717c",
      "blockNumber": "0x19ffb686",
      "gasUsed": "0xa041",
      "effectiveGasPrice": "0x133ec21",
      "blobGasUsed": "0x0",
      "from": "0x0571235134dc15a00f02916987c2c16b5fc52e2a",
      "to": "0x82af49447d8a07e3bd95bd0d56f35241523fbab1",
      "contractAddress": null
    },
    {
      "status": "0x1",
      "cumulativeGasUsed": "0xe774",
      "logs": [
        {
          "address": "0x82af49447d8a07e3bd95bd0d56f35241523fbab1",
          "topics": [
            "0xddf252ad1be2c89b69c2b068fc378daa952ba7f163c4a11628f55a4df523b3ef",
            "0x0000000000000000000000000571235134dc15a00f02916987c2c16b5fc52e2a",
            "0x000000000000000000000000c1d9d726bbe5af20bd844c6f6ecf4bca52e985e9"
          ],
          "data": "0x0000000000000000000000000000000000000000000000008ac7230489e80000",
          "blockHash": "0x464238eb7d88a8215cf398ec5d248820132f1829bdd64c723ee44cadf418c80d",
          "blockNumber": "0x19ffb687",
          "transactionHash": "0xb0efaf2550ebf6b7d6193f657c321b7151f38057f27820da1d966d096a143445",
          "transactionIndex": "0x0",
          "logIndex": "0x0",
          "removed": false
        }
      ],
      "logsBloom": "0x00000000000000000000000000000000000000000000000000000000000000000000000000000000000000000000000000004000000080000000000000000000000000010000000000000008001000000000000000000000000000000000000000000020000000000000000400000000000000000000000000000010000000000000000000000000000000000000000000000000000000000000000000000000000000000000004000000000000000000000000000000000000000000000000000000002000000000000000000000000000000000000000000000000000000000000000000000000000000000000080000000000000400000000000000000000",
      "type": "0x2",
      "transactionHash": "0xb0efaf2550ebf6b7d6193f657c321b7151f38057f27820da1d966d096a143445",
      "transactionIndex": "0x0",
      "blockHash": "0x464238eb7d88a8215cf398ec5d248820132f1829bdd64c723ee44cadf418c80d",
      "blockNumber": "0x19ffb687",
      "gasUsed": "0xe774",
      "effectiveGasPrice": "0x133ec21",
      "blobGasUsed": "0x0",
      "from": "0x0571235134dc15a00f02916987c2c16b5fc52e2a",
      "to": "0x82af49447d8a07e3bd95bd0d56f35241523fbab1",
      "contractAddress": null
    },
    {
      "status": "0x1",
      "cumulativeGasUsed": "0xdd74f",
      "logs": [
        {
          "address": "0x82af49447d8a07e3bd95bd0d56f35241523fbab1",
          "topics": [
            "0xddf252ad1be2c89b69c2b068fc378daa952ba7f163c4a11628f55a4df523b3ef",
            "0x0000000000000000000000000000000000000000000000000000000000000000",
            "0x0000000000000000000000001c3fa76e6e1088bce750f23a5bfcffa1efef6a41"
          ],
          "data": "0x00000000000000000000000000000000000000000000000000038d7ea4c68000",
          "blockHash": "0x8b9588371456b437e684d25243a2d49939f231f6fc5945f95e791f20f3a6b92b",
          "blockNumber": "0x19ffb688",
          "transactionHash": "0x3ac978e50f4dfd2b758c5c34818e26eb60d2f0abc4ac9902769253fa3599f136",
          "transactionIndex": "0x0",
          "logIndex": "0x0",
          "removed": false
        },
        {
          "address": "0x82af49447d8a07e3bd95bd0d56f35241523fbab1",
          "topics": [
            "0xddf252ad1be2c89b69c2b068fc378daa952ba7f163c4a11628f55a4df523b3ef",
            "0x0000000000000000000000001c3fa76e6e1088bce750f23a5bfcffa1efef6a41",
            "0x00000000000000000000000031ef83a530fde1b38ee9a18093a333d8bbbc40d5"
          ],
          "data": "0x00000000000000000000000000000000000000000000000000038d7ea4c68000",
          "blockHash": "0x8b9588371456b437e684d25243a2d49939f231f6fc5945f95e791f20f3a6b92b",
          "blockNumber": "0x19ffb688",
          "transactionHash": "0x3ac978e50f4dfd2b758c5c34818e26eb60d2f0abc4ac9902769253fa3599f136",
          "transactionIndex": "0x0",
          "logIndex": "0x1",
          "removed": false
        },
        {
          "address": "0x82af49447d8a07e3bd95bd0d56f35241523fbab1",
          "topics": [
            "0x8c5be1e5ebec7d5bd14f71427d1e84f3dd0314c0f7b2291e5b200ac8c7c3b925",
            "0x000000000000000000000000c1d9d726bbe5af20bd844c6f6ecf4bca52e985e9",
            "0x0000000000000000000000007452c558d45f8afc8c83dae62c3f8a5be19c71f6"
          ],
          "data": "0x0000000000000000000000000000000000000000000000008ac7230489e80000",
          "blockHash": "0x8b9588371456b437e684d25243a2d49939f231f6fc5945f95e791f20f3a6b92b",
          "blockNumber": "0x19ffb688",
          "transactionHash": "0x3ac978e50f4dfd2b758c5c34818e26eb60d2f0abc4ac9902769253fa3599f136",
          "transactionIndex": "0x0",
          "logIndex": "0x2",
          "removed": false
        },
        {
          "address": "0x82af49447d8a07e3bd95bd0d56f35241523fbab1",
          "topics": [
            "0xddf252ad1be2c89b69c2b068fc378daa952ba7f163c4a11628f55a4df523b3ef",
            "0x000000000000000000000000c1d9d726bbe5af20bd844c6f6ecf4bca52e985e9",
            "0x00000000000000000000000031ef83a530fde1b38ee9a18093a333d8bbbc40d5"
          ],
          "data": "0x0000000000000000000000000000000000000000000000008ac7230489e80000",
          "blockHash": "0x8b9588371456b437e684d25243a2d49939f231f6fc5945f95e791f20f3a6b92b",
          "blockNumber": "0x19ffb688",
          "transactionHash": "0x3ac978e50f4dfd2b758c5c34818e26eb60d2f0abc4ac9902769253fa3599f136",
          "transactionIndex": "0x0",
          "logIndex": "0x3",
          "removed": false
        },
        {
          "address": "0x82af49447d8a07e3bd95bd0d56f35241523fbab1",
          "topics": [
            "0x8c5be1e5ebec7d5bd14f71427d1e84f3dd0314c0f7b2291e5b200ac8c7c3b925",
            "0x000000000000000000000000c1d9d726bbe5af20bd844c6f6ecf4bca52e985e9",
            "0x0000000000000000000000007452c558d45f8afc8c83dae62c3f8a5be19c71f6"
          ],
          "data": "0x0000000000000000000000000000000000000000000000000000000000000000",
          "blockHash": "0x8b9588371456b437e684d25243a2d49939f231f6fc5945f95e791f20f3a6b92b",
          "blockNumber": "0x19ffb688",
          "transactionHash": "0x3ac978e50f4dfd2b758c5c34818e26eb60d2f0abc4ac9902769253fa3599f136",
          "transactionIndex": "0x0",
          "logIndex": "0x4",
          "removed": false
        },
        {
          "address": "0xc8ee91a54287db53897056e12d9819156d3822fb",
          "topics": [
            "0x468a25a7ba624ceea6e540ad6f49171b52495b648417ae91bca21676d8a24dc5",
            "0xa7427759bfd3b941f14e687e129519da3c9b0046c5b9aaa290bb1dede63753b3",
            "0x642da475c810dcc542354c1e43e8af652c5beae28720e207e75ee73d478b3bdc",
            "0x000000000000000000000000c1d9d726bbe5af20bd844c6f6ecf4bca52e985e9"
          ],
          "data": "0x00000000000000000000000063492b775e30a9e6b4b4761c12605eb9d071d5e9000000000000000000000000000000000000000000000000000000000000006000000000000000000000000000000000000000000000000000000000000000a0000000000000000000000000000000000000000000000000000000000000000c4f7264657243726561746564000000000000000000000000000000000000000000000000000000000000000000000000000000000000000000000000000000e000000000000000000000000000000000000000000000000000000000000006800000000000000000000000000000000000000000000000000000000000000e800000000000000000000000000000000000000000000000000000000000000f000000000000000000000000000000000000000000000000000000000000001160000000000000000000000000000000000000000000000000000000000000134000000000000000000000000000000000000000000000000000000000000013c0000000000000000000000000000000000000000000000000000000000000004000000000000000000000000000000000000000000000000000000000000004c0000000000000000000000000000000000000000000000000000000000000000700000000000000000000000000000000000000000000000000000000000000e0000000000000000000000000000000000000000000000000000000000000016000000000000000000000000000000000000000000000000000000000000001e0000000000000000000000000000000000000000000000000000000000000026000000000000000000000000000000000000000000000000000000000000002e0000000000000000000000000000000000000000000000000000000000000036000000000000000000000000000000000000000000000000000000000000003e00000000000000000000000000000000000000000000000000000000000000040000000000000000000000000c1d9d726bbe5af20bd844c6f6ecf4bca52e985e900000000000000000000000000000000000000000000000000000000000000076163636f756e740000000000000000000000000000000000000000000000000000000000000000000000000000000000000000000000000000000000000000400000000000000000000000000571235134dc15a00f02916987c2c16b5fc52e2a0000000000000000000000000000000000000000000000000000000000000008726563656976657200000000000000000000000000000000000000000000000000000000000000000000000000000000000000000000000000000000000000400000000000000000000000000000000000000000000000000000000000000000000000000000000000000000000000000000000000000000000000000000001063616c6c6261636b436f6e74726163740000000000000000000000000000000000000000000000000000000000000000000000000000000000000000000000400000000000000000000000000000000000000000000000000000000000000000000000000000000000000000000000000000000000000000000000000000000d7569466565526563656976657200000000000000000000000000000000000000000000000000000000000000000000000000000000000000000000000000004000000000000000000000000070d95587d40a2caf56bd97485ab3eec10bee633600000000000000000000000000000000000000000000000000000000000000066d61726b65740000000000000000000000000000000000000000000000000000000000000000000000000000000000000000000000000000000000000000004000000000000000000000000082af49447d8a07e3bd95bd0d56f35241523fbab10000000000000000000000000000000000000000000000000000000000000016696e697469616c436f6c6c61746572616c546f6b656e0000000000000000000000000000000000000000000000000000000000000000000000000000000000400000000000000000000000000000000000000000000000000000000000000000000000000000000000000000000000000000000000000000000000000000001463616e63656c6c6174696f6e52656365697665720000000000000000000000000000000000000000000000000000000000000000000000000000000000000001000000000000000000000000000000000000000000000000000000000000002000000000000000000000000000000000000000000000000000000000000000400000000000000000000000000000000000000000000000000000000000000080000000000000000000000000000000000000000000000000000000000000000873776170506174680000000000000000000000000000000000000000000000000000000000000000000000000000000000000000000000000000000000000000000000000000000000000000000000000000000000000000000000000000004000000000000000000000000000000000000000000000000000000000000007e0000000000000000000000000000000000000000000000000000000000000000c0000000000000000000000000000000000000000000000000000000000000180000000000000000000000000000000000000000000000000000000000000020000000000000000000000000000000000000000000000000000000000000002800000000000000000000000000000000000000000000000000000000000000300000000000000000000000000000000000000000000000000000000000000038000000000000000000000000000000000000000000000000000000000000004000000000000000000000000000000000000000000000000000000000000000480000000000000000000000000000000000000000000000000000000000000050000000000000000000000000000000000000000000000000000000000000005800000000000000000000000000000000000000000000000000000000000000600000000000000000000000000000000000000000000000000000000000000068000000000000000000000000000000000000000000000000000000000000007000000000000000000000000000000000000000000000000000000000000000040000000000000000000000000000000000000000000000000000000000000000200000000000000000000000000000000000000000000000000000000000000096f726465725479706500000000000000000000000000000000000000000000000000000000000000000000000000000000000000000000000000000000000040000000000000000000000000000000000000000000000000000000000000000000000000000000000000000000000000000000000000000000000000000000186465637265617365506f736974696f6e537761705479706500000000000000000000000000000000000000000000000000000000000000000000000000000040000000000000000000000000000000000000000c9f2c9cd04674edea40000000000000000000000000000000000000000000000000000000000000000000000c73697a6544656c7461557364000000000000000000000000000000000000000000000000000000000000000000000000000000000000000000000000000000400000000000000000000000000000000000000000000000008ac7230489e80000000000000000000000000000000000000000000000000000000000000000001c696e697469616c436f6c6c61746572616c44656c7461416d6f756e7400000000000000000000000000000000000000000000000000000000000000000000004000000000000000000000000000000000000000327cb2734119d3b7a900000000000000000000000000000000000000000000000000000000000000000000000c7472696767657250726963650000000000000000000000000000000000000000000000000000000000000000000000000000000000000000000000000000004000000000000000000000000000000000000000327cb2734119d3b7a900000000000000000000000000000000000000000000000000000000000000000000000f61636365707461626c6550726963650000000000000000000000000000000000000000000000000000000000000000000000000000000000000000000000004000000000000000000000000000000000000000000000000000038d7ea4c68000000000000000000000000000000000000000000000000000000000000000000c657865637574696f6e466565000000000000000000000000000000000000000000000000000000000000000000000000000000000000000000000000000000400000000000000000000000000000000000000000000000000000000000000000000000000000000000000000000000000000000000000000000000000000001063616c6c6261636b4761734c696d69740000000000000000000000000000000000000000000000000000000000000000000000000000000000000000000000400000000000000000000000000000000000000000000000000000000000000000000000000000000000000000000000000000000000000000000000000000000f6d696e4f7574707574416d6f756e74000000000000000000000000000000000000000000000000000000000000000000000000000000000000000000000000400000000000000000000000000000000000000000000000000000000069a0ae14000000000000000000000000000000000000000000000000000000000000000d75706461746564417454696d650000000000000000000000000000000000000000000000000000000000000000000000000000000000000000000000000000400000000000000000000000000000000000000000000000000000000000000000000000000000000000000000000000000000000000000000000000000000000d76616c696446726f6d54696d650000000000000000000000000000000000000000000000000000000000000000000000000000000000000000000000000000400000000000000000000000000000000000000000000000000000000000000000000000000000000000000000000000000000000000000000000000000000000a737263436861696e49640000000000000000000000000000000000000000000000000000000000000000000000000000000000000000000000000000000000000000000000000000000000000000000000000000000000000000000000000040000000000000000000000000000000000000000000000000000000000000006000000000000000000000000000000000000000000000000000000000000000000000000000000000000000000000000000000000000000000000000000000000000000000000000000000000000000000000000000000000000000000000004000000000000000000000000000000000000000000000000000000000000002400000000000000000000000000000000000000000000000000000000000000003000000000000000000000000000000000000000000000000000000000000006000000000000000000000000000000000000000000000000000000000000000e0000000000000000000000000000000000000000000000000000000000000016000000000000000000000000000000000000000000000000000000000000000400000000000000000000000000000000000000000000000000000000000000001000000000000000000000000000000000000000000000000000000000000000669734c6f6e67000000000000000000000000000000000000000000000000000000000000000000000000000000000000000000000000000000000000000000400000000000000000000000000000000000000000000000000000000000000000000000000000000000000000000000000000000000000000000000000000001773686f756c64556e777261704e6174697665546f6b656e00000000000000000000000000000000000000000000000000000000000000000000000000000000400000000000000000000000000000000000000000000000000000000000000000000000000000000000000000000000000000000000000000000000000000000a6175746f43616e63656c00000000000000000000000000000000000000000000000000000000000000000000000000000000000000000000000000000000000000000000000000000000000000000000000000000000000000000000000000400000000000000000000000000000000000000000000000000000000000000100000000000000000000000000000000000000000000000000000000000000000100000000000000000000000000000000000000000000000000000000000000200000000000000000000000000000000000000000000000000000000000000040642da475c810dcc542354c1e43e8af652c5beae28720e207e75ee73d478b3bdc00000000000000000000000000000000000000000000000000000000000000036b6579000000000000000000000000000000000000000000000000000000000000000000000000000000000000000000000000000000000000000000000000010000000000000000000000000000000000000000000000000000000000000020000000000000000000000000000000000000000000000000000000000000004000000000000000000000000000000000000000000000000000000000000000800000000000000000000000000000000000000000000000000000000000000008646174614c697374000000000000000000000000000000000000000000000000000000000000000000000000000000000000000000000000000000000000000000000000000000000000000000000000000000000000000000000000000000400000000000000000000000000000000000000000000000000000000000000060000000000000000000000000000000000000000000000000000000000000000000000000000000000000000000000000000000000000000000000000000000000000000000000000000000000000000000000000000000000000000000000040000000000000000000000000000000000000000000000000000000000000006000000000000000000000000000000000000000000000000000000000000000000000000000000000000000000000000000000000000000000000000000000000",
          "blockHash": "0x8b9588371456b437e684d25243a2d49939f231f6fc5945f95e791f20f3a6b92b",
          "blockNumber": "0x19ffb688",
          "transactionHash": "0x3ac978e50f4dfd2b758c5c34818e26eb60d2f0abc4ac9902769253fa3599f136",
          "transactionIndex": "0x0",
          "logIndex": "0x5",
          "removed": false
        },
        {
          "address": "0xc1d9d726bbe5af20bd844c6f6ecf4bca52e985e9",
          "topics": [
            "0x3f32b521b7496d2074765239e094aa3dd8d92a3bade84ef40d07dda0da018ce8",
            "0x0000000000000000000000000000000000000000000000000000000000000000"
          ],
          "data": "0x00000000000000000000000000000000000000000000000000038d7ea4c68000",
          "blockHash": "0x8b9588371456b437e684d25243a2d49939f231f6fc5945f95e791f20f3a6b92b",
          "blockNumber": "0x19ffb688",
          "transactionHash": "0x3ac978e50f4dfd2b758c5c34818e26eb60d2f0abc4ac9902769253fa3599f136",
          "transactionIndex": "0x0",
          "logIndex": "0x6",
          "removed": false
        }
      ],
      "logsBloom": "0x00000000000000100000000000000010000000000000000000000000000000000000000000000000000000000000000000004000000082000000020008200000000008010000000000000018001020000000000000000000000000000000000000000000020000000000000400002800000000040000000000000010000080000000000000000000000000200000000400000040000000000000100000000000020000000000000000000000000000000000000000000000000000000000000000000002000000000000000000000000000000000000000000004000000020040010004000000000040000000000880002004804000001000000002000000020",
      "type": "0x2",
      "transactionHash": "0x3ac978e50f4dfd2b758c5c34818e26eb60d2f0abc4ac9902769253fa3599f136",
      "transactionIndex": "0x0",
      "blockHash": "0x8b9588371456b437e684d25243a2d49939f231f6fc5945f95e791f20f3a6b92b",
      "blockNumber": "0x19ffb688",
      "gasUsed": "0xdd74f",
      "effectiveGasPrice": "0x133ec21",
      "blobGasUsed": "0x0",
      "from": "0x0571235134dc15a00f02916987c2c16b5fc52e2a",
      "to": "0xc1d9d726bbe5af20bd844c6f6ecf4bca52e985e9",
      "contractAddress": null
    }
  ],
  "libraries": [],
  "pending": [],
  "returns": {},
  "timestamp": 1772138006,
  "chain": 99942161,
  "commit": "477a307"
}