{
  "transactions": [
    {
      "hash": "0x0b78d75b8418b00f39de430fc9493bef0be3bcac4e7c2bb5954b6a9c98cf2085",
      "transactionType": "CALL",
      "contractName": null,
      "contractAddress": "0x82af49447d8a07e3bd95bd0d56f35241523fbab1",
      "function": "deposit()",
      "arguments": [],
      "transaction": {
        "from": "0x0571235134dc15a00f02916987c2c16b5fc52e2a",
        "to": "0x82af49447d8a07e3bd95bd0d56f35241523fbab1",
        "gas": "0xe983",
        "value": "0x8ac7230489e80000",
        "input": "0xd0e30db0",
        "nonce": "0x33",
        "chainId": "0x5f4ff11"
      },
      "additionalContracts": [],
      "isFixedGasLimit": false
    },
    {
      "hash": "0x41ca05a5f0cb3d094a601a65a0180220a9fbf4336ce5e0e78cc7665235cb9abd",
      "transactionType": "CALL",
      "contractName": null,
      "contractAddress": "0x82af49447d8a07e3bd95bd0d56f35241523fbab1",
      "function": "transfer(address,uint256)",
      "arguments": [
        "0x13D8bb2a02fe9e9eCAA8f1c1B357D0B04EA9dFb7",
        "10000000000000000000"
      ],
      "transaction": {
        "from": "0x0571235134dc15a00f02916987c2c16b5fc52e2a",
        "to": "0x82af49447d8a07e3bd95bd0d56f35241523fbab1",
        "gas": "0x13e81",
        "value": "0x0",
        "input": "0xa9059cbb00000000000000000000000013d8bb2a02fe9e9ecaa8f1c1b357d0b04ea9dfb70000000000000000000000000000000000000000000000008ac7230489e80000",
        "nonce": "0x34",
        "chainId": "0x5f4ff11"
      },
      "additionalContracts": [],
      "isFixedGasLimit": false
    },
    {
      "hash": "0x1303179e863927bfb55ed963343aa550d2877f391d47cee6c5bc9c43e2394a44",
      "transactionType": "CALL",
      "contractName": null,
      "contractAddress": "0x13d8bb2a02fe9e9ecaa8f1c1b357d0b04ea9dfb7",
      "function": "createLongOrder((address,uint256,address,uint256,((address,address,address,address,address,address,address[]),(uint256,uint256,uint256,uint256,uint256,uint256,uint256,uint256),uint8,uint8,bool,bool,bool,bytes32,bytes32[])))",
      "arguments": [
        "(0x31eF83a530Fde1B38EE9A18093A333D8Bbbc40D5, 3000000000000000, 0x82aF49447D8a07e3bd95BD0d56f35241523fBab1, 10000000000000000000, ((0x0571235134DC15a00f02916987C2c16b5fC52E2A, 0x0000000000000000000000000000000000000000, 0x0000000000000000000000000000000000000000, 0x0000000000000000000000000000000000000000, 0x70d95587d40A2caf56bd97485aB3Eec10Bee6336, 0x82aF49447D8a07e3bd95BD0d56f35241523fBab1, []), (1000000000000000000000000000000, 0, 4000000000000000000000000000000, 4000000000000000000000000000000, 3000000000000000, 0, 0, 0), 2, 0, true, false, false, 0x0000000000000000000000000000000000000000000000000000000000000000, []))"
      ],
      "transaction": {
        "from": "0x0571235134dc15a00f02916987c2c16b5fc52e2a",
        "to": "0x13d8bb2a02fe9e9ecaa8f1c1b357d0b04ea9dfb7",
        "gas": "0x143b22",
        "value": "0xaa87bee538000",
        "input": "0x85eeaf55000000000000000000000000000000000000000000000000000000000000002000000000000000000000000031ef83a530fde1b38ee9a18093a333d8bbbc40d5000000000000000000000000000000000000000000000000000aa87bee53800000000000000000000000000082af49447d8a07e3bd95bd0d56f35241523fbab10000000000000000000000000000000000000000000000008ac7230489e8000000000000000000000000000000000000000000000000000000000000000000a00000000000000000000000000000000000000000000000000000000000000200000000000000000000000000000000000000000c9f2c9cd04674edea40000000000000000000000000000000000000000000000000000000000000000000000000000000000000000000000000000000000000327cb2734119d3b7a90000000000000000000000000000000000000000000000327cb2734119d3b7a900000000000000000000000000000000000000000000000000000000000aa87bee53800000000000000000000000000000000000000000000000000000000000000000000000000000000000000000000000000000000000000000000000000000000000000000000000000000000000000000000000000000000000000000000000000000000000000000000000000000000000000000000000000000000000000000020000000000000000000000000000000000000000000000000000000000000000000000000000000000000000000000000000000000000000000000000000000100000000000000000000000000000000000000000000000000000000000000000000000000000000000000000000000000000000000000000000000000000000000000000000000000000000000000000000000000000000000000000000000000000000000000000000000000000000000000000000000000000000000003000000000000000000000000000571235134dc15a00f02916987c2c16b5fc52e2a00000000000000000000000000000000000000000000000000000000000000000000000000000000000000000000000000000000000000000000000000000000000000000000000000000000000000000000000000000000000000000000000000000000000000000000000070d95587d40a2caf56bd97485ab3eec10bee633600000000000000000000000082af49447d8a07e3bd95bd0d56f35241523fbab100000000000000000000000000000000000000000000000000000000000000e000000000000000000000000000000000000000000000000000000000000000000000000000000000000000000000000000000000000000000000000000000000",
        "nonce": "0x35",
        "chainId": "0x5f4ff11"
      },
      "additionalContracts": [],
      "isFixedGasLimit": false
    }
  ],
  "receipts": [
    {
      "status": "0x1",
      "cumulativeGasUsed": "0xa041",
      "logs": [
        {
          "address": "0x82af49447d8a07e3bd95bd0d56f35241523fbab1",
          "topics": [
            "0xddf252ad1be2c89b69c2b068fc378daa952ba7f163c4a11628f55a4df523b3ef",
            "0x0000000000000000000000000000000000000000000000000000000000000000",
            "0x0000000000000000000000000571235134dc15a00f02916987c2c16b5fc52e2a"
          ],
          "data": "0x0000000000000000000000000000000000000000000000008ac7230489e80000",
          "blockHash": "0x3a684449e3f43604b78e1059f593de23cea32dd879b4712c52667b1d50503065",
          "blockNumber": "0x19ffb690",
          "transactionHash": "0x0b78d75b8418b00f39de430fc9493bef0be3bcac4e7c2bb5954b6a9c98cf2085",
          "transactionIndex": "0x0",
          "logIndex": "0x0",
          "removed": false
        }
      ],
      "logsBloom": "0x00000000000000000000000000000000000000000000000000000000000000000000000000000000000000000000000000004000000000000000000000000000000000010000000000000008000000000000000000000000000000000000000000000020020000000000000400000800000000000000000000000010000000000000000000000000000000000000000000000000000000000000000000000000000000000000004000000000000000000000000000000000000000000000000000000002000000000000000000000000000000000000000000000000000020000000000000000000000000000000000000000000000400000000000000000000",
      "type": "0x2",
      "transactionHash": "0x0b78d75b8418b00f39de430fc9493bef0be3bcac4e7c2bb5954b6a9c98cf2085",
      "transactionIndex": "0x0",
      "blockHash": "0x3a684449e3f43604b78e1059f593de23cea32dd879b4712c52667b1d50503065",
      "blockNumber": "0x19ffb690",
      "gasUsed": "0xa041",
      "effectiveGasPrice": "0x133ec21",
      "blobGasUsed": "0x0",
      "from": "0x0571235134dc15a00f02916987c2c16b5fc52e2a",
      "to": "0x82af49447d8a07e3bd95bd0d56f35241523fbab1",
      "contractAddress": null
    },
    {
      "status": "0x1",
      "cumulativeGasUsed": "0xe774",
      "logs": [
        {
          "address": "0x82af49447d8a07e3bd95bd0d56f35241523fbab1",
          "topics": [
            "0xddf252ad1be2c89b69c2b068fc378daa952ba7f163c4a11628f55a4df523b3ef",
            "0x0000000000000000000000000571235134dc15a00f02916987c2c16b5fc52e2a",
            "0x00000000000000000000000013d8bb2a02fe9e9ecaa8f1c1b357d0b04ea9dfb7"
          ],
          "data": "0x0000000000000000000000000000000000000000000000008ac7230489e80000",
          "blockHash": "0xe388498d7231ba06d2eb49b0881eaabb5b242ac3247168c370f3e474cccb9e4d",
          "blockNumber": "0x19ffb691",
          "transactionHash": "0x41ca05a5f0cb3d094a601a65a0180220a9fbf4336ce5e0e78cc7665235cb9abd",
          "transactionIndex": "0x0",
          "logIndex": "0x0",
          "removed": false
        }
      ],
      "logsBloom": "0x00000000000000000000000000000000000000000000000000001002000000000000000000000000000000000000000000004008000000000000000000000000000000010000000000000008000000000000000000000000000000000000000000000020000000000000000400000000000000000000000000000010000000000000000000000000000000000000000000000000000000000000000000000000000000000000004000000000000000000000000000000000000000000000000000000002000000000000000000000000000000000000000000000000000000000000000000000000000000000000000000000000000400000000000000000000",
      "type": "0x2",
      "transactionHash": "0x41ca05a5f0cb3d094a601a65a0180220a9fbf4336ce5e0e78cc7665235cb9abd",
      "transactionIndex": "0x0",
      "blockHash": "0xe388498d7231ba06d2eb49b0881eaabb5b242ac3247168c370f3e474cccb9e4d",
      "blockNumber": "0x19ffb691",
      "gasUsed": "0xe774",
      "effectiveGasPrice": "0x133ec21",
      "blobGasUsed": "0x0",
      "from": "0x0571235134dc15a00f02916987c2c16b5fc52e2a",
      "to": "0x82af49447d8a07e3bd95bd0d56f35241523fbab1",
      "contractAddress": null
    },
    {
      "status": "0x1",
      "cumulativeGasUsed": "0xdd754",
      "logs": [
        {
          "address": "0x82af49447d8a07e3bd95bd0d56f35241523fbab1",
          "topics": [
            "0xddf252ad1be2c89b69c2b068fc378daa952ba7f163c4a11628f55a4df523b3ef",
            "0x0000000000000000000000000000000000000000000000000000000000000000",
            "0x0000000000000000000000001c3fa76e6e1088bce750f23a5bfcffa1efef6a41"
          ],
          "data": "0x000000000000000000000000000000000000000000000000000aa87bee538000",
          "blockHash": "0xc5dd510f908a1d889e4d84d7a4babf712410f2d7943c56f00b13266d4345e38b",
          "blockNumber": "0x19ffb692",
          "transactionHash": "0x1303179e863927bfb55ed963343aa550d2877f391d47cee6c5bc9c43e2394a44",
          "transactionIndex": "0x0",
          "logIndex": "0x0",
          "removed": false
        },
        {
          "address": "0x82af49447d8a07e3bd95bd0d56f35241523fbab1",
          "topics": [
            "0xddf252ad1be2c89b69c2b068fc378daa952ba7f163c4a11628f55a4df523b3ef",
            "0x0000000000000000000000001c3fa76e6e1088bce750f23a5bfcffa1efef6a41",
            "0x00000000000000000000000031ef83a530fde1b38ee9a18093a333d8bbbc40d5"
          ],
          "data": "0x000000000000000000000000000000000000000000000000000aa87bee538000",
          "blockHash": "0xc5dd510f908a1d889e4d84d7a4babf712410f2d7943c56f00b13266d4345e38b",
          "blockNumber": "0x19ffb692",
          "transactionHash": "0x1303179e863927bfb55ed963343aa550d2877f391d47cee6c5bc9c43e2394a44",
          "transactionIndex": "0x0",
          "logIndex": "0x1",
          "removed": false
        },
        {
          "address": "0x82af49447d8a07e3bd95bd0d56f35241523fbab1",
          "topics": [
            "0x8c5be1e5ebec7d5bd14f71427d1e84f3dd0314c0f7b2291e5b200ac8c7c3b925",
            "0x00000000000000000000000013d8bb2a02fe9e9ecaa8f1c1b357d0b04ea9dfb7",
            "0x0000000000000000000000007452c558d45f8afc8c83dae62c3f8a5be19c71f6"
          ],
          "data": "0x0000000000000000000000000000000000000000000000008ac7230489e80000",
          "blockHash": "0xc5dd510f908a1d889e4d84d7a4babf712410f2d7943c56f00b13266d4345e38b",
          "blockNumber": "0x19ffb692",
          "transactionHash": "0x1303179e863927bfb55ed963343aa550d2877f391d47cee6c5bc9c43e2394a44",
          "transactionIndex": "0x0",
          "logIndex": "0x2",
          "removed": false
        },
        {
          "address": "0x82af49447d8a07e3bd95bd0d56f35241523fbab1",
          "topics": [
            "0xddf252ad1be2c89b69c2b068fc378daa952ba7f163c4a11628f55a4df523b3ef",
            "0x00000000000000000000000013d8bb2a02fe9e9ecaa8f1c1b357d0b04ea9dfb7",
            "0x00000000000000000000000031ef83a530fde1b38ee9a18093a333d8bbbc40d5"
          ],
          "data": "0x0000000000000000000000000000000000000000000000008ac7230489e80000",
          "blockHash": "0xc5dd510f908a1d889e4d84d7a4babf712410f2d7943c56f00b13266d4345e38b",
          "blockNumber": "0x19ffb692",
          "transactionHash": "0x1303179e863927bfb55ed963343aa550d2877f391d47cee6c5bc9c43e2394a44",
          "transactionIndex": "0x0",
          "logIndex": "0x3",
          "removed": false
        },
        {
          "address": "0x82af49447d8a07e3bd95bd0d56f35241523fbab1",
          "topics": [
            "0x8c5be1e5ebec7d5bd14f71427d1e84f3dd0314c0f7b2291e5b200ac8c7c3b925",
            "0x00000000000000000000000013d8bb2a02fe9e9ecaa8f1c1b357d0b04ea9dfb7",
            "0x0000000000000000000000007452c558d45f8afc8c83dae62c3f8a5be19c71f6"
          ],
          "data": "0x0000000000000000000000000000000000000000000000000000000000000000",
          "blockHash": "0xc5dd510f908a1d889e4d84d7a4babf712410f2d7943c56f00b13266d4345e38b",
          "blockNumber": "0x19ffb692",
          "transactionHash": "0x1303179e863927bfb55ed963343aa550d2877f391d47cee6c5bc9c43e2394a44",
          "transactionIndex": "0x0",
          "logIndex": "0x4",
          "removed": false
        },
        {
          "address": "0xc8ee91a54287db53897056e12d9819156d3822fb",
          "topics": [
            "0x468a25a7ba624ceea6e540ad6f49171b52495b648417ae91bca21676d8a24dc5",
            "0xa7427759bfd3b941f14e687e129519da3c9b0046c5b9aaa290bb1dede63753b3",
            "0x52cadff1f6a73b44f492a6f0e57c603335e7019a6070fc5d68083d19c28bea36",
            "0x00000000000000000000000013d8bb2a02fe9e9ecaa8f1c1b357d0b04ea9dfb7"
          ],
          "data": "0x00000000000000000000000063492b775e30a9e6b4b4761c12605eb9d071d5e9000000000000000000000000000000000000000000000000000000000000006000000000000000000000000000000000000000000000000000000000000000a0000000000000000000000000000000000000000000000000000000000000000c4f7264657243726561746564000000000000000000000000000000000000000000000000000000000000000000000000000000000000000000000000000000e000000000000000000000000000000000000000000000000000000000000006800000000000000000000000000000000000000000000000000000000000000e800000000000000000000000000000000000000000000000000000000000000f000000000000000000000000000000000000000000000000000000000000001160000000000000000000000000000000000000000000000000000000000000134000000000000000000000000000000000000000000000000000000000000013c0000000000000000000000000000000000000000000000000000000000000004000000000000000000000000000000000000000000000000000000000000004c0000000000000000000000000000000000000000000000000000000000000000700000000000000000000000000000000000000000000000000000000000000e0000000000000000000000000000000000000000000000000000000000000016000000000000000000000000000000000000000000000000000000000000001e0000000000000000000000000000000000000000000000000000000000000026000000000000000000000000000000000000000000000000000000000000002e0000000000000000000000000000000000000000000000000000000000000036000000000000000000000000000000000000000000000000000000000000003e0000000000000000000000000000000000000000000000000000000000000004000000000000000000000000013d8bb2a02fe9e9ecaa8f1c1b357d0b04ea9dfb700000000000000000000000000000000000000000000000000000000000000076163636f756e740000000000000000000000000000000000000000000000000000000000000000000000000000000000000000000000000000000000000000400000000000000000000000000571235134dc15a00f02916987c2c16b5fc52e2a0000000000000000000000000000000000000000000000000000000000000008726563656976657200000000000000000000000000000000000000000000000000000000000000000000000000000000000000000000000000000000000000400000000000000000000000000000000000000000000000000000000000000000000000000000000000000000000000000000000000000000000000000000001063616c6c6261636b436f6e74726163740000000000000000000000000000000000000000000000000000000000000000000000000000000000000000000000400000000000000000000000000000000000000000000000000000000000000000000000000000000000000000000000000000000000000000000000000000000d7569466565526563656976657200000000000000000000000000000000000000000000000000000000000000000000000000000000000000000000000000004000000000000000000000000070d95587d40a2caf56bd97485ab3eec10bee633600000000000000000000000000000000000000000000000000000000000000066d61726b65740000000000000000000000000000000000000000000000000000000000000000000000000000000000000000000000000000000000000000004000000000000000000000000082af49447d8a07e3bd95bd0d56f35241523fbab10000000000000000000000000000000000000000000000000000000000000016696e697469616c436f6c6c61746572616c546f6b656e0000000000000000000000000000000000000000000000000000000000000000000000000000000000400000000000000000000000000000000000000000000000000000000000000000000000000000000000000000000000000000000000000000000000000000001463616e63656c6c6174696f6e52656365697665720000000000000000000000000000000000000000000000000000000000000000000000000000000000000001000000000000000000000000000000000000000000000000000000000000002000000000000000000000000000000000000000000000000000000000000000400000000000000000000000000000000000000000000000000000000000000080000000000000000000000000000000000000000000000000000000000000000873776170506174680000000000000000000000000000000000000000000000000000000000000000000000000000000000000000000000000000000000000000000000000000000000000000000000000000000000000000000000000000004000000000000000000000000000000000000000000000000000000000000007e0000000000000000000000000000000000000000000000000000000000000000c0000000000000000000000000000000000000000000000000000000000000180000000000000000000000000000000000000000000000000000000000000020000000000000000000000000000000000000000000000000000000000000002800000000000000000000000000000000000000000000000000000000000000300000000000000000000000000000000000000000000000000000000000000038000000000000000000000000000000000000000000000000000000000000004000000000000000000000000000000000000000000000000000000000000000480000000000000000000000000000000000000000000000000000000000000050000000000000000000000000000000000000000000000000000000000000005800000000000000000000000000000000000000000000000000000000000000600000000000000000000000000000000000000000000000000000000000000068000000000000000000000000000000000000000000000000000000000000007000000000000000000000000000000000000000000000000000000000000000040000000000000000000000000000000000000000000000000000000000000000200000000000000000000000000000000000000000000000000000000000000096f726465725479706500000000000000000000000000000000000000000000000000000000000000000000000000000000000000000000000000000000000040000000000000000000000000000000000000000000000000000000000000000000000000000000000000000000000000000000000000000000000000000000186465637265617365506f736974696f6e537761705479706500000000000000000000000000000000000000000000000000000000000000000000000000000040000000000000000000000000000000000000000c9f2c9cd04674edea40000000000000000000000000000000000000000000000000000000000000000000000c73697a6544656c7461557364000000000000000000000000000000000000000000000000000000000000000000000000000000000000000000000000000000400000000000000000000000000000000000000000000000008ac7230489e80000000000000000000000000000000000000000000000000000000000000000001c696e697469616c436f6c6c61746572616c44656c7461416d6f756e7400000000000000000000000000000000000000000000000000000000000000000000004000000000000000000000000000000000000000327cb2734119d3b7a900000000000000000000000000000000000000000000000000000000000000000000000c7472696767657250726963650000000000000000000000000000000000000000000000000000000000000000000000000000000000000000000000000000004000000000000000000000000000000000000000327cb2734119d3b7a900000000000000000000000000000000000000000000000000000000000000000000000f61636365707461626c65507269636500000000000000000000000000000000000000000000000000000000000000000000000000000000000000000000000040000000000000000000000000000000000000000000000000000aa87bee538000000000000000000000000000000000000000000000000000000000000000000c657865637574696f6e466565000000000000000000000000000000000000000000000000000000000000000000000000000000000000000000000000000000400000000000000000000000000000000000000000000000000000000000000000000000000000000000000000000000000000000000000000000000000000001063616c6c6261636b4761734c696d69740000000000000000000000000000000000000000000000000000000000000000000000000000000000000000000000400000000000000000000000000000000000000000000000000000000000000000000000000000000000000000000000000000000000000000000000000000000f6d696e4f7574707574416d6f756e74000000000000000000000000000000000000000000000000000000000000000000000000000000000000000000000000400000000000000000000000000000000000000000000000000000000069a58d6b000000000000000000000000000000000000000000000000000000000000000d75706461746564417454696d650000000000000000000000000000000000000000000000000000000000000000000000000000000000000000000000000000400000000000000000000000000000000000000000000000000000000000000000000000000000000000000000000000000000000000000000000000000000000d76616c696446726f6d54696d650000000000000000000000000000000000000000000000000000000000000000000000000000000000000000000000000000400000000000000000000000000000000000000000000000000000000000000000000000000000000000000000000000000000000000000000000000000000000a737263436861696e49640000000000000000000000000000000000000000000000000000000000000000000000000000000000000000000000000000000000000000000000000000000000000000000000000000000000000000000000000040000000000000000000000000000000000000000000000000000000000000006000000000000000000000000000000000000000000000000000000000000000000000000000000000000000000000000000000000000000000000000000000000000000000000000000000000000000000000000000000000000000000000004000000000000000000000000000000000000000000000000000000000000002400000000000000000000000000000000000000000000000000000000000000003000000000000000000000000000000000000000000000000000000000000006000000000000000000000000000000000000000000000000000000000000000e0000000000000000000000000000000000000000000000000000000000000016000000000000000000000000000000000000000000000000000000000000000400000000000000000000000000000000000000000000000000000000000000001000000000000000000000000000000000000000000000000000000000000000669734c6f6e67000000000000000000000000000000000000000000000000000000000000000000000000000000000000000000000000000000000000000000400000000000000000000000000000000000000000000000000000000000000000000000000000000000000000000000000000000000000000000000000000001773686f756c64556e777261704e6174697665546f6b656e00000000000000000000000000000000000000000000000000000000000000000000000000000000400000000000000000000000000000000000000000000000000000000000000000000000000000000000000000000000000000000000000000000000000000000a6175746f43616e63656c0000000000000000000000000000000000000000000000000000000000000000000000000000000000000000000000000000000000000000000000000000000000000000000000000000000000000000000000000040000000000000000000000000000000000000000000000000000000000000010000000000000000000000000000000000000000000000000000000000000000010000000000000000000000000000000000000000000000000000000000000020000000000000000000000000000000000000000000000000000000000000004052cadff1f6a73b44f492a6f0e57c603335e7019a6070fc5d68083d19c28bea3600000000000000000000000000000000000000000000000000000000000000036b6579000000000000000000000000000000000000000000000000000000000000000000000000000000000000000000000000000000000000000000000000010000000000000000000000000000000000000000000000000000000000000020000000000000000000000000000000000000000000000000000000000000004000000000000000000000000000000000000000000000000000000000000000800000000000000000000000000000000000000000000000000000000000000008646174614c697374000000000000000000000000000000000000000000000000000000000000000000000000000000000000000000000000000000000000000000000000000000000000000000000000000000000000000000000000000000400000000000000000000000000000000000000000000000000000000000000060000000000000000000000000000000000000000000000000000000000000000000000000000000000000000000000000000000000000000000000000000000000000000000000000000000000000000000000000000000000000000000000040000000000000000000000000000000000000000000000000000000000000006000000000000000000000000000000000000000000000000000000000000000000000000000000000000000000000000000000000000000000000000000000000",
          "blockHash": "0xc5dd510f908a1d889e4d84d7a4babf712410f2d7943c56f00b13266d4345e38b",
          "blockNumber": "0x19ffb692",
          "transactionHash": "0x1303179e863927bfb55ed963343aa550d2877f391d47cee6c5bc9c43e2394a44",
          "transactionIndex": "0x0",
          "logIndex": "0x5",
          "removed": false
        },
        {
          "address": "0x13d8bb2a02fe9e9ecaa8f1c1b357d0b04ea9dfb7",
          "topics": [
            "0x3f32b521b7496d2074765239e094aa3dd8d92a3bade84ef40d07dda0da018ce8",
            "0x0000000000000000000000000000000000000000000000000000000000000000"
          ],
          "data": "0x000000000000000000000000000000000000000000000000000aa87bee538000",
          "blockHash": "0xc5dd510f908a1d889e4d84d7a4babf712410f2d7943c56f00b13266d4345e38b",
          "blockNumber": "0x19ffb692",
          "transactionHash": "0x1303179e863927bfb55ed963343aa550d2877f391d47cee6c5bc9c43e2394a44",
          "transactionIndex": "0x0",
          "logIndex": "0x6",
          "removed": false
        }
      ],
      "logsBloom": "0x00000000000000100000000000000010000000000000020000001002000000000000080000000000000000000000000000004008000002200000020008200000000008010000000000000008000020000000000000000000000000000000000000000000020000000000000400000800000000040000000000000010000000000000008000000000000000200000000400000000000000000000100000000000020000000040000000000000000000000000800000000000000000000000000000000002000000000000000000000000000000000000000000004000000020040010004000000000040000000000800002000804000000000000002000000020",
      "type": "0x2",
      "transactionHash": "0x1303179e863927bfb55ed963343aa550d2877f391d47cee6c5bc9c43e2394a44",
      "transactionIndex": "0x0",
      "blockHash": "0xc5dd510f908a1d889e4d84d7a4babf712410f2d7943c56f00b13266d4345e38b",
      "blockNumber": "0x19ffb692",
      "gasUsed": "0xdd754",
      "effectiveGasPrice": "0x133ec21",
      "blobGasUsed": "0x0",
      "from": "0x0571235134dc15a00f02916987c2c16b5fc52e2a",
      "to": "0x13d8bb2a02fe9e9ecaa8f1c1b357d0b04ea9dfb7",
      "contractAddress": null
    }
  ],
  "libraries": [],
  "pending": [],
  "returns": {},
  "timestamp": 1772457325,
  "chain": 99942161,
  "commit": "bce29c4"
}