{
  "transactions": [
    {
      "hash": "0xbc17a08c92be9c796cdc70fbe7d66e27791b72594799c15fda2168b3bbc7694a",
      "transactionType": "CALL",
      "contractName": null,
      "contractAddress": "0x55a8f4abf58bda5aa26ddb402f672b69eb6d2788",
      "function": "closePosition(address,address,uint256)",
      "arguments": [
        "0xaf88d065e77c8cC2239327C5EDb3A432268e5831",
        "0x82aF49447D8a07e3bd95BD0d56f35241523fBab1",
        "2"
      ],
      "transaction": {
        "from": "0x0571235134dc15a00f02916987c2c16b5fc52e2a",
        "to": "0x55a8f4abf58bda5aa26ddb402f672b69eb6d2788",
        "gas": "0x95f00",
        "value": "0x0",
        "input": "0xcb0638db000000000000000000000000af88d065e77c8cc2239327c5edb3a432268e583100000000000000000000000082af49447d8a07e3bd95bd0d56f35241523fbab10000000000000000000000000000000000000000000000000000000000000002",
        "nonce": "0x27",
        "chainId": "0x5f4ff11"
      },
      "additionalContracts": [],
      "isFixedGasLimit": false
    }
  ],
  "receipts": [
    {
      "status": "0x1",
      "cumulativeGasUsed": "0x7138a",
      "logs": [
        {
          "address": "0x82af49447d8a07e3bd95bd0d56f35241523fbab1",
          "topics": [
            "0x8c5be1e5ebec7d5bd14f71427d1e84f3dd0314c0f7b2291e5b200ac8c7c3b925",
            "0x00000000000000000000000055a8f4abf58bda5aa26ddb402f672b69eb6d2788",
            "0x000000000000000000000000e592427a0aece92de3edee1f18e0157c05861564"
          ],
          "data": "0x0000000000000000000000000000000000000000000000000d619cf32c72c97c",
          "blockHash": "0x693d81a2168f044c1943fe17922afa522c6b326497884031e60130fdeae1da0e",
          "blockNumber": "0x19ffb684",
          "transactionHash": "0xbc17a08c92be9c796cdc70fbe7d66e27791b72594799c15fda2168b3bbc7694a",
          "transactionIndex": "0x0",
          "logIndex": "0x0",
          "removed": false
        },
        {
          "address": "0xaf88d065e77c8cc2239327c5edb3a432268e5831",
          "topics": [
            "0xddf252ad1be2c89b69c2b068fc378daa952ba7f163c4a11628f55a4df523b3ef",
            "0x000000000000000000000000c473e2aee3441bf9240be85eb122abb059a3b57c",
            "0x00000000000000000000000055a8f4abf58bda5aa26ddb402f672b69eb6d2788"
          ],
          "data": "0x00000000000000000000000000000000000000000000000000000000767ec487",
          "blockHash": "0x693d81a2168f044c1943fe17922afa522c6b326497884031e60130fdeae1da0e",
          "blockNumber": "0x19ffb684",
          "transactionHash": "0xbc17a08c92be9c796cdc70fbe7d66e27791b72594799c15fda2168b3bbc7694a",
          "transactionIndex": "0x0",
          "logIndex": "0x1",
          "removed": false
        },
        {
          "address": "0x82af49447d8a07e3bd95bd0d56f35241523fbab1",
          "topics": [
            "0xddf252ad1be2c89b69c2b068fc378daa952ba7f163c4a11628f55a4df523b3ef",
            "0x00000000000000000000000055a8f4abf58bda5aa26ddb402f672b69eb6d2788",
            "0x000000000000000000000000c473e2aee3441bf9240be85eb122abb059a3b57c"
          ],
          "data": "0x0000000000000000000000000000000000000000000000000d619cf32c72c97c",
          "blockHash": "0x693d81a2168f044c1943fe17922afa522c6b326497884031e60130fdeae1da0e",
          "blockNumber": "0x19ffb684",
          "transactionHash": "0xbc17a08c92be9c796cdc70fbe7d66e27791b72594799c15fda2168b3bbc7694a",
          "transactionIndex": "0x0",
          "logIndex": "0x2",
          "removed": false
        },
        {
          "address": "0x82af49447d8a07e3bd95bd0d56f35241523fbab1",
          "topics": [
            "0x8c5be1e5ebec7d5bd14f71427d1e84f3dd0314c0f7b2291e5b200ac8c7c3b925",
            "0x00000000000000000000000055a8f4abf58bda5aa26ddb402f672b69eb6d2788",
            "0x000000000000000000000000e592427a0aece92de3edee1f18e0157c05861564"
          ],
          "data": "0x0000000000000000000000000000000000000000000000000000000000000000",
          "blockHash": "0x693d81a2168f044c1943fe17922afa522c6b326497884031e60130fdeae1da0e",
          "blockNumber": "0x19ffb684",
          "transactionHash": "0xbc17a08c92be9c796cdc70fbe7d66e27791b72594799c15fda2168b3bbc7694a",
          "transactionIndex": "0x0",
          "logIndex": "0x3",
          "removed": false
        },
        {
          "address": "0xc473e2aee3441bf9240be85eb122abb059a3b57c",
          "topics": [
            "0xc42079f94a6350d7e6235f29174924f928cc2ac818eb64fed8004e115fbcca67",
            "0x000000000000000000000000e592427a0aece92de3edee1f18e0157c05861564",
            "0x00000000000000000000000055a8f4abf58bda5aa26ddb402f672b69eb6d2788"
          ],
          "data": "0x0000000000000000000000000000000000000000000000000d619cf32c72c97cffffffffffffffffffffffffffffffffffffffffffffffffffffffff89813b7900000000000000000000000000000000000000000002fadc45eb554baa6dbd0e00000000000000000000000000000000000000000000000002b7c2997365b66ffffffffffffffffffffffffffffffffffffffffffffffffffffffffffffcf2d4",
          "blockHash": "0x693d81a2168f044c1943fe17922afa522c6b326497884031e60130fdeae1da0e",
          "blockNumber": "0x19ffb684",
          "transactionHash": "0xbc17a08c92be9c796cdc70fbe7d66e27791b72594799c15fda2168b3bbc7694a",
          "transactionIndex": "0x0",
          "logIndex": "0x4",
          "removed": false
        },
        {
          "address": "0x55a8f4abf58bda5aa26ddb402f672b69eb6d2788",
          "topics": [
            "0x8234469b7b8613f7a8dcab0794c7ace266e9fbdfb1dc93cb1736d59fa85346bf",
            "0x00000000000000000000000082af49447d8a07e3bd95bd0d56f35241523fbab1",
            "0x000000000000000000000000af88d065e77c8cc2239327c5edb3a432268e5831"
          ],
          "data": "0x0000000000000000000000000000000000000000000000000d619cf32c72c97c00000000000000000000000000000000000000000000000000000000767ec487",
          "blockHash": "0x693d81a2168f044c1943fe17922afa522c6b326497884031e60130fdeae1da0e",
          "blockNumber": "0x19ffb684",
          "transactionHash": "0xbc17a08c92be9c796cdc70fbe7d66e27791b72594799c15fda2168b3bbc7694a",
          "transactionIndex": "0x0",
          "logIndex": "0x5",
          "removed": false
        },
        {
          "address": "0xaf88d065e77c8cc2239327c5edb3a432268e5831",
          "topics": [
            "0x8c5be1e5ebec7d5bd14f71427d1e84f3dd0314c0f7b2291e5b200ac8c7c3b925",
            "0x00000000000000000000000055a8f4abf58bda5aa26ddb402f672b69eb6d2788",
            "0x000000000000000000000000794a61358d6845594f94dc1db02a252b5b4814ad"
          ],
          "data": "0x00000000000000000000000000000000000000000000000000000000b2198e87",
          "blockHash": "0x693d81a2168f044c1943fe17922afa522c6b326497884031e60130fdeae1da0e",
          "blockNumber": "0x19ffb684",
          "transactionHash": "0xbc17a08c92be9c796cdc70fbe7d66e27791b72594799c15fda2168b3bbc7694a",
          "transactionIndex": "0x0",
          "logIndex": "0x6",
          "removed": false
        },
        {
          "address": "0xf611aeb5013fd2c0511c9cd55c7dc5c1140741a6",
          "topics": [
            "0xddf252ad1be2c89b69c2b068fc378daa952ba7f163c4a11628f55a4df523b3ef",
            "0x00000000000000000000000055a8f4abf58bda5aa26ddb402f672b69eb6d2788",
            "0x0000000000000000000000000000000000000000000000000000000000000000"
          ],
          "data": "0x0000000000000000000000000000000000000000000000000000000077359461",
          "blockHash": "0x693d81a2168f044c1943fe17922afa522c6b326497884031e60130fdeae1da0e",
          "blockNumber": "0x19ffb684",
          "transactionHash": "0xbc17a08c92be9c796cdc70fbe7d66e27791b72594799c15fda2168b3bbc7694a",
          "transactionIndex": "0x0",
          "logIndex": "0x7",
          "removed": false
        },
        {
          "address": "0xf611aeb5013fd2c0511c9cd55c7dc5c1140741a6",
          "topics": [
            "0x4cf25bc1d991c17529c25213d3cc0cda295eeaad5f13f361969b12ea48015f90",
            "0x00000000000000000000000055a8f4abf58bda5aa26ddb402f672b69eb6d2788",
            "0x0000000000000000000000000000000000000000000000000000000000000000"
          ],
          "data": "0x00000000000000000000000000000000000000000000000000000000773594610000000000000000000000000000000000000000000000000000000000000370000000000000000000000000000000000000000003ef0aef9d950cd784d56f9d",
          "blockHash": "0x693d81a2168f044c1943fe17922afa522c6b326497884031e60130fdeae1da0e",
          "blockNumber": "0x19ffb684",
          "transactionHash": "0xbc17a08c92be9c796cdc70fbe7d66e27791b72594799c15fda2168b3bbc7694a",
          "transactionIndex": "0x0",
          "logIndex": "0x8",
          "removed": false
        },
        {
          "address": "0x794a61358d6845594f94dc1db02a252b5b4814ad",
          "topics": [
            "0x804c9b842b2748a22bb64b345453a3de7ca54a6ca45ce00d415894979e22897a",
            "0x000000000000000000000000af88d065e77c8cc2239327c5edb3a432268e5831"
          ],
          "data": "0x0000000000000000000000000000000000000000000cbd4100c098b43cb4ccb200000000000000000000000000000000000000000000000000000000000000000000000000000000000000000000000000000000001981214422a7a48c561bff000000000000000000000000000000000000000003c0fe21ccda7a031cc67ba6000000000000000000000000000000000000000003ef0aef9d950cd784d56f9d",
          "blockHash": "0x693d81a2168f044c1943fe17922afa522c6b326497884031e60130fdeae1da0e",
          "blockNumber": "0x19ffb684",
          "transactionHash": "0xbc17a08c92be9c796cdc70fbe7d66e27791b72594799c15fda2168b3bbc7694a",
          "transactionIndex": "0x0",
          "logIndex": "0x9",
          "removed": false
        },
        {
          "address": "0xaf88d065e77c8cc2239327c5edb3a432268e5831",
          "topics": [
            "0xddf252ad1be2c89b69c2b068fc378daa952ba7f163c4a11628f55a4df523b3ef",
            "0x00000000000000000000000055a8f4abf58bda5aa26ddb402f672b69eb6d2788",
            "0x000000000000000000000000724dc807b04555b71ed48a6896b6f41593b8c637"
          ],
          "data": "0x00000000000000000000000000000000000000000000000000000000773597d1",
          "blockHash": "0x693d81a2168f044c1943fe17922afa522c6b326497884031e60130fdeae1da0e",
          "blockNumber": "0x19ffb684",
          "transactionHash": "0xbc17a08c92be9c796cdc70fbe7d66e27791b72594799c15fda2168b3bbc7694a",
          "transactionIndex": "0x0",
          "logIndex": "0xa",
          "removed": false
        },
        {
          "address": "0x794a61358d6845594f94dc1db02a252b5b4814ad",
          "topics": [
            "0xa534c8dbe71f871f9f3530e97a74601fea17b426cae02e1c5aee42c96c784051",
            "0x000000000000000000000000af88d065e77c8cc2239327c5edb3a432268e5831",
            "0x00000000000000000000000055a8f4abf58bda5aa26ddb402f672b69eb6d2788",
            "0x00000000000000000000000055a8f4abf58bda5aa26ddb402f672b69eb6d2788"
          ],
          "data": "0x00000000000000000000000000000000000000000000000000000000773597d10000000000000000000000000000000000000000000000000000000000000000",
          "blockHash": "0x693d81a2168f044c1943fe17922afa522c6b326497884031e60130fdeae1da0e",
          "blockNumber": "0x19ffb684",
          "transactionHash": "0xbc17a08c92be9c796cdc70fbe7d66e27791b72594799c15fda2168b3bbc7694a",
          "transactionIndex": "0x0",
          "logIndex": "0xb",
          "removed": false
        },
        {
          "address": "0x794a61358d6845594f94dc1db02a252b5b4814ad",
          "topics": [
            "0x44c58d81365b66dd4b1a7f36c25aa97b8c71c361ee4937adc1a00000227db5dd",
            "0x00000000000000000000000082af49447d8a07e3bd95bd0d56f35241523fbab1",
            "0x00000000000000000000000055a8f4abf58bda5aa26ddb402f672b69eb6d2788"
          ],
          "data": "0x",
          "blockHash": "0x693d81a2168f044c1943fe17922afa522c6b326497884031e60130fdeae1da0e",
          "blockNumber": "0x19ffb684",
          "transactionHash": "0xbc17a08c92be9c796cdc70fbe7d66e27791b72594799c15fda2168b3bbc7694a",
          "transactionIndex": "0x0",
          "logIndex": "0xc",
          "removed": false
        },
        {
          "address": "0x794a61358d6845594f94dc1db02a252b5b4814ad",
          "topics": [
            "0x804c9b842b2748a22bb64b345453a3de7ca54a6ca45ce00d415894979e22897a",
            "0x00000000000000000000000082af49447d8a07e3bd95bd0d56f35241523fbab1"
          ],
          "data": "0x00000000000000000000000000000000000000000010008b0ff0c20a01e74c6d000000000000000000000000000000000000000000000000000000000000000000000000000000000000000000000000000000000014922dad01e6e3c93cf1240000000000000000000000000000000000000000036c521e3de17630e4b634a30000000000000000000000000000000000000000039652d8de0d84dd91e639e0",
          "blockHash": "0x693d81a2168f044c1943fe17922afa522c6b326497884031e60130fdeae1da0e",
          "blockNumber": "0x19ffb684",
          "transactionHash": "0xbc17a08c92be9c796cdc70fbe7d66e27791b72594799c15fda2168b3bbc7694a",
          "transactionIndex": "0x0",
          "logIndex": "0xd",
          "removed": false
        },
        {
          "address": "0xe50fa9b3c56ffb159cb0fca61f5c9d750e8128c8",
          "topics": [
            "0xddf252ad1be2c89b69c2b068fc378daa952ba7f163c4a11628f55a4df523b3ef",
            "0x00000000000000000000000055a8f4abf58bda5aa26ddb402f672b69eb6d2788",
            "0x0000000000000000000000000000000000000000000000000000000000000000"
          ],
          "data": "0x0000000000000000000000000000000000000000000000001bc16d754dfb39a3",
          "blockHash": "0x693d81a2168f044c1943fe17922afa522c6b326497884031e60130fdeae1da0e",
          "blockNumber": "0x19ffb684",
          "transactionHash": "0xbc17a08c92be9c796cdc70fbe7d66e27791b72594799c15fda2168b3bbc7694a",
          "transactionIndex": "0x0",
          "logIndex": "0xe",
          "removed": false
        },
        {
          "address": "0xe50fa9b3c56ffb159cb0fca61f5c9d750e8128c8",
          "topics": [
            "0x4cf25bc1d991c17529c25213d3cc0cda295eeaad5f13f361969b12ea48015f90",
            "0x00000000000000000000000055a8f4abf58bda5aa26ddb402f672b69eb6d2788",
            "0x00000000000000000000000055a8f4abf58bda5aa26ddb402f672b69eb6d2788"
          ],
          "data": "0x0000000000000000000000000000000000000000000000001bc16d754dfb39a3000000000000000000000000000000000000000000000000000000808a8235020000000000000000000000000000000000000000036c521e3de17630e4b634a3",
          "blockHash": "0x693d81a2168f044c1943fe17922afa522c6b326497884031e60130fdeae1da0e",
          "blockNumber": "0x19ffb684",
          "transactionHash": "0xbc17a08c92be9c796cdc70fbe7d66e27791b72594799c15fda2168b3bbc7694a",
          "transactionIndex": "0x0",
          "logIndex": "0xf",
          "removed": false
        },
        {
          "address": "0x82af49447d8a07e3bd95bd0d56f35241523fbab1",
          "topics": [
            "0xddf252ad1be2c89b69c2b068fc378daa952ba7f163c4a11628f55a4df523b3ef",
            "0x000000000000000000000000e50fa9b3c56ffb159cb0fca61f5c9d750e8128c8",
            "0x00000000000000000000000055a8f4abf58bda5aa26ddb402f672b69eb6d2788"
          ],
          "data": "0x0000000000000000000000000000000000000000000000001bc16df5d87d6ea5",
          "blockHash": "0x693d81a2168f044c1943fe17922afa522c6b326497884031e60130fdeae1da0e",
          "blockNumber": "0x19ffb684",
          "transactionHash": "0xbc17a08c92be9c796cdc70fbe7d66e27791b72594799c15fda2168b3bbc7694a",
          "transactionIndex": "0x0",
          "logIndex": "0x10",
          "removed": false
        },
        {
          "address": "0x794a61358d6845594f94dc1db02a252b5b4814ad",
          "topics": [
            "0x3115d1449a7b732c986cba18244e897a450f61e1bb8d589cd2e69e6c8924f9f7",
            "0x00000000000000000000000082af49447d8a07e3bd95bd0d56f35241523fbab1",
            "0x00000000000000000000000055a8f4abf58bda5aa26ddb402f672b69eb6d2788",
            "0x00000000000000000000000055a8f4abf58bda5aa26ddb402f672b69eb6d2788"
          ],
          "data": "0x0000000000000000000000000000000000000000000000001bc16df5d87d6ea5",
          "blockHash": "0x693d81a2168f044c1943fe17922afa522c6b326497884031e60130fdeae1da0e",
          "blockNumber": "0x19ffb684",
          "transactionHash": "0xbc17a08c92be9c796cdc70fbe7d66e27791b72594799c15fda2168b3bbc7694a",
          "transactionIndex": "0x0",
          "logIndex": "0x11",
          "removed": false
        },
        {
          "address": "0x55a8f4abf58bda5aa26ddb402f672b69eb6d2788",
          "topics": [
            "0xd4c9b0490ba05aa750675b65fe1802b11692a700574310d45b4feae11f529eef",
            "0x000000000000000000000000af88d065e77c8cc2239327c5edb3a432268e5831",
            "0x00000000000000000000000082af49447d8a07e3bd95bd0d56f35241523fbab1"
          ],
          "data": "0x00000000000000000000000000000000000000000000000000000000773597d10000000000000000000000000000000000000000000000001bc16df5d87d6ea5",
          "blockHash": "0x693d81a2168f044c1943fe17922afa522c6b326497884031e60130fdeae1da0e",
          "blockNumber": "0x19ffb684",
          "transactionHash": "0xbc17a08c92be9c796cdc70fbe7d66e27791b72594799c15fda2168b3bbc7694a",
          "transactionIndex": "0x0",
          "logIndex": "0x12",
          "removed": false
        }
      ],
      "logsBloom": "0x1008000a0100000000000002000010000080000000000000000000000000000000000000000000001000004000000000000140014000240000002000002000000000000100000008804410080200000100020400000000008000000000200000000000000200000000001004000008000000001000000200000000100008000000000000000000000080010000000000000008000a00000000000001a00000000200000000800000000000008000000000000000000001020000000004000100000020220800000000000020000000010000000000000000020000000000200420101000000084000a0080000000200000000000002000800020000000050000",
      "type": "0x2",
      "transactionHash": "0xbc17a08c92be9c796cdc70fbe7d66e27791b72594799c15fda2168b3bbc7694a",
      "transactionIndex": "0x0",
      "blockHash": "0x693d81a2168f044c1943fe17922afa522c6b326497884031e60130fdeae1da0e",
      "blockNumber": "0x19ffb684",
      "gasUsed": "0x7138a",
      "effectiveGasPrice": "0x133ec21",
      "blobGasUsed": "0x0",
      "from": "0x0571235134dc15a00f02916987c2c16b5fc52e2a",
      "to": "0x55a8f4abf58bda5aa26ddb402f672b69eb6d2788",
      "contractAddress": null
    }
  ],
  "libraries": [],
  "pending": [],
  "returns": {},
  "timestamp": 1772124128,
  "chain": 99942161,
  "commit": "d3255aa"
}