{
  "transactions": [
    {
      "hash": "0x5b4fe8e35a6794a6001d47d7fe2ad773bbdc4a26e7acbad788ef40bf73123853",
      "transactionType": "CALL",
      "contractName": null,
      "contractAddress": "0x51f885281834a5367a65db82e9362d15574f6173",
      "function": "closePosition(address,address,uint256)",
      "arguments": [
        "0xaf88d065e77c8cC2239327C5EDb3A432268e5831",
        "0x82aF49447D8a07e3bd95BD0d56f35241523fBab1",
        "2"
      ],
      "transaction": {
        "from": "0x0571235134dc15a00f02916987c2c16b5fc52e2a",
        "to": "0x51f885281834a5367a65db82e9362d15574f6173",
        "gas": "0x6cc9e",
        "value": "0x0",
        "input": "0xcb0638db000000000000000000000000af88d065e77c8cc2239327c5edb3a432268e583100000000000000000000000082af49447d8a07e3bd95bd0d56f35241523fbab10000000000000000000000000000000000000000000000000000000000000002",
        "nonce": "0x29",
        "chainId": "0x5f4ff11"
      },
      "additionalContracts": [],
      "isFixedGasLimit": false
    }
  ],
  "receipts": [
    {
      "status": "0x1",
      "cumulativeGasUsed": "0x51d46",
      "logs": [
        {
          "address": "0xaf88d065e77c8cc2239327c5edb3a432268e5831",
          "topics": [
            "0x8c5be1e5ebec7d5bd14f71427d1e84f3dd0314c0f7b2291e5b200ac8c7c3b925",
            "0x00000000000000000000000051f885281834a5367a65db82e9362d15574f6173",
            "0x000000000000000000000000794a61358d6845594f94dc1db02a252b5b4814ad"
          ],
          "data": "0x00000000000000000000000000000000000000000000000000000002540be400",
          "blockHash": "0x55b3336a79d2ca668b902161d5e780df072c820c971180112cc6e0a7c167f16b",
          "blockNumber": "0x19f79dcd",
          "transactionHash": "0x5b4fe8e35a6794a6001d47d7fe2ad773bbdc4a26e7acbad788ef40bf73123853",
          "transactionIndex": "0x0",
          "logIndex": "0x0",
          "removed": false
        },
        {
          "address": "0xf611aeb5013fd2c0511c9cd55c7dc5c1140741a6",
          "topics": [
            "0xddf252ad1be2c89b69c2b068fc378daa952ba7f163c4a11628f55a4df523b3ef",
            "0x00000000000000000000000051f885281834a5367a65db82e9362d15574f6173",
            "0x0000000000000000000000000000000000000000000000000000000000000000"
          ],
          "data": "0x000000000000000000000000000000000000000000000000000000003b9aca01",
          "blockHash": "0x55b3336a79d2ca668b902161d5e780df072c820c971180112cc6e0a7c167f16b",
          "blockNumber": "0x19f79dcd",
          "transactionHash": "0x5b4fe8e35a6794a6001d47d7fe2ad773bbdc4a26e7acbad788ef40bf73123853",
          "transactionIndex": "0x0",
          "logIndex": "0x1",
          "removed": false
        },
        {
          "address": "0xf611aeb5013fd2c0511c9cd55c7dc5c1140741a6",
          "topics": [
            "0x4cf25bc1d991c17529c25213d3cc0cda295eeaad5f13f361969b12ea48015f90",
            "0x00000000000000000000000051f885281834a5367a65db82e9362d15574f6173",
            "0x0000000000000000000000000000000000000000000000000000000000000000"
          ],
          "data": "0x000000000000000000000000000000000000000000000000000000003b9aca010000000000000000000000000000000000000000000000000000000000000078000000000000000000000000000000000000000003eef965d4b610e974464b4f",
          "blockHash": "0x55b3336a79d2ca668b902161d5e780df072c820c971180112cc6e0a7c167f16b",
          "blockNumber": "0x19f79dcd",
          "transactionHash": "0x5b4fe8e35a6794a6001d47d7fe2ad773bbdc4a26e7acbad788ef40bf73123853",
          "transactionIndex": "0x0",
          "logIndex": "0x2",
          "removed": false
        },
        {
          "address": "0x794a61358d6845594f94dc1db02a252b5b4814ad",
          "topics": [
            "0x804c9b842b2748a22bb64b345453a3de7ca54a6ca45ce00d415894979e22897a",
            "0x000000000000000000000000af88d065e77c8cc2239327c5edb3a432268e5831"
          ],
          "data": "0x0000000000000000000000000000000000000000000d67563a49378cfce30e4300000000000000000000000000000000000000000000000000000000000000000000000000000000000000000000000000000000001a2938ca2f0fd1b1c8fa63000000000000000000000000000000000000000003c0f5b7aba3861828ee6cc6000000000000000000000000000000000000000003eef965d4b610e974464b4f",
          "blockHash": "0x55b3336a79d2ca668b902161d5e780df072c820c971180112cc6e0a7c167f16b",
          "blockNumber": "0x19f79dcd",
          "transactionHash": "0x5b4fe8e35a6794a6001d47d7fe2ad773bbdc4a26e7acbad788ef40bf73123853",
          "transactionIndex": "0x0",
          "logIndex": "0x3",
          "removed": false
        },
        {
          "address": "0xaf88d065e77c8cc2239327c5edb3a432268e5831",
          "topics": [
            "0xddf252ad1be2c89b69c2b068fc378daa952ba7f163c4a11628f55a4df523b3ef",
            "0x00000000000000000000000051f885281834a5367a65db82e9362d15574f6173",
            "0x000000000000000000000000724dc807b04555b71ed48a6896b6f41593b8c637"
          ],
          "data": "0x000000000000000000000000000000000000000000000000000000003b9aca79",
          "blockHash": "0x55b3336a79d2ca668b902161d5e780df072c820c971180112cc6e0a7c167f16b",
          "blockNumber": "0x19f79dcd",
          "transactionHash": "0x5b4fe8e35a6794a6001d47d7fe2ad773bbdc4a26e7acbad788ef40bf73123853",
          "transactionIndex": "0x0",
          "logIndex": "0x4",
          "removed": false
        },
        {
          "address": "0x794a61358d6845594f94dc1db02a252b5b4814ad",
          "topics": [
            "0xa534c8dbe71f871f9f3530e97a74601fea17b426cae02e1c5aee42c96c784051",
            "0x000000000000000000000000af88d065e77c8cc2239327c5edb3a432268e5831",
            "0x00000000000000000000000051f885281834a5367a65db82e9362d15574f6173",
            "0x00000000000000000000000051f885281834a5367a65db82e9362d15574f6173"
          ],
          "data": "0x000000000000000000000000000000000000000000000000000000003b9aca790000000000000000000000000000000000000000000000000000000000000000",
          "blockHash": "0x55b3336a79d2ca668b902161d5e780df072c820c971180112cc6e0a7c167f16b",
          "blockNumber": "0x19f79dcd",
          "transactionHash": "0x5b4fe8e35a6794a6001d47d7fe2ad773bbdc4a26e7acbad788ef40bf73123853",
          "transactionIndex": "0x0",
          "logIndex": "0x5",
          "removed": false
        },
        {
          "address": "0x794a61358d6845594f94dc1db02a252b5b4814ad",
          "topics": [
            "0x804c9b842b2748a22bb64b345453a3de7ca54a6ca45ce00d415894979e22897a",
            "0x00000000000000000000000082af49447d8a07e3bd95bd0d56f35241523fbab1"
          ],
          "data": "0x0000000000000000000000000000000000000000000fcbca200511d95030ed2e0000000000000000000000000000000000000000000000000000000000000000000000000000000000000000000000000000000000147029218d93c628677ce30000000000000000000000000000000000000000036c48c58d128dbbae44969f000000000000000000000000000000000000000003964624bda720f6bcdf51a1",
          "blockHash": "0x55b3336a79d2ca668b902161d5e780df072c820c971180112cc6e0a7c167f16b",
          "blockNumber": "0x19f79dcd",
          "transactionHash": "0x5b4fe8e35a6794a6001d47d7fe2ad773bbdc4a26e7acbad788ef40bf73123853",
          "transactionIndex": "0x0",
          "logIndex": "0x6",
          "removed": false
        },
        {
          "address": "0xe50fa9b3c56ffb159cb0fca61f5c9d750e8128c8",
          "topics": [
            "0xddf252ad1be2c89b69c2b068fc378daa952ba7f163c4a11628f55a4df523b3ef",
            "0x00000000000000000000000051f885281834a5367a65db82e9362d15574f6173",
            "0x0000000000000000000000000000000000000000000000000000000000000000"
          ],
          "data": "0x0000000000000000000000000000000000000000000000000de0b6b3a763ffff",
          "blockHash": "0x55b3336a79d2ca668b902161d5e780df072c820c971180112cc6e0a7c167f16b",
          "blockNumber": "0x19f79dcd",
          "transactionHash": "0x5b4fe8e35a6794a6001d47d7fe2ad773bbdc4a26e7acbad788ef40bf73123853",
          "transactionIndex": "0x0",
          "logIndex": "0x7",
          "removed": false
        },
        {
          "address": "0xe50fa9b3c56ffb159cb0fca61f5c9d750e8128c8",
          "topics": [
            "0x4cf25bc1d991c17529c25213d3cc0cda295eeaad5f13f361969b12ea48015f90",
            "0x00000000000000000000000051f885281834a5367a65db82e9362d15574f6173",
            "0x00000000000000000000000051f885281834a5367a65db82e9362d15574f6173"
          ],
          "data": "0x0000000000000000000000000000000000000000000000000de0b6b3a763ffff00000000000000000000000000000000000000000000000000000010c6ff9f2e0000000000000000000000000000000000000000036c48c58d128dbbae44969f",
          "blockHash": "0x55b3336a79d2ca668b902161d5e780df072c820c971180112cc6e0a7c167f16b",
          "blockNumber": "0x19f79dcd",
          "transactionHash": "0x5b4fe8e35a6794a6001d47d7fe2ad773bbdc4a26e7acbad788ef40bf73123853",
          "transactionIndex": "0x0",
          "logIndex": "0x8",
          "removed": false
        },
        {
          "address": "0x82af49447d8a07e3bd95bd0d56f35241523fbab1",
          "topics": [
            "0xddf252ad1be2c89b69c2b068fc378daa952ba7f163c4a11628f55a4df523b3ef",
            "0x000000000000000000000000e50fa9b3c56ffb159cb0fca61f5c9d750e8128c8",
            "0x00000000000000000000000051f885281834a5367a65db82e9362d15574f6173"
          ],
          "data": "0x0000000000000000000000000000000000000000000000000de0b6c46e639f2d",
          "blockHash": "0x55b3336a79d2ca668b902161d5e780df072c820c971180112cc6e0a7c167f16b",
          "blockNumber": "0x19f79dcd",
          "transactionHash": "0x5b4fe8e35a6794a6001d47d7fe2ad773bbdc4a26e7acbad788ef40bf73123853",
          "transactionIndex": "0x0",
          "logIndex": "0x9",
          "removed": false
        },
        {
          "address": "0x794a61358d6845594f94dc1db02a252b5b4814ad",
          "topics": [
            "0x44c58d81365b66dd4b1a7f36c25aa97b8c71c361ee4937adc1a00000227db5dd",
            "0x00000000000000000000000082af49447d8a07e3bd95bd0d56f35241523fbab1",
            "0x00000000000000000000000051f885281834a5367a65db82e9362d15574f6173"
          ],
          "data": "0x",
          "blockHash": "0x55b3336a79d2ca668b902161d5e780df072c820c971180112cc6e0a7c167f16b",
          "blockNumber": "0x19f79dcd",
          "transactionHash": "0x5b4fe8e35a6794a6001d47d7fe2ad773bbdc4a26e7acbad788ef40bf73123853",
          "transactionIndex": "0x0",
          "logIndex": "0xa",
          "removed": false
        },
        {
          "address": "0x794a61358d6845594f94dc1db02a252b5b4814ad",
          "topics": [
            "0x3115d1449a7b732c986cba18244e897a450f61e1bb8d589cd2e69e6c8924f9f7",
            "0x00000000000000000000000082af49447d8a07e3bd95bd0d56f35241523fbab1",
            "0x00000000000000000000000051f885281834a5367a65db82e9362d15574f6173",
            "0x00000000000000000000000051f885281834a5367a65db82e9362d15574f6173"
          ],
          "data": "0x0000000000000000000000000000000000000000000000000de0b6c46e639f2d",
          "blockHash": "0x55b3336a79d2ca668b902161d5e780df072c820c971180112cc6e0a7c167f16b",
          "blockNumber": "0x19f79dcd",
          "transactionHash": "0x5b4fe8e35a6794a6001d47d7fe2ad773bbdc4a26e7acbad788ef40bf73123853",
          "transactionIndex": "0x0",
          "logIndex": "0xb",
          "removed": false
        },
        {
          "address": "0x82af49447d8a07e3bd95bd0d56f35241523fbab1",
          "topics": [
            "0xddf252ad1be2c89b69c2b068fc378daa952ba7f163c4a11628f55a4df523b3ef",
            "0x00000000000000000000000051f885281834a5367a65db82e9362d15574f6173",
            "0x0000000000000000000000000000000000000000000000000000000000000000"
          ],
          "data": "0x0000000000000000000000000000000000000000000000009fe725bea5e37ba2",
          "blockHash": "0x55b3336a79d2ca668b902161d5e780df072c820c971180112cc6e0a7c167f16b",
          "blockNumber": "0x19f79dcd",
          "transactionHash": "0x5b4fe8e35a6794a6001d47d7fe2ad773bbdc4a26e7acbad788ef40bf73123853",
          "transactionIndex": "0x0",
          "logIndex": "0xc",
          "removed": false
        }
      ],
      "logsBloom": "0x10080000000000000000000000000000008000000800000000000000000000000000000000000000100000400000000000014041400004000000200000200000000000010000000080001008020000010000040000000000800000000000000000000000020000000000000400000800000000100000020000000010000000000000000000000000000001000000000000000800880000000000000020000000020000000080000000000000000000000000000000000102000000000400010000002022000000000000002000000001000000000000000000000000000020040010100000008000020080000000200000000000002000800000000000050000",
      "type": "0x2",
      "transactionHash": "0x5b4fe8e35a6794a6001d47d7fe2ad773bbdc4a26e7acbad788ef40bf73123853",
      "transactionIndex": "0x0",
      "blockHash": "0x55b3336a79d2ca668b902161d5e780df072c820c971180112cc6e0a7c167f16b",
      "blockNumber": "0x19f79dcd",
      "gasUsed": "0x51d46",
      "effectiveGasPrice": "0x14410f1",
      "blobGasUsed": "0x0",
      "from": "0x0571235134dc15a00f02916987c2c16b5fc52e2a",
      "to": "0x51f885281834a5367a65db82e9362d15574f6173",
      "contractAddress": null
    }
  ],
  "libraries": [],
  "pending": [],
  "returns": {},
  "timestamp": 1772054984,
  "chain": 99942161,
  "commit": "a822a26"
}