{
  "transactions": [
    {
      "hash": "0x8434cccd8716629655d1dbfa7807cabd9c77ac0fd303f438a1edce9b81d1a1ba",
      "transactionType": "CALL",
      "contractName": null,
      "contractAddress": "0xc02aaa39b223fe8d0a0e5c4f27ead9083c756cc2",
      "function": "deposit()",
      "arguments": [],
      "transaction": {
        "from": "0x0571235134dc15a00f02916987c2c16b5fc52e2a",
        "to": "0xc02aaa39b223fe8d0a0e5c4f27ead9083c756cc2",
        "gas": "0x9f9b",
        "value": "0xde0b6b3a7640000",
        "input": "0xd0e30db0",
        "nonce": "0x1d",
        "chainId": "0x1"
      },
      "additionalContracts": [],
      "isFixedGasLimit": false
    },
    {
      "hash": "0x32cfd7b23ffafe1771357951a82f8ab983cd5b87542f9dd16680d10a50898703",
      "transactionType": "CALL",
      "contractName": null,
      "contractAddress": "0xc02aaa39b223fe8d0a0e5c4f27ead9083c756cc2",
      "function": "transfer(address,uint256)",
      "arguments": [
        "0xdc7a67547ADDB28B8334ae9C046426Ca87B35227",
        "1000000000000000000"
      ],
      "transaction": {
        "from": "0x0571235134dc15a00f02916987c2c16b5fc52e2a",
        "to": "0xc02aaa39b223fe8d0a0e5c4f27ead9083c756cc2",
        "gas": "0xba1b",
        "value": "0x0",
        "input": "0xa9059cbb000000000000000000000000dc7a67547addb28b8334ae9c046426ca87b352270000000000000000000000000000000000000000000000000de0b6b3a7640000",
        "nonce": "0x1e",
        "chainId": "0x1"
      },
      "additionalContracts": [],
      "isFixedGasLimit": false
    },
    {
      "hash": "0xa5c59f6f550e5c167f018a9215a23a7740319dc5852e92f0d2859e2d8ea1e10a",
      "transactionType": "CALL",
      "contractName": null,
      "contractAddress": "0xdc7a67547addb28b8334ae9c046426ca87b35227",
      "function": "execute(uint8,(uint8,address,address,uint256,uint256,uint24,uint256,address,bytes)[])",
      "arguments": [
        "1",
        "[(0, 0xC02aaA39b223FE8D0A0e5C4F27eAD9083C756Cc2, 0x0000000000000000000000000000000000000000, 1000000000000000000, 0, 0, 0, 0x0571235134DC15a00f02916987C2c16b5fC52E2A, 0x), (0, 0xA0b86991c6218b36c1d19D4a2e9Eb0cE3606eB48, 0x0000000000000000000000000000000000000000, 1000000000, 0, 0, 0, 0x0571235134DC15a00f02916987C2c16b5fC52E2A, 0x), (0, 0xA0b86991c6218b36c1d19D4a2e9Eb0cE3606eB48, 0xC02aaA39b223FE8D0A0e5C4F27eAD9083C756Cc2, 0, 0, 3000, 0, 0x0571235134DC15a00f02916987C2c16b5fC52E2A, 0x), (0, 0xC02aaA39b223FE8D0A0e5C4F27eAD9083C756Cc2, 0x0000000000000000000000000000000000000000, 0, 0, 0, 0, 0x0571235134DC15a00f02916987C2c16b5fC52E2A, 0x)]"
      ],
      "transaction": {
        "from": "0x0571235134dc15a00f02916987c2c16b5fc52e2a",
        "to": "0xdc7a67547addb28b8334ae9c046426ca87b35227",
        "gas": "0xa4ef4",
        "value": "0x0",
        "input": "0x7b0e6120000000000000000000000000000000000000000000000000000000000000000100000000000000000000000000000000000000000000000000000000000000400000000000000000000000000000000000000000000000000000000000000004000000000000000000000000000000000000000000000000000000000000008000000000000000000000000000000000000000000000000000000000000001c0000000000000000000000000000000000000000000000000000000000000030000000000000000000000000000000000000000000000000000000000000004400000000000000000000000000000000000000000000000000000000000000000000000000000000000000000c02aaa39b223fe8d0a0e5c4f27ead9083c756cc200000000000000000000000000000000000000000000000000000000000000000000000000000000000000000000000000000000000000000de0b6b3a76400000000000000000000000000000000000000000000000000000000000000000000000000000000000000000000000000000000000000000000000000000000000000000000000000000000000000000000000000000000000000000000000000000000000000000000000000000571235134dc15a00f02916987c2c16b5fc52e2a000000000000000000000000000000000000000000000000000000000000012000000000000000000000000000000000000000000000000000000000000000000000000000000000000000000000000000000000000000000000000000000000000000000000000000000000a0b86991c6218b36c1d19d4a2e9eb0ce3606eb480000000000000000000000000000000000000000000000000000000000000000000000000000000000000000000000000000000000000000000000003b9aca000000000000000000000000000000000000000000000000000000000000000000000000000000000000000000000000000000000000000000000000000000000000000000000000000000000000000000000000000000000000000000000000000000000000000000000000000571235134dc15a00f02916987c2c16b5fc52e2a000000000000000000000000000000000000000000000000000000000000012000000000000000000000000000000000000000000000000000000000000000000000000000000000000000000000000000000000000000000000000000000000000000000000000000000000a0b86991c6218b36c1d19d4a2e9eb0ce3606eb48000000000000000000000000c02aaa39b223fe8d0a0e5c4f27ead9083c756cc2000000000000000000000000000000000000000000000000000000000000000000000000000000000000000000000000000000000000000000000000000000000000000000000000000000000000000000000000000000000000000000000bb800000000000000000000000000000000000000000000000000000000000000000000000000000000000000000571235134dc15a00f02916987c2c16b5fc52e2a000000000000000000000000000000000000000000000000000000000000012000000000000000000000000000000000000000000000000000000000000000000000000000000000000000000000000000000000000000000000000000000000000000000000000000000000c02aaa39b223fe8d0a0e5c4f27ead9083c756cc2000000000000000000000000000000000000000000000000000000000000000000000000000000000000000000000000000000000000000000000000000000000000000000000000000000000000000000000000000000000000000000000000000000000000000000000000000000000000000000000000000000000000000000000000000000000000000000000000000000000000000000000000000000000000000000000000000000000571235134dc15a00f02916987c2c16b5fc52e2a00000000000000000000000000000000000000000000000000000000000001200000000000000000000000000000000000000000000000000000000000000000",
        "nonce": "0x1f",
        "chainId": "0x1"
      },
      "additionalContracts": [],
      "isFixedGasLimit": false
    }
  ],
  "receipts": [
    {
      "status": "0x1",
      "cumulativeGasUsed": "0x6d22",
      "logs": [
        {
          "address": "0xc02aaa39b223fe8d0a0e5c4f27ead9083c756cc2",
          "topics": [
            "0xe1fffcc4923d04b559f4d29a8bfc6cda04eb5b0d3c460751c2402c5c5cc9109c",
            "0x0000000000000000000000000571235134dc15a00f02916987c2c16b5fc52e2a"
          ],
          "data": "0x0000000000000000000000000000000000000000000000000de0b6b3a7640000",
          "blockHash": "0x459be7536a4d0765175f445e2655019210bc17d167e4aa5e4b153452f22b8f70",
          "blockNumber": "0x175a076",
          "transactionHash": "0x8434cccd8716629655d1dbfa7807cabd9c77ac0fd303f438a1edce9b81d1a1ba",
          "transactionIndex": "0x0",
          "logIndex": "0x0",
          "removed": false
        }
      ],
      "logsBloom": "0x00000000000000000000000000000000000000000000000000000000000000000000000000000000000000000000000002000000080000000000000000000000000000000000000000000000000000000000000000000000000000008000000000000020000000000000000000000000000000000000000000000000000000000000000000000000000000000000000000000001000000000000000000000000000000000000004000000000000000000000000000000000000000000000000000000000000000000000000000000000000000000000000000000000000000000000200000000000000000000000000000000000000400400000000000000000",
      "type": "0x2",
      "transactionHash": "0x8434cccd8716629655d1dbfa7807cabd9c77ac0fd303f438a1edce9b81d1a1ba",
      "transactionIndex": "0x0",
      "blockHash": "0x459be7536a4d0765175f445e2655019210bc17d167e4aa5e4b153452f22b8f70",
      "blockNumber": "0x175a076",
      "gasUsed": "0x6d22",
      "effectiveGasPrice": "0x41f0ab",
      "blobGasUsed": "0x0",
      "from": "0x0571235134dc15a00f02916987c2c16b5fc52e2a",
      "to": "0xc02aaa39b223fe8d0a0e5c4f27ead9083c756cc2",
      "contractAddress": null
    },
    {
      "status": "0x1",
      "cumulativeGasUsed": "0x86be",
      "logs": [
        {
          "address": "0xc02aaa39b223fe8d0a0e5c4f27ead9083c756cc2",
          "topics": [
            "0xddf252ad1be2c89b69c2b068fc378daa952ba7f163c4a11628f55a4df523b3ef",
            "0x0000000000000000000000000571235134dc15a00f02916987c2c16b5fc52e2a",
            "0x000000000000000000000000dc7a67547addb28b8334ae9c046426ca87b35227"
          ],
          "data": "0x0000000000000000000000000000000000000000000000000de0b6b3a7640000",
          "blockHash": "0x47c4888a69a85c109a3d0a463e4683698264296c81ce98f17988625eefd807c7",
          "blockNumber": "0x175a077",
          "transactionHash": "0x32cfd7b23ffafe1771357951a82f8ab983cd5b87542f9dd16680d10a50898703",
          "transactionIndex": "0x0",
          "logIndex": "0x0",
          "removed": false
        }
      ],
      "logsBloom": "0x00000000000000000000000000000000000000000000000000000000000000100000000000000000000000000000000002000000080000000000000000000000000000000000000000000008000000000000000000000000000000000000000000000020000000000000000000000000000000000000000000000010000000000000000000000000000000000000000000000000000000000800000000000000000000000000004000000000000000000000000000000000000000000000000000000002000000000000000000000000000000000000000000000000000000000000200000000000000000000000000000000000000400000000000000000200",
      "type": "0x2",
      "transactionHash": "0x32cfd7b23ffafe1771357951a82f8ab983cd5b87542f9dd16680d10a50898703",
      "transactionIndex": "0x0",
      "blockHash": "0x47c4888a69a85c109a3d0a463e4683698264296c81ce98f17988625eefd807c7",
      "blockNumber": "0x175a077",
      "gasUsed": "0x86be",
      "effectiveGasPrice": "0x41f0ab",
      "blobGasUsed": "0x0",
      "from": "0x0571235134dc15a00f02916987c2c16b5fc52e2a",
      "to": "0xc02aaa39b223fe8d0a0e5c4f27ead9083c756cc2",
      "contractAddress": null
    },
    {
      "status": "0x1",
      "cumulativeGasUsed": "0x7768f",
      "logs": [
        {
          "address": "0xc02aaa39b223fe8d0a0e5c4f27ead9083c756cc2",
          "topics": [
            "0x8c5be1e5ebec7d5bd14f71427d1e84f3dd0314c0f7b2291e5b200ac8c7c3b925",
            "0x000000000000000000000000dc7a67547addb28b8334ae9c046426ca87b35227",
            "0x00000000000000000000000087870bca3f3fd6335c3f4ce8392d69350b4fa4e2"
          ],
          "data": "0x0000000000000000000000000000000000000000000000000de0b6b3a7640000",
          "blockHash": "0x61263b31fad1aa9c7fd510aa90ac56ae29df089329a618d25015dbeffe11211e",
          "blockNumber": "0x175a078",
          "transactionHash": "0xa5c59f6f550e5c167f018a9215a23a7740319dc5852e92f0d2859e2d8ea1e10a",
          "transactionIndex": "0x0",
          "logIndex": "0x0",
          "removed": false
        },
        {
          "address": "0x87870bca3f3fd6335c3f4ce8392d69350b4fa4e2",
          "topics": [
            "0x804c9b842b2748a22bb64b345453a3de7ca54a6ca45ce00d415894979e22897a",
            "0x000000000000000000000000c02aaa39b223fe8d0a0e5c4f27ead9083c756cc2"
          ],
          "data": "0x000000000000000000000000000000000000000000114a7815b2597cc79b45840000000000000000000000000000000000000000000000000000000000000000000000000000000000000000000000000000000000159d3af1c977cd8be4ed660000000000000000000000000000000000000000036cee9d0dea06a0d6c7fd3b000000000000000000000000000000000000000003874aa5124376ebf2f7bf31",
          "blockHash": "0x61263b31fad1aa9c7fd510aa90ac56ae29df089329a618d25015dbeffe11211e",
          "blockNumber": "0x175a078",
          "transactionHash": "0xa5c59f6f550e5c167f018a9215a23a7740319dc5852e92f0d2859e2d8ea1e10a",
          "transactionIndex": "0x0",
          "logIndex": "0x1",
          "removed": false
        },
        {
          "address": "0xc02aaa39b223fe8d0a0e5c4f27ead9083c756cc2",
          "topics": [
            "0xddf252ad1be2c89b69c2b068fc378daa952ba7f163c4a11628f55a4df523b3ef",
            "0x000000000000000000000000dc7a67547addb28b8334ae9c046426ca87b35227",
            "0x0000000000000000000000004d5f47fa6a74757f35c14fd3a6ef8e3c9bc514e8"
          ],
          "data": "0x0000000000000000000000000000000000000000000000000de0b6b3a7640000",
          "blockHash": "0x61263b31fad1aa9c7fd510aa90ac56ae29df089329a618d25015dbeffe11211e",
          "blockNumber": "0x175a078",
          "transactionHash": "0xa5c59f6f550e5c167f018a9215a23a7740319dc5852e92f0d2859e2d8ea1e10a",
          "transactionIndex": "0x0",
          "logIndex": "0x2",
          "removed": false
        },
        {
          "address": "0x4d5f47fa6a74757f35c14fd3a6ef8e3c9bc514e8",
          "topics": [
            "0xddf252ad1be2c89b69c2b068fc378daa952ba7f163c4a11628f55a4df523b3ef",
            "0x0000000000000000000000000000000000000000000000000000000000000000",
            "0x000000000000000000000000dc7a67547addb28b8334ae9c046426ca87b35227"
          ],
          "data": "0x0000000000000000000000000000000000000000000000000de14423f5847365",
          "blockHash": "0x61263b31fad1aa9c7fd510aa90ac56ae29df089329a618d25015dbeffe11211e",
          "blockNumber": "0x175a078",
          "transactionHash": "0xa5c59f6f550e5c167f018a9215a23a7740319dc5852e92f0d2859e2d8ea1e10a",
          "transactionIndex": "0x0",
          "logIndex": "0x3",
          "removed": false
        },
        {
          "address": "0x4d5f47fa6a74757f35c14fd3a6ef8e3c9bc514e8",
          "topics": [
            "0x458f5fa412d0f69b08dd84872b0215675cc67bc1d5b6fd93300a1c3878b86196",
            "0x000000000000000000000000dc7a67547addb28b8334ae9c046426ca87b35227",
            "0x000000000000000000000000dc7a67547addb28b8334ae9c046426ca87b35227"
          ],
          "data": "0x0000000000000000000000000000000000000000000000000de14423f584736500000000000000000000000000000000000000000000000000008d704e2073660000000000000000000000000000000000000000036cee9d0dea06a0d6c7fd3b",
          "blockHash": "0x61263b31fad1aa9c7fd510aa90ac56ae29df089329a618d25015dbeffe11211e",
          "blockNumber": "0x175a078",
          "transactionHash": "0xa5c59f6f550e5c167f018a9215a23a7740319dc5852e92f0d2859e2d8ea1e10a",
          "transactionIndex": "0x0",
          "logIndex": "0x4",
          "removed": false
        },
        {
          "address": "0x87870bca3f3fd6335c3f4ce8392d69350b4fa4e2",
          "topics": [
            "0x2b627736bca15cd5381dcf80b0bf11fd197d01a037c52b927a881a10fb73ba61",
            "0x000000000000000000000000c02aaa39b223fe8d0a0e5c4f27ead9083c756cc2",
            "0x000000000000000000000000dc7a67547addb28b8334ae9c046426ca87b35227",
            "0x0000000000000000000000000000000000000000000000000000000000000000"
          ],
          "data": "0x000000000000000000000000dc7a67547addb28b8334ae9c046426ca87b352270000000000000000000000000000000000000000000000000de0b6b3a7640000",
          "blockHash": "0x61263b31fad1aa9c7fd510aa90ac56ae29df089329a618d25015dbeffe11211e",
          "blockNumber": "0x175a078",
          "transactionHash": "0xa5c59f6f550e5c167f018a9215a23a7740319dc5852e92f0d2859e2d8ea1e10a",
          "transactionIndex": "0x0",
          "logIndex": "0x5",
          "removed": false
        },
        {
          "address": "0xdc7a67547addb28b8334ae9c046426ca87b35227",
          "topics": [
            "0xef9ac81aa0cc398e95ba8022c163414dc6550427f9ea7f6b40f7ef56321ad556",
            "0x000000000000000000000000c02aaa39b223fe8d0a0e5c4f27ead9083c756cc2",
            "0x000000000000000000000000dc7a67547addb28b8334ae9c046426ca87b35227"
          ],
          "data": "0x0000000000000000000000000000000000000000000000000de0b6b3a7640000",
          "blockHash": "0x61263b31fad1aa9c7fd510aa90ac56ae29df089329a618d25015dbeffe11211e",
          "blockNumber": "0x175a078",
          "transactionHash": "0xa5c59f6f550e5c167f018a9215a23a7740319dc5852e92f0d2859e2d8ea1e10a",
          "transactionIndex": "0x0",
          "logIndex": "0x6",
          "removed": false
        },
        {
          "address": "0x72e95b8931767c79ba4eee721354d6e99a61d004",
          "topics": [
            "0xddf252ad1be2c89b69c2b068fc378daa952ba7f163c4a11628f55a4df523b3ef",
            "0x0000000000000000000000000000000000000000000000000000000000000000",
            "0x000000000000000000000000dc7a67547addb28b8334ae9c046426ca87b35227"
          ],
          "data": "0x000000000000000000000000000000000000000000000000000000003b9f0c1f",
          "blockHash": "0x61263b31fad1aa9c7fd510aa90ac56ae29df089329a618d25015dbeffe11211e",
          "blockNumber": "0x175a078",
          "transactionHash": "0xa5c59f6f550e5c167f018a9215a23a7740319dc5852e92f0d2859e2d8ea1e10a",
          "transactionIndex": "0x0",
          "logIndex": "0x7",
          "removed": false
        },
        {
          "address": "0x72e95b8931767c79ba4eee721354d6e99a61d004",
          "topics": [
            "0x458f5fa412d0f69b08dd84872b0215675cc67bc1d5b6fd93300a1c3878b86196",
            "0x000000000000000000000000dc7a67547addb28b8334ae9c046426ca87b35227",
            "0x000000000000000000000000dc7a67547addb28b8334ae9c046426ca87b35227"
          ],
          "data": "0x000000000000000000000000000000000000000000000000000000003b9f0c1f000000000000000000000000000000000000000000000000000000000004421e000000000000000000000000000000000000000003f06314ffc03cfc52b3dd81",
          "blockHash": "0x61263b31fad1aa9c7fd510aa90ac56ae29df089329a618d25015dbeffe11211e",
          "blockNumber": "0x175a078",
          "transactionHash": "0xa5c59f6f550e5c167f018a9215a23a7740319dc5852e92f0d2859e2d8ea1e10a",
          "transactionIndex": "0x0",
          "logIndex": "0x8",
          "removed": false
        },
        {
          "address": "0x87870bca3f3fd6335c3f4ce8392d69350b4fa4e2",
          "topics": [
            "0x804c9b842b2748a22bb64b345453a3de7ca54a6ca45ce00d415894979e22897a",
            "0x000000000000000000000000a0b86991c6218b36c1d19d4a2e9eb0ce3606eb48"
          ],
          "data": "0x00000000000000000000000000000000000000000013400a40ec5af2328a5ca100000000000000000000000000000000000000000000000000000000000000000000000000000000000000000000000000000000001f02585406067ff7f4a7dc000000000000000000000000000000000000000003c20f62fb476b46fa7fc860000000000000000000000000000000000000000003f06314ffc03cfc52b3dd81",
          "blockHash": "0x61263b31fad1aa9c7fd510aa90ac56ae29df089329a618d25015dbeffe11211e",
          "blockNumber": "0x175a078",
          "transactionHash": "0xa5c59f6f550e5c167f018a9215a23a7740319dc5852e92f0d2859e2d8ea1e10a",
          "transactionIndex": "0x0",
          "logIndex": "0x9",
          "removed": false
        },
        {
          "address": "0xa0b86991c6218b36c1d19d4a2e9eb0ce3606eb48",
          "topics": [
            "0xddf252ad1be2c89b69c2b068fc378daa952ba7f163c4a11628f55a4df523b3ef",
            "0x00000000000000000000000098c23e9d8f34fefb1b7bd6a91b7ff122f4e16f5c",
            "0x000000000000000000000000dc7a67547addb28b8334ae9c046426ca87b35227"
          ],
          "data": "0x000000000000000000000000000000000000000000000000000000003b9aca00",
          "blockHash": "0x61263b31fad1aa9c7fd510aa90ac56ae29df089329a618d25015dbeffe11211e",
          "blockNumber": "0x175a078",
          "transactionHash": "0xa5c59f6f550e5c167f018a9215a23a7740319dc5852e92f0d2859e2d8ea1e10a",
          "transactionIndex": "0x0",
          "logIndex": "0xa",
          "removed": false
        },
        {
          "address": "0x87870bca3f3fd6335c3f4ce8392d69350b4fa4e2",
          "topics": [
            "0xb3d084820fb1a9decffb176436bd02558d15fac9b0ddfed8c465bc7359d7dce0",
            "0x000000000000000000000000a0b86991c6218b36c1d19d4a2e9eb0ce3606eb48",
            "0x000000000000000000000000dc7a67547addb28b8334ae9c046426ca87b35227",
            "0x0000000000000000000000000000000000000000000000000000000000000000"
          ],
          "data": "0x000000000000000000000000dc7a67547addb28b8334ae9c046426ca87b35227000000000000000000000000000000000000000000000000000000003b9aca0000000000000000000000000000000000000000000000000000000000000000020000000000000000000000000000000000000000001f02585406067ff7f4a7dc",
          "blockHash": "0x61263b31fad1aa9c7fd510aa90ac56ae29df089329a618d25015dbeffe11211e",
          "blockNumber": "0x175a078",
          "transactionHash": "0xa5c59f6f550e5c167f018a9215a23a7740319dc5852e92f0d2859e2d8ea1e10a",
          "transactionIndex": "0x0",
          "logIndex": "0xb",
          "removed": false
        },
        {
          "address": "0xdc7a67547addb28b8334ae9c046426ca87b35227",
          "topics": [
            "0xe11c2c122834f2bf2bf3182f3ce8c4870133c7118230e08a175bcd1569a5a225",
            "0x000000000000000000000000a0b86991c6218b36c1d19d4a2e9eb0ce3606eb48",
            "0x000000000000000000000000dc7a67547addb28b8334ae9c046426ca87b35227"
          ],
          "data": "0x000000000000000000000000000000000000000000000000000000003b9aca00",
          "blockHash": "0x61263b31fad1aa9c7fd510aa90ac56ae29df089329a618d25015dbeffe11211e",
          "blockNumber": "0x175a078",
          "transactionHash": "0xa5c59f6f550e5c167f018a9215a23a7740319dc5852e92f0d2859e2d8ea1e10a",
          "transactionIndex": "0x0",
          "logIndex": "0xc",
          "removed": false
        },
        {
          "address": "0xa0b86991c6218b36c1d19d4a2e9eb0ce3606eb48",
          "topics": [
            "0x8c5be1e5ebec7d5bd14f71427d1e84f3dd0314c0f7b2291e5b200ac8c7c3b925",
            "0x000000000000000000000000dc7a67547addb28b8334ae9c046426ca87b35227",
            "0x000000000000000000000000e592427a0aece92de3edee1f18e0157c05861564"
          ],
          "data": "0x000000000000000000000000000000000000000000000000000000003b9aca00",
          "blockHash": "0x61263b31fad1aa9c7fd510aa90ac56ae29df089329a618d25015dbeffe11211e",
          "blockNumber": "0x175a078",
          "transactionHash": "0xa5c59f6f550e5c167f018a9215a23a7740319dc5852e92f0d2859e2d8ea1e10a",
          "transactionIndex": "0x0",
          "logIndex": "0xd",
          "removed": false
        },
        {
          "address": "0xc02aaa39b223fe8d0a0e5c4f27ead9083c756cc2",
          "topics": [
            "0xddf252ad1be2c89b69c2b068fc378daa952ba7f163c4a11628f55a4df523b3ef",
            "0x0000000000000000000000008ad599c3a0ff1de082011efddc58f1908eb6e6d8",
            "0x000000000000000000000000dc7a67547addb28b8334ae9c046426ca87b35227"
          ],
          "data": "0x00000000000000000000000000000000000000000000000007281dd7f1405814",
          "blockHash": "0x61263b31fad1aa9c7fd510aa90ac56ae29df089329a618d25015dbeffe11211e",
          "blockNumber": "0x175a078",
          "transactionHash": "0xa5c59f6f550e5c167f018a9215a23a7740319dc5852e92f0d2859e2d8ea1e10a",
          "transactionIndex": "0x0",
          "logIndex": "0xe",
          "removed": false
        },
        {
          "address": "0xa0b86991c6218b36c1d19d4a2e9eb0ce3606eb48",
          "topics": [
            "0xddf252ad1be2c89b69c2b068fc378daa952ba7f163c4a11628f55a4df523b3ef",
            "0x000000000000000000000000dc7a67547addb28b8334ae9c046426ca87b35227",
            "0x0000000000000000000000008ad599c3a0ff1de082011efddc58f1908eb6e6d8"
          ],
          "data": "0x000000000000000000000000000000000000000000000000000000003b9aca00",
          "blockHash": "0x61263b31fad1aa9c7fd510aa90ac56ae29df089329a618d25015dbeffe11211e",
          "blockNumber": "0x175a078",
          "transactionHash": "0xa5c59f6f550e5c167f018a9215a23a7740319dc5852e92f0d2859e2d8ea1e10a",
          "transactionIndex": "0x0",
          "logIndex": "0xf",
          "removed": false
        },
        {
          "address": "0x8ad599c3a0ff1de082011efddc58f1908eb6e6d8",
          "topics": [
            "0xc42079f94a6350d7e6235f29174924f928cc2ac818eb64fed8004e115fbcca67",
            "0x000000000000000000000000e592427a0aece92de3edee1f18e0157c05861564",
            "0x000000000000000000000000dc7a67547addb28b8334ae9c046426ca87b35227"
          ],
          "data": "0x000000000000000000000000000000000000000000000000000000003b9aca00fffffffffffffffffffffffffffffffffffffffffffffffff8d7e2280ebfa7ec00000000000000000000000000000000000058d6c3fb2f892cc777facdc0d2130000000000000000000000000000000000000000000000000c36d01973fc71a70000000000000000000000000000000000000000000000000000000000030fca",
          "blockHash": "0x61263b31fad1aa9c7fd510aa90ac56ae29df089329a618d25015dbeffe11211e",
          "blockNumber": "0x175a078",
          "transactionHash": "0xa5c59f6f550e5c167f018a9215a23a7740319dc5852e92f0d2859e2d8ea1e10a",
          "transactionIndex": "0x0",
          "logIndex": "0x10",
          "removed": false
        },
        {
          "address": "0xdc7a67547addb28b8334ae9c046426ca87b35227",
          "topics": [
            "0x86aa7c88922dc2cd6c72c1d0ca9d4cb3e6ff4acd04b394f07fc1e6997aa06fc8",
            "0x000000000000000000000000a0b86991c6218b36c1d19d4a2e9eb0ce3606eb48",
            "0x000000000000000000000000c02aaa39b223fe8d0a0e5c4f27ead9083c756cc2"
          ],
          "data": "0x0000000000000000000000000000000000000000000000000000000000000000000000000000000000000000000000000000000000000000000000003b9aca0000000000000000000000000000000000000000000000000007281dd7f1405814",
          "blockHash": "0x61263b31fad1aa9c7fd510aa90ac56ae29df089329a618d25015dbeffe11211e",
          "blockNumber": "0x175a078",
          "transactionHash": "0xa5c59f6f550e5c167f018a9215a23a7740319dc5852e92f0d2859e2d8ea1e10a",
          "transactionIndex": "0x0",
          "logIndex": "0x11",
          "removed": false
        },
        {
          "address": "0xc02aaa39b223fe8d0a0e5c4f27ead9083c756cc2",
          "topics": [
            "0x8c5be1e5ebec7d5bd14f71427d1e84f3dd0314c0f7b2291e5b200ac8c7c3b925",
            "0x000000000000000000000000dc7a67547addb28b8334ae9c046426ca87b35227",
            "0x000000000000000000000000ef1c6e67703c7bd7107eed8303fbe6ec2554bf6b"
          ],
          "data": "0x00000000000000000000000000000000000000000000000007281dd7f1405814",
          "blockHash": "0x61263b31fad1aa9c7fd510aa90ac56ae29df089329a618d25015dbeffe11211e",
          "blockNumber": "0x175a078",
          "transactionHash": "0xa5c59f6f550e5c167f018a9215a23a7740319dc5852e92f0d2859e2d8ea1e10a",
          "transactionIndex": "0x0",
          "logIndex": "0x12",
          "removed": false
        },
        {
          "address": "0xdc7a67547addb28b8334ae9c046426ca87b35227",
          "topics": [
            "0x49641bd1d975c93ae80b9e44bee888daf735c37fb92a79f7a8a355d8ea54afd1",
            "0x0000000000000000000000000000000000000000000000000000000000000000",
            "0x0000000000000000000000000571235134dc15a00f02916987c2c16b5fc52e2a"
          ],
          "data": "0x",
          "blockHash": "0x61263b31fad1aa9c7fd510aa90ac56ae29df089329a618d25015dbeffe11211e",
          "blockNumber": "0x175a078",
          "transactionHash": "0xa5c59f6f550e5c167f018a9215a23a7740319dc5852e92f0d2859e2d8ea1e10a",
          "transactionIndex": "0x0",
          "logIndex": "0x13",
          "removed": false
        },
        {
          "address": "0xdc7a67547addb28b8334ae9c046426ca87b35227",
          "topics": [
            "0x468f9fcb93c235c4a355ece29880da8a8940637230afaedf6c8504f14aa89616",
            "0x0000000000000000000000000000000000000000000000000000000000000001",
            "0x0000000000000000000000000571235134dc15a00f02916987c2c16b5fc52e2a",
            "0x0000000000000000000000000571235134dc15a00f02916987c2c16b5fc52e2a"
          ],
          "data": "0x",
          "blockHash": "0x61263b31fad1aa9c7fd510aa90ac56ae29df089329a618d25015dbeffe11211e",
          "blockNumber": "0x175a078",
          "transactionHash": "0xa5c59f6f550e5c167f018a9215a23a7740319dc5852e92f0d2859e2d8ea1e10a",
          "transactionIndex": "0x0",
          "logIndex": "0x14",
          "removed": false
        }
      ],
      "logsBloom": "0x00000022400000000000000000800000000000000000000002001000000800121800001000000000000002000004000002000000080020000000100004240000000000000001001808000008000000800000000004040000000000040000000000800020020000000000100000000800000000000000800200000010000900080000000000000000000000402000000640000000010000020800000008000008020a0000000020400000000080000000000000000000080000000000000401000240000202000100800000204048000040002000000c040000000000000060000010200000000000000000010001000044050000000c00000000400080000200",
      "type": "0x2",
      "transactionHash": "0xa5c59f6f550e5c167f018a9215a23a7740319dc5852e92f0d2859e2d8ea1e10a",
      "transactionIndex": "0x0",
      "blockHash": "0x61263b31fad1aa9c7fd510aa90ac56ae29df089329a618d25015dbeffe11211e",
      "blockNumber": "0x175a078",
      "gasUsed": "0x7768f",
      "effectiveGasPrice": "0x41f0ab",
      "blobGasUsed": "0x0",
      "from": "0x0571235134dc15a00f02916987c2c16b5fc52e2a",
      "to": "0xdc7a67547addb28b8334ae9c046426ca87b35227",
      "contractAddress": null
    }
  ],
  "libraries": [],
  "pending": [],
  "returns": {},
  "timestamp": 1771854899,
  "chain": 1,
  "commit": "c0695e3"
}