{
  "transactions": [
    {
      "hash": "0xc2d44e9c81d9befd6717d47dff15101f6aad8ffe4b8339c8d20ce529d90745c3",
      "transactionType": "CALL",
      "contractName": null,
      "contractAddress": "0xc02aaa39b223fe8d0a0e5c4f27ead9083c756cc2",
      "function": "deposit()",
      "arguments": [],
      "transaction": {
        "from": "0x0571235134dc15a00f02916987c2c16b5fc52e2a",
        "to": "0xc02aaa39b223fe8d0a0e5c4f27ead9083c756cc2",
        "gas": "0x9f9b",
        "value": "0xde0b6b3a7640000",
        "input": "0xd0e30db0",
        "nonce": "0x21",
        "chainId": "0x1"
      },
      "additionalContracts": [],
      "isFixedGasLimit": false
    },
    {
      "hash": "0x65383e181546e3a7815e9f504ea41392236c6a36ee3732a7b006a8e45afc602f",
      "transactionType": "CALL",
      "contractName": null,
      "contractAddress": "0xc02aaa39b223fe8d0a0e5c4f27ead9083c756cc2",
      "function": "transfer(address,uint256)",
      "arguments": [
        "0xa1cB52f2C0e3F2366A344C35ADeAfDfD3628ba01",
        "1000000000000000000"
      ],
      "transaction": {
        "from": "0x0571235134dc15a00f02916987c2c16b5fc52e2a",
        "to": "0xc02aaa39b223fe8d0a0e5c4f27ead9083c756cc2",
        "gas": "0x126bf",
        "value": "0x0",
        "input": "0xa9059cbb000000000000000000000000a1cb52f2c0e3f2366a344c35adeafdfd3628ba010000000000000000000000000000000000000000000000000de0b6b3a7640000",
        "nonce": "0x22",
        "chainId": "0x1"
      },
      "additionalContracts": [],
      "isFixedGasLimit": false
    },
    {
      "hash": "0xe6338356a88f5ad6dfa4831e0fe74e76c14736935364cb4baaee1a4cea910d8e",
      "transactionType": "CALL",
      "contractName": null,
      "contractAddress": "0xa1cb52f2c0e3f2366a344c35adeafdfd3628ba01",
      "function": "execute(uint8,(uint8,address,address,uint256,uint256,uint24,uint256,address,bytes)[])",
      "arguments": [
        "1",
        "[(0, 0xC02aaA39b223FE8D0A0e5C4F27eAD9083C756Cc2, 0x0000000000000000000000000000000000000000, 1000000000000000000, 0, 0, 0, 0x0571235134DC15a00f02916987C2c16b5fC52E2A, 0x), (0, 0xA0b86991c6218b36c1d19D4a2e9Eb0cE3606eB48, 0x0000000000000000000000000000000000000000, 1000000000, 0, 0, 0, 0x0571235134DC15a00f02916987C2c16b5fC52E2A, 0x), (0, 0xA0b86991c6218b36c1d19D4a2e9Eb0cE3606eB48, 0xC02aaA39b223FE8D0A0e5C4F27eAD9083C756Cc2, 0, 0, 3000, 0, 0x0571235134DC15a00f02916987C2c16b5fC52E2A, 0x)]"
      ],
      "transaction": {
        "from": "0x0571235134dc15a00f02916987c2c16b5fc52e2a",
        "to": "0xa1cb52f2c0e3f2366a344c35adeafdfd3628ba01",
        "gas": "0xb6a29",
        "value": "0x0",
        "input": "0x7b0e6120000000000000000000000000000000000000000000000000000000000000000100000000000000000000000000000000000000000000000000000000000000400000000000000000000000000000000000000000000000000000000000000003000000000000000000000000000000000000000000000000000000000000006000000000000000000000000000000000000000000000000000000000000001a000000000000000000000000000000000000000000000000000000000000002e00000000000000000000000000000000000000000000000000000000000000000000000000000000000000000c02aaa39b223fe8d0a0e5c4f27ead9083c756cc200000000000000000000000000000000000000000000000000000000000000000000000000000000000000000000000000000000000000000de0b6b3a76400000000000000000000000000000000000000000000000000000000000000000000000000000000000000000000000000000000000000000000000000000000000000000000000000000000000000000000000000000000000000000000000000000000000000000000000000000571235134dc15a00f02916987c2c16b5fc52e2a000000000000000000000000000000000000000000000000000000000000012000000000000000000000000000000000000000000000000000000000000000000000000000000000000000000000000000000000000000000000000000000000000000000000000000000000a0b86991c6218b36c1d19d4a2e9eb0ce3606eb480000000000000000000000000000000000000000000000000000000000000000000000000000000000000000000000000000000000000000000000003b9aca000000000000000000000000000000000000000000000000000000000000000000000000000000000000000000000000000000000000000000000000000000000000000000000000000000000000000000000000000000000000000000000000000000000000000000000000000571235134dc15a00f02916987c2c16b5fc52e2a000000000000000000000000000000000000000000000000000000000000012000000000000000000000000000000000000000000000000000000000000000000000000000000000000000000000000000000000000000000000000000000000000000000000000000000000a0b86991c6218b36c1d19d4a2e9eb0ce3606eb48000000000000000000000000c02aaa39b223fe8d0a0e5c4f27ead9083c756cc2000000000000000000000000000000000000000000000000000000000000000000000000000000000000000000000000000000000000000000000000000000000000000000000000000000000000000000000000000000000000000000000bb800000000000000000000000000000000000000000000000000000000000000000000000000000000000000000571235134dc15a00f02916987c2c16b5fc52e2a00000000000000000000000000000000000000000000000000000000000001200000000000000000000000000000000000000000000000000000000000000000",
        "nonce": "0x23",
        "chainId": "0x1"
      },
      "additionalContracts": [],
      "isFixedGasLimit": false
    }
  ],
  "receipts": [
    {
      "status": "0x1",
      "cumulativeGasUsed": "0x6d22",
      "logs": [
        {
          "address": "0xc02aaa39b223fe8d0a0e5c4f27ead9083c756cc2",
          "topics": [
            "0xe1fffcc4923d04b559f4d29a8bfc6cda04eb5b0d3c460751c2402c5c5cc9109c",
            "0x0000000000000000000000000571235134dc15a00f02916987c2c16b5fc52e2a"
          ],
          "data": "0x0000000000000000000000000000000000000000000000000de0b6b3a7640000",
          "blockHash": "0x52672b65f79f8da060ee76502dae244e2df74190d4cfcf434b57024068b6c4ae",
          "blockNumber": "0x175a07a",
          "transactionHash": "0xc2d44e9c81d9befd6717d47dff15101f6aad8ffe4b8339c8d20ce529d90745c3",
          "transactionIndex": "0x0",
          "logIndex": "0x0",
          "removed": false
        }
      ],
      "logsBloom": "0x00000000000000000000000000000000000000000000000000000000000000000000000000000000000000000000000002000000080000000000000000000000000000000000000000000000000000000000000000000000000000008000000000000020000000000000000000000000000000000000000000000000000000000000000000000000000000000000000000000001000000000000000000000000000000000000004000000000000000000000000000000000000000000000000000000000000000000000000000000000000000000000000000000000000000000000200000000000000000000000000000000000000400400000000000000000",
      "type": "0x2",
      "transactionHash": "0xc2d44e9c81d9befd6717d47dff15101f6aad8ffe4b8339c8d20ce529d90745c3",
      "transactionIndex": "0x0",
      "blockHash": "0x52672b65f79f8da060ee76502dae244e2df74190d4cfcf434b57024068b6c4ae",
      "blockNumber": "0x175a07a",
      "gasUsed": "0x6d22",
      "effectiveGasPrice": "0x41f0ab",
      "blobGasUsed": "0x0",
      "from": "0x0571235134dc15a00f02916987c2c16b5fc52e2a",
      "to": "0xc02aaa39b223fe8d0a0e5c4f27ead9083c756cc2",
      "contractAddress": null
    },
    {
      "status": "0x1",
      "cumulativeGasUsed": "0xc98a",
      "logs": [
        {
          "address": "0xc02aaa39b223fe8d0a0e5c4f27ead9083c756cc2",
          "topics": [
            "0xddf252ad1be2c89b69c2b068fc378daa952ba7f163c4a11628f55a4df523b3ef",
            "0x0000000000000000000000000571235134dc15a00f02916987c2c16b5fc52e2a",
            "0x000000000000000000000000a1cb52f2c0e3f2366a344c35adeafdfd3628ba01"
          ],
          "data": "0x0000000000000000000000000000000000000000000000000de0b6b3a7640000",
          "blockHash": "0xad36266fc5c9228aee254626123cef4a992fe756148beb3a683c580d82781b6d",
          "blockNumber": "0x175a07b",
          "transactionHash": "0x65383e181546e3a7815e9f504ea41392236c6a36ee3732a7b006a8e45afc602f",
          "transactionIndex": "0x0",
          "logIndex": "0x0",
          "removed": false
        }
      ],
      "logsBloom": "0x00000000000000000000000000000000000000001000000000000000000000000000000000000000000000000000000002000000080000000000000000000000000000000000000000000008000000000000000000000000000000800000000000000020000000000000000000000000000000000000000000010010000000000000000000000000000000000000000000000000000000000000000000000000000000000000004000000000000000000000000000000000000000000000000000000002000000000000000000000000000000000000000000000000000000000000200000000000000000000000000000000000000400000000000000000000",
      "type": "0x2",
      "transactionHash": "0x65383e181546e3a7815e9f504ea41392236c6a36ee3732a7b006a8e45afc602f",
      "transactionIndex": "0x0",
      "blockHash": "0xad36266fc5c9228aee254626123cef4a992fe756148beb3a683c580d82781b6d",
      "blockNumber": "0x175a07b",
      "gasUsed": "0xc98a",
      "effectiveGasPrice": "0x41f0ab",
      "blobGasUsed": "0x0",
      "from": "0x0571235134dc15a00f02916987c2c16b5fc52e2a",
      "to": "0xc02aaa39b223fe8d0a0e5c4f27ead9083c756cc2",
      "contractAddress": null
    },
    {
      "status": "0x1",
      "cumulativeGasUsed": "0x84398",
      "logs": [
        {
          "address": "0xc02aaa39b223fe8d0a0e5c4f27ead9083c756cc2",
          "topics": [
            "0x8c5be1e5ebec7d5bd14f71427d1e84f3dd0314c0f7b2291e5b200ac8c7c3b925",
            "0x000000000000000000000000a1cb52f2c0e3f2366a344c35adeafdfd3628ba01",
            "0x00000000000000000000000087870bca3f3fd6335c3f4ce8392d69350b4fa4e2"
          ],
          "data": "0x0000000000000000000000000000000000000000000000000de0b6b3a7640000",
          "blockHash": "0xb3692561b5e91f06c466e71e980b85594fcdc2aa4b8fa7fbe29a0f446ce0642a",
          "blockNumber": "0x175a07c",
          "transactionHash": "0xe6338356a88f5ad6dfa4831e0fe74e76c14736935364cb4baaee1a4cea910d8e",
          "transactionIndex": "0x0",
          "logIndex": "0x0",
          "removed": false
        },
        {
          "address": "0x87870bca3f3fd6335c3f4ce8392d69350b4fa4e2",
          "topics": [
            "0x804c9b842b2748a22bb64b345453a3de7ca54a6ca45ce00d415894979e22897a",
            "0x000000000000000000000000c02aaa39b223fe8d0a0e5c4f27ead9083c756cc2"
          ],
          "data": "0x000000000000000000000000000000000000000000114ab86451951869e339490000000000000000000000000000000000000000000000000000000000000000000000000000000000000000000000000000000000159d89c7a18c1c9515a2cd0000000000000000000000000000000000000000036cf30165f83a8c95600ec900000000000000000000000000000000000000000387504ccd595a1b0ce21817",
          "blockHash": "0xb3692561b5e91f06c466e71e980b85594fcdc2aa4b8fa7fbe29a0f446ce0642a",
          "blockNumber": "0x175a07c",
          "transactionHash": "0xe6338356a88f5ad6dfa4831e0fe74e76c14736935364cb4baaee1a4cea910d8e",
          "transactionIndex": "0x0",
          "logIndex": "0x1",
          "removed": false
        },
        {
          "address": "0xc02aaa39b223fe8d0a0e5c4f27ead9083c756cc2",
          "topics": [
            "0xddf252ad1be2c89b69c2b068fc378daa952ba7f163c4a11628f55a4df523b3ef",
            "0x000000000000000000000000a1cb52f2c0e3f2366a344c35adeafdfd3628ba01",
            "0x0000000000000000000000004d5f47fa6a74757f35c14fd3a6ef8e3c9bc514e8"
          ],
          "data": "0x0000000000000000000000000000000000000000000000000de0b6b3a7640000",
          "blockHash": "0xb3692561b5e91f06c466e71e980b85594fcdc2aa4b8fa7fbe29a0f446ce0642a",
          "blockNumber": "0x175a07c",
          "transactionHash": "0xe6338356a88f5ad6dfa4831e0fe74e76c14736935364cb4baaee1a4cea910d8e",
          "transactionIndex": "0x0",
          "logIndex": "0x2",
          "removed": false
        },
        {
          "address": "0x4d5f47fa6a74757f35c14fd3a6ef8e3c9bc514e8",
          "topics": [
            "0xddf252ad1be2c89b69c2b068fc378daa952ba7f163c4a11628f55a4df523b3ef",
            "0x0000000000000000000000000000000000000000000000000000000000000000",
            "0x000000000000000000000000a1cb52f2c0e3f2366a344c35adeafdfd3628ba01"
          ],
          "data": "0x0000000000000000000000000000000000000000000000000de0b6b3a763ffff",
          "blockHash": "0xb3692561b5e91f06c466e71e980b85594fcdc2aa4b8fa7fbe29a0f446ce0642a",
          "blockNumber": "0x175a07c",
          "transactionHash": "0xe6338356a88f5ad6dfa4831e0fe74e76c14736935364cb4baaee1a4cea910d8e",
          "transactionIndex": "0x0",
          "logIndex": "0x3",
          "removed": false
        },
        {
          "address": "0x4d5f47fa6a74757f35c14fd3a6ef8e3c9bc514e8",
          "topics": [
            "0x458f5fa412d0f69b08dd84872b0215675cc67bc1d5b6fd93300a1c3878b86196",
            "0x000000000000000000000000a1cb52f2c0e3f2366a344c35adeafdfd3628ba01",
            "0x000000000000000000000000a1cb52f2c0e3f2366a344c35adeafdfd3628ba01"
          ],
          "data": "0x0000000000000000000000000000000000000000000000000de0b6b3a763ffff00000000000000000000000000000000000000000000000000000000000000000000000000000000000000000000000000000000036cf30165f83a8c95600ec9",
          "blockHash": "0xb3692561b5e91f06c466e71e980b85594fcdc2aa4b8fa7fbe29a0f446ce0642a",
          "blockNumber": "0x175a07c",
          "transactionHash": "0xe6338356a88f5ad6dfa4831e0fe74e76c14736935364cb4baaee1a4cea910d8e",
          "transactionIndex": "0x0",
          "logIndex": "0x4",
          "removed": false
        },
        {
          "address": "0x87870bca3f3fd6335c3f4ce8392d69350b4fa4e2",
          "topics": [
            "0x00058a56ea94653cdf4f152d227ace22d4c00ad99e2a43f58cb7d9e3feb295f2",
            "0x000000000000000000000000c02aaa39b223fe8d0a0e5c4f27ead9083c756cc2",
            "0x000000000000000000000000a1cb52f2c0e3f2366a344c35adeafdfd3628ba01"
          ],
          "data": "0x",
          "blockHash": "0xb3692561b5e91f06c466e71e980b85594fcdc2aa4b8fa7fbe29a0f446ce0642a",
          "blockNumber": "0x175a07c",
          "transactionHash": "0xe6338356a88f5ad6dfa4831e0fe74e76c14736935364cb4baaee1a4cea910d8e",
          "transactionIndex": "0x0",
          "logIndex": "0x5",
          "removed": false
        },
        {
          "address": "0x87870bca3f3fd6335c3f4ce8392d69350b4fa4e2",
          "topics": [
            "0x2b627736bca15cd5381dcf80b0bf11fd197d01a037c52b927a881a10fb73ba61",
            "0x000000000000000000000000c02aaa39b223fe8d0a0e5c4f27ead9083c756cc2",
            "0x000000000000000000000000a1cb52f2c0e3f2366a344c35adeafdfd3628ba01",
            "0x0000000000000000000000000000000000000000000000000000000000000000"
          ],
          "data": "0x000000000000000000000000a1cb52f2c0e3f2366a344c35adeafdfd3628ba010000000000000000000000000000000000000000000000000de0b6b3a7640000",
          "blockHash": "0xb3692561b5e91f06c466e71e980b85594fcdc2aa4b8fa7fbe29a0f446ce0642a",
          "blockNumber": "0x175a07c",
          "transactionHash": "0xe6338356a88f5ad6dfa4831e0fe74e76c14736935364cb4baaee1a4cea910d8e",
          "transactionIndex": "0x0",
          "logIndex": "0x6",
          "removed": false
        },
        {
          "address": "0xa1cb52f2c0e3f2366a344c35adeafdfd3628ba01",
          "topics": [
            "0xef9ac81aa0cc398e95ba8022c163414dc6550427f9ea7f6b40f7ef56321ad556",
            "0x000000000000000000000000c02aaa39b223fe8d0a0e5c4f27ead9083c756cc2",
            "0x000000000000000000000000a1cb52f2c0e3f2366a344c35adeafdfd3628ba01"
          ],
          "data": "0x0000000000000000000000000000000000000000000000000de0b6b3a7640000",
          "blockHash": "0xb3692561b5e91f06c466e71e980b85594fcdc2aa4b8fa7fbe29a0f446ce0642a",
          "blockNumber": "0x175a07c",
          "transactionHash": "0xe6338356a88f5ad6dfa4831e0fe74e76c14736935364cb4baaee1a4cea910d8e",
          "transactionIndex": "0x0",
          "logIndex": "0x7",
          "removed": false
        },
        {
          "address": "0x72e95b8931767c79ba4eee721354d6e99a61d004",
          "topics": [
            "0xddf252ad1be2c89b69c2b068fc378daa952ba7f163c4a11628f55a4df523b3ef",
            "0x0000000000000000000000000000000000000000000000000000000000000000",
            "0x000000000000000000000000a1cb52f2c0e3f2366a344c35adeafdfd3628ba01"
          ],
          "data": "0x000000000000000000000000000000000000000000000000000000003b9aca01",
          "blockHash": "0xb3692561b5e91f06c466e71e980b85594fcdc2aa4b8fa7fbe29a0f446ce0642a",
          "blockNumber": "0x175a07c",
          "transactionHash": "0xe6338356a88f5ad6dfa4831e0fe74e76c14736935364cb4baaee1a4cea910d8e",
          "transactionIndex": "0x0",
          "logIndex": "0x8",
          "removed": false
        },
        {
          "address": "0x72e95b8931767c79ba4eee721354d6e99a61d004",
          "topics": [
            "0x458f5fa412d0f69b08dd84872b0215675cc67bc1d5b6fd93300a1c3878b86196",
            "0x000000000000000000000000a1cb52f2c0e3f2366a344c35adeafdfd3628ba01",
            "0x000000000000000000000000a1cb52f2c0e3f2366a344c35adeafdfd3628ba01"
          ],
          "data": "0x000000000000000000000000000000000000000000000000000000003b9aca010000000000000000000000000000000000000000000000000000000000000000000000000000000000000000000000000000000003f06c23ad98865b1a24fc8d",
          "blockHash": "0xb3692561b5e91f06c466e71e980b85594fcdc2aa4b8fa7fbe29a0f446ce0642a",
          "blockNumber": "0x175a07c",
          "transactionHash": "0xe6338356a88f5ad6dfa4831e0fe74e76c14736935364cb4baaee1a4cea910d8e",
          "transactionIndex": "0x0",
          "logIndex": "0x9",
          "removed": false
        },
        {
          "address": "0x87870bca3f3fd6335c3f4ce8392d69350b4fa4e2",
          "topics": [
            "0x804c9b842b2748a22bb64b345453a3de7ca54a6ca45ce00d415894979e22897a",
            "0x000000000000000000000000a0b86991c6218b36c1d19d4a2e9eb0ce3606eb48"
          ],
          "data": "0x000000000000000000000000000000000000000000134026a9099de32c84352a00000000000000000000000000000000000000000000000000000000000000000000000000000000000000000000000000000000001f026f350f0adc862f14c7000000000000000000000000000000000000000003c214c03d677c25af8718e6000000000000000000000000000000000000000003f06c23ad98865b1a24fc8d",
          "blockHash": "0xb3692561b5e91f06c466e71e980b85594fcdc2aa4b8fa7fbe29a0f446ce0642a",
          "blockNumber": "0x175a07c",
          "transactionHash": "0xe6338356a88f5ad6dfa4831e0fe74e76c14736935364cb4baaee1a4cea910d8e",
          "transactionIndex": "0x0",
          "logIndex": "0xa",
          "removed": false
        },
        {
          "address": "0xa0b86991c6218b36c1d19d4a2e9eb0ce3606eb48",
          "topics": [
            "0xddf252ad1be2c89b69c2b068fc378daa952ba7f163c4a11628f55a4df523b3ef",
            "0x00000000000000000000000098c23e9d8f34fefb1b7bd6a91b7ff122f4e16f5c",
            "0x000000000000000000000000a1cb52f2c0e3f2366a344c35adeafdfd3628ba01"
          ],
          "data": "0x000000000000000000000000000000000000000000000000000000003b9aca00",
          "blockHash": "0xb3692561b5e91f06c466e71e980b85594fcdc2aa4b8fa7fbe29a0f446ce0642a",
          "blockNumber": "0x175a07c",
          "transactionHash": "0xe6338356a88f5ad6dfa4831e0fe74e76c14736935364cb4baaee1a4cea910d8e",
          "transactionIndex": "0x0",
          "logIndex": "0xb",
          "removed": false
        },
        {
          "address": "0x87870bca3f3fd6335c3f4ce8392d69350b4fa4e2",
          "topics": [
            "0xb3d084820fb1a9decffb176436bd02558d15fac9b0ddfed8c465bc7359d7dce0",
            "0x000000000000000000000000a0b86991c6218b36c1d19d4a2e9eb0ce3606eb48",
            "0x000000000000000000000000a1cb52f2c0e3f2366a344c35adeafdfd3628ba01",
            "0x0000000000000000000000000000000000000000000000000000000000000000"
          ],
          "data": "0x000000000000000000000000a1cb52f2c0e3f2366a344c35adeafdfd3628ba01000000000000000000000000000000000000000000000000000000003b9aca0000000000000000000000000000000000000000000000000000000000000000020000000000000000000000000000000000000000001f026f350f0adc862f14c7",
          "blockHash": "0xb3692561b5e91f06c466e71e980b85594fcdc2aa4b8fa7fbe29a0f446ce0642a",
          "blockNumber": "0x175a07c",
          "transactionHash": "0xe6338356a88f5ad6dfa4831e0fe74e76c14736935364cb4baaee1a4cea910d8e",
          "transactionIndex": "0x0",
          "logIndex": "0xc",
          "removed": false
        },
        {
          "address": "0xa1cb52f2c0e3f2366a344c35adeafdfd3628ba01",
          "topics": [
            "0xe11c2c122834f2bf2bf3182f3ce8c4870133c7118230e08a175bcd1569a5a225",
            "0x000000000000000000000000a0b86991c6218b36c1d19d4a2e9eb0ce3606eb48",
            "0x000000000000000000000000a1cb52f2c0e3f2366a344c35adeafdfd3628ba01"
          ],
          "data": "0x000000000000000000000000000000000000000000000000000000003b9aca00",
          "blockHash": "0xb3692561b5e91f06c466e71e980b85594fcdc2aa4b8fa7fbe29a0f446ce0642a",
          "blockNumber": "0x175a07c",
          "transactionHash": "0xe6338356a88f5ad6dfa4831e0fe74e76c14736935364cb4baaee1a4cea910d8e",
          "transactionIndex": "0x0",
          "logIndex": "0xd",
          "removed": false
        },
        {
          "address": "0xa0b86991c6218b36c1d19d4a2e9eb0ce3606eb48",
          "topics": [
            "0x8c5be1e5ebec7d5bd14f71427d1e84f3dd0314c0f7b2291e5b200ac8c7c3b925",
            "0x000000000000000000000000a1cb52f2c0e3f2366a344c35adeafdfd3628ba01",
            "0x000000000000000000000000e592427a0aece92de3edee1f18e0157c05861564"
          ],
          "data": "0x000000000000000000000000000000000000000000000000000000003b9aca00",
          "blockHash": "0xb3692561b5e91f06c466e71e980b85594fcdc2aa4b8fa7fbe29a0f446ce0642a",
          "blockNumber": "0x175a07c",
          "transactionHash": "0xe6338356a88f5ad6dfa4831e0fe74e76c14736935364cb4baaee1a4cea910d8e",
          "transactionIndex": "0x0",
          "logIndex": "0xe",
          "removed": false
        },
        {
          "address": "0xc02aaa39b223fe8d0a0e5c4f27ead9083c756cc2",
          "topics": [
            "0xddf252ad1be2c89b69c2b068fc378daa952ba7f163c4a11628f55a4df523b3ef",
            "0x0000000000000000000000008ad599c3a0ff1de082011efddc58f1908eb6e6d8",
            "0x000000000000000000000000a1cb52f2c0e3f2366a344c35adeafdfd3628ba01"
          ],
          "data": "0x000000000000000000000000000000000000000000000000072805ad6439c313",
          "blockHash": "0xb3692561b5e91f06c466e71e980b85594fcdc2aa4b8fa7fbe29a0f446ce0642a",
          "blockNumber": "0x175a07c",
          "transactionHash": "0xe6338356a88f5ad6dfa4831e0fe74e76c14736935364cb4baaee1a4cea910d8e",
          "transactionIndex": "0x0",
          "logIndex": "0xf",
          "removed": false
        },
        {
          "address": "0xa0b86991c6218b36c1d19d4a2e9eb0ce3606eb48",
          "topics": [
            "0xddf252ad1be2c89b69c2b068fc378daa952ba7f163c4a11628f55a4df523b3ef",
            "0x000000000000000000000000a1cb52f2c0e3f2366a344c35adeafdfd3628ba01",
            "0x0000000000000000000000008ad599c3a0ff1de082011efddc58f1908eb6e6d8"
          ],
          "data": "0x000000000000000000000000000000000000000000000000000000003b9aca00",
          "blockHash": "0xb3692561b5e91f06c466e71e980b85594fcdc2aa4b8fa7fbe29a0f446ce0642a",
          "blockNumber": "0x175a07c",
          "transactionHash": "0xe6338356a88f5ad6dfa4831e0fe74e76c14736935364cb4baaee1a4cea910d8e",
          "transactionIndex": "0x0",
          "logIndex": "0x10",
          "removed": false
        },
        {
          "address": "0x8ad599c3a0ff1de082011efddc58f1908eb6e6d8",
          "topics": [
            "0xc42079f94a6350d7e6235f29174924f928cc2ac818eb64fed8004e115fbcca67",
            "0x000000000000000000000000e592427a0aece92de3edee1f18e0157c05861564",
            "0x000000000000000000000000a1cb52f2c0e3f2366a344c35adeafdfd3628ba01"
          ],
          "data": "0x000000000000000000000000000000000000000000000000000000003b9aca00fffffffffffffffffffffffffffffffffffffffffffffffff8d7fa529bc63ced00000000000000000000000000000000000058d62dfd2beccbdf11dcc68212ce0000000000000000000000000000000000000000000000000c36d01973fc71a70000000000000000000000000000000000000000000000000000000000030fc9",
          "blockHash": "0xb3692561b5e91f06c466e71e980b85594fcdc2aa4b8fa7fbe29a0f446ce0642a",
          "blockNumber": "0x175a07c",
          "transactionHash": "0xe6338356a88f5ad6dfa4831e0fe74e76c14736935364cb4baaee1a4cea910d8e",
          "transactionIndex": "0x0",
          "logIndex": "0x11",
          "removed": false
        },
        {
          "address": "0xa1cb52f2c0e3f2366a344c35adeafdfd3628ba01",
          "topics": [
            "0x86aa7c88922dc2cd6c72c1d0ca9d4cb3e6ff4acd04b394f07fc1e6997aa06fc8",
            "0x000000000000000000000000a0b86991c6218b36c1d19d4a2e9eb0ce3606eb48",
            "0x000000000000000000000000c02aaa39b223fe8d0a0e5c4f27ead9083c756cc2"
          ],
          "data": "0x0000000000000000000000000000000000000000000000000000000000000000000000000000000000000000000000000000000000000000000000003b9aca00000000000000000000000000000000000000000000000000072805ad6439c313",
          "blockHash": "0xb3692561b5e91f06c466e71e980b85594fcdc2aa4b8fa7fbe29a0f446ce0642a",
          "blockNumber": "0x175a07c",
          "transactionHash": "0xe6338356a88f5ad6dfa4831e0fe74e76c14736935364cb4baaee1a4cea910d8e",
          "transactionIndex": "0x0",
          "logIndex": "0x12",
          "removed": false
        },
        {
          "address": "0xa1cb52f2c0e3f2366a344c35adeafdfd3628ba01",
          "topics": [
            "0x7634d6a0b03c99b5858171c830c3d12f085e56ed6bed3076491a5aa6ffa13537",
            "0x0000000000000000000000000571235134dc15a00f02916987c2c16b5fc52e2a"
          ],
          "data": "0x000000000000000000000000000000000000000000000000000000003b9aca00000000000000000000000000000000000000000000000000072805ad6439c313",
          "blockHash": "0xb3692561b5e91f06c466e71e980b85594fcdc2aa4b8fa7fbe29a0f446ce0642a",
          "blockNumber": "0x175a07c",
          "transactionHash": "0xe6338356a88f5ad6dfa4831e0fe74e76c14736935364cb4baaee1a4cea910d8e",
          "transactionIndex": "0x0",
          "logIndex": "0x13",
          "removed": false
        },
        {
          "address": "0xa1cb52f2c0e3f2366a344c35adeafdfd3628ba01",
          "topics": [
            "0x468f9fcb93c235c4a355ece29880da8a8940637230afaedf6c8504f14aa89616",
            "0x0000000000000000000000000000000000000000000000000000000000000001",
            "0x0000000000000000000000000571235134dc15a00f02916987c2c16b5fc52e2a",
            "0x0000000000000000000000000571235134dc15a00f02916987c2c16b5fc52e2a"
          ],
          "data": "0x",
          "blockHash": "0xb3692561b5e91f06c466e71e980b85594fcdc2aa4b8fa7fbe29a0f446ce0642a",
          "blockNumber": "0x175a07c",
          "transactionHash": "0xe6338356a88f5ad6dfa4831e0fe74e76c14736935364cb4baaee1a4cea910d8e",
          "transactionIndex": "0x0",
          "logIndex": "0x14",
          "removed": false
        }
      ],
      "logsBloom": "0x000000224000080000800000008000000000000010000000000010000008000218000010000000000000020000040000020000000c002000000010000424000000000000000100180800000800000080200000000404000000000084000000000000002002000000000010000000080000000000000080020001001000090008000000008000000000000040000000064000000001000002000000000004000802021000000020400000000080000000000000000000080000000000000401000240000200000100800000204048000000002000010c040000000000000060000010200000000000000000000001000044250000000c00000000400000000000",
      "type": "0x2",
      "transactionHash": "0xe6338356a88f5ad6dfa4831e0fe74e76c14736935364cb4baaee1a4cea910d8e",
      "transactionIndex": "0x0",
      "blockHash": "0xb3692561b5e91f06c466e71e980b85594fcdc2aa4b8fa7fbe29a0f446ce0642a",
      "blockNumber": "0x175a07c",
      "gasUsed": "0x84398",
      "effectiveGasPrice": "0x41f0ab",
      "blobGasUsed": "0x0",
      "from": "0x0571235134dc15a00f02916987c2c16b5fc52e2a",
      "to": "0xa1cb52f2c0e3f2366a344c35adeafdfd3628ba01",
      "contractAddress": null
    }
  ],
  "libraries": [],
  "pending": [],
  "returns": {},
  "timestamp": 1771884414,
  "chain": 1,
  "commit": "f073e1b"
}