{
  "transactions": [
    {
      "hash": "0xafeb79a06cbb597f99e7315cdeea4fea8748eb52d5b5ec0a65c5970d4e556f63",
      "transactionType": "CALL",
      "contractName": null,
      "contractAddress": "0x82af49447d8a07e3bd95bd0d56f35241523fbab1",
      "function": "deposit()",
      "arguments": [],
      "transaction": {
        "from": "0x0571235134dc15a00f02916987c2c16b5fc52e2a",
        "to": "0x82af49447d8a07e3bd95bd0d56f35241523fbab1",
        "gas": "0x12b09",
        "value": "0x8ac7230489e80000",
        "input": "0xd0e30db0",
        "nonce": "0x1a",
        "chainId": "0xa4b1"
      },
      "additionalContracts": [],
      "isFixedGasLimit": false
    },
    {
      "hash": "0x23f987dad953a8dbbedae78bbdb17996e900e58127aea252e9ac1f066c628d12",
      "transactionType": "CALL",
      "contractName": null,
      "contractAddress": "0x82af49447d8a07e3bd95bd0d56f35241523fbab1",
      "function": "transfer(address,uint256)",
      "arguments": [
        "0xD8ED7139fEef8775c8A6c9974Da8BB8DF22868c1",
        "10000000000000000000"
      ],
      "transaction": {
        "from": "0x0571235134dc15a00f02916987c2c16b5fc52e2a",
        "to": "0x82af49447d8a07e3bd95bd0d56f35241523fbab1",
        "gas": "0x1249b",
        "value": "0x0",
        "input": "0xa9059cbb000000000000000000000000d8ed7139feef8775c8a6c9974da8bb8df22868c10000000000000000000000000000000000000000000000008ac7230489e80000",
        "nonce": "0x1b",
        "chainId": "0xa4b1"
      },
      "additionalContracts": [],
      "isFixedGasLimit": false
    },
    {
      "hash": "0x7c7bf3527abd1689f426f3b85d4a3ea4270f39f11fe96faba0b5d746c137e14e",
      "transactionType": "CALL",
      "contractName": null,
      "contractAddress": "0xd8ed7139feef8775c8a6c9974da8bb8df22868c1",
      "function": "createLongOrder((address,uint256,address,uint256,((address,address,address,address,address,address,address[]),(uint256,uint256,uint256,uint256,uint256,uint256,uint256,uint256),uint8,uint8,bool,bool,bool,bytes32,bytes32[])))",
      "arguments": [
        "(0x31eF83a530Fde1B38EE9A18093A333D8Bbbc40D5, 1000000000000000, 0x82aF49447D8a07e3bd95BD0d56f35241523fBab1, 10000000000000000000, ((0x0571235134DC15a00f02916987C2c16b5fC52E2A, 0x0000000000000000000000000000000000000000, 0x0000000000000000000000000000000000000000, 0x0000000000000000000000000000000000000000, 0x70d95587d40A2caf56bd97485aB3Eec10Bee6336, 0x82aF49447D8a07e3bd95BD0d56f35241523fBab1, []), (1000000000000000000000000000000, 0, 4000000000000000000000000000000, 4000000000000000000000000000000, 1000000000000000, 0, 0, 0), 2, 0, true, false, false, 0x0000000000000000000000000000000000000000000000000000000000000000, []))"
      ],
      "transaction": {
        "from": "0x0571235134dc15a00f02916987c2c16b5fc52e2a",
        "to": "0xd8ed7139feef8775c8a6c9974da8bb8df22868c1",
        "gas": "0x143b22",
        "value": "0x38d7ea4c68000",
        "input": "0x85eeaf55000000000000000000000000000000000000000000000000000000000000002000000000000000000000000031ef83a530fde1b38ee9a18093a333d8bbbc40d500000000000000000000000000000000000000000000000000038d7ea4c6800000000000000000000000000082af49447d8a07e3bd95bd0d56f35241523fbab10000000000000000000000000000000000000000000000008ac7230489e8000000000000000000000000000000000000000000000000000000000000000000a00000000000000000000000000000000000000000000000000000000000000200000000000000000000000000000000000000000c9f2c9cd04674edea40000000000000000000000000000000000000000000000000000000000000000000000000000000000000000000000000000000000000327cb2734119d3b7a90000000000000000000000000000000000000000000000327cb2734119d3b7a90000000000000000000000000000000000000000000000000000000000038d7ea4c6800000000000000000000000000000000000000000000000000000000000000000000000000000000000000000000000000000000000000000000000000000000000000000000000000000000000000000000000000000000000000000000000000000000000000000000000000000000000000000000000000000000000000000020000000000000000000000000000000000000000000000000000000000000000000000000000000000000000000000000000000000000000000000000000000100000000000000000000000000000000000000000000000000000000000000000000000000000000000000000000000000000000000000000000000000000000000000000000000000000000000000000000000000000000000000000000000000000000000000000000000000000000000000000000000000000000000003000000000000000000000000000571235134dc15a00f02916987c2c16b5fc52e2a00000000000000000000000000000000000000000000000000000000000000000000000000000000000000000000000000000000000000000000000000000000000000000000000000000000000000000000000000000000000000000000000000000000000000000000000070d95587d40a2caf56bd97485ab3eec10bee633600000000000000000000000082af49447d8a07e3bd95bd0d56f35241523fbab100000000000000000000000000000000000000000000000000000000000000e000000000000000000000000000000000000000000000000000000000000000000000000000000000000000000000000000000000000000000000000000000000",
        "nonce": "0x1c",
        "chainId": "0xa4b1"
      },
      "additionalContracts": [],
      "isFixedGasLimit": false
    }
  ],
  "receipts": [
    {
      "status": "0x1",
      "cumulativeGasUsed": "0xe2c2",
      "logs": [
        {
          "address": "0x82af49447d8a07e3bd95bd0d56f35241523fbab1",
          "topics": [
            "0xddf252ad1be2c89b69c2b068fc378daa952ba7f163c4a11628f55a4df523b3ef",
            "0x0000000000000000000000000000000000000000000000000000000000000000",
            "0x0000000000000000000000000571235134dc15a00f02916987c2c16b5fc52e2a"
          ],
          "data": "0x0000000000000000000000000000000000000000000000008ac7230489e80000",
          "blockHash": "0xe45f582ea64b4329a096f8a85f2481437d597f569f8b91a2d2c8e827d587ee0b",
          "blockNumber": "0x19efc7da",
          "transactionHash": "0xafeb79a06cbb597f99e7315cdeea4fea8748eb52d5b5ec0a65c5970d4e556f63",
          "transactionIndex": "0x0",
          "logIndex": "0x0",
          "removed": false
        }
      ],
      "logsBloom": "0x00000000000000000000000000000000000000000000000000000000000000000000000000000000000000000000000000004000000000000000000000000000000000010000000000000008000000000000000000000000000000000000000000000020020000000000000400000800000000000000000000000010000000000000000000000000000000000000000000000000000000000000000000000000000000000000004000000000000000000000000000000000000000000000000000000002000000000000000000000000000000000000000000000000000020000000000000000000000000000000000000000000000400000000000000000000",
      "type": "0x2",
      "transactionHash": "0xafeb79a06cbb597f99e7315cdeea4fea8748eb52d5b5ec0a65c5970d4e556f63",
      "transactionIndex": "0x0",
      "blockHash": "0xe45f582ea64b4329a096f8a85f2481437d597f569f8b91a2d2c8e827d587ee0b",
      "blockNumber": "0x19efc7da",
      "gasUsed": "0xe2c2",
      "effectiveGasPrice": "0x1334811",
      "blobGasUsed": "0x0",
      "from": "0x0571235134dc15a00f02916987c2c16b5fc52e2a",
      "to": "0x82af49447d8a07e3bd95bd0d56f35241523fbab1",
      "contractAddress": null
    },
    {
      "status": "0x1",
      "cumulativeGasUsed": "0xd445",
      "logs": [
        {
          "address": "0x82af49447d8a07e3bd95bd0d56f35241523fbab1",
          "topics": [
            "0xddf252ad1be2c89b69c2b068fc378daa952ba7f163c4a11628f55a4df523b3ef",
            "0x0000000000000000000000000571235134dc15a00f02916987c2c16b5fc52e2a",
            "0x000000000000000000000000d8ed7139feef8775c8a6c9974da8bb8df22868c1"
          ],
          "data": "0x0000000000000000000000000000000000000000000000008ac7230489e80000",
          "blockHash": "0xf4de99424fd83a1e227d1010b8b923d2e6d64d48ceb6057bf4ea3e5b203dc939",
          "blockNumber": "0x19efc7db",
          "transactionHash": "0x23f987dad953a8dbbedae78bbdb17996e900e58127aea252e9ac1f066c628d12",
          "transactionIndex": "0x0",
          "logIndex": "0x0",
          "removed": false
        }
      ],
      "logsBloom": "0x00000000000000000000000000000000000000000000000000000000000000000000000000000000000000000000000000004000000000000000000000000000000000010000000000000008001000000000000000000000000000000000000000000020000000000000000400000000000000000000000000000010000000000000000000000000000000000000000000000000000000000000000000000000000000000000004000000000000000000000000000000000000000000000000000000002000000000000000000010000010000000000000000000000000000000000000000000000000000000000000000000000000400000000000000000000",
      "type": "0x2",
      "transactionHash": "0x23f987dad953a8dbbedae78bbdb17996e900e58127aea252e9ac1f066c628d12",
      "transactionIndex": "0x0",
      "blockHash": "0xf4de99424fd83a1e227d1010b8b923d2e6d64d48ceb6057bf4ea3e5b203dc939",
      "blockNumber": "0x19efc7db",
      "gasUsed": "0xd445",
      "effectiveGasPrice": "0x1334811",
      "blobGasUsed": "0x0",
      "from": "0x0571235134dc15a00f02916987c2c16b5fc52e2a",
      "to": "0x82af49447d8a07e3bd95bd0d56f35241523fbab1",
      "contractAddress": null
    },
    {
      "status": "0x1",
      "cumulativeGasUsed": "0xdd64c",
      "logs": [
        {
          "address": "0x82af49447d8a07e3bd95bd0d56f35241523fbab1",
          "topics": [
            "0xddf252ad1be2c89b69c2b068fc378daa952ba7f163c4a11628f55a4df523b3ef",
            "0x0000000000000000000000000000000000000000000000000000000000000000",
            "0x0000000000000000000000001c3fa76e6e1088bce750f23a5bfcffa1efef6a41"
          ],
          "data": "0x00000000000000000000000000000000000000000000000000038d7ea4c68000",
          "blockHash": "0x854e175637f20ccc1615decabd0bd7aa1c1a3cbc42a29abceb1bc8700a0aefeb",
          "blockNumber": "0x19efc7dc",
          "transactionHash": "0x7c7bf3527abd1689f426f3b85d4a3ea4270f39f11fe96faba0b5d746c137e14e",
          "transactionIndex": "0x0",
          "logIndex": "0x0",
          "removed": false
        },
        {
          "address": "0x82af49447d8a07e3bd95bd0d56f35241523fbab1",
          "topics": [
            "0xddf252ad1be2c89b69c2b068fc378daa952ba7f163c4a11628f55a4df523b3ef",
            "0x0000000000000000000000001c3fa76e6e1088bce750f23a5bfcffa1efef6a41",
            "0x00000000000000000000000031ef83a530fde1b38ee9a18093a333d8bbbc40d5"
          ],
          "data": "0x00000000000000000000000000000000000000000000000000038d7ea4c68000",
          "blockHash": "0x854e175637f20ccc1615decabd0bd7aa1c1a3cbc42a29abceb1bc8700a0aefeb",
          "blockNumber": "0x19efc7dc",
          "transactionHash": "0x7c7bf3527abd1689f426f3b85d4a3ea4270f39f11fe96faba0b5d746c137e14e",
          "transactionIndex": "0x0",
          "logIndex": "0x1",
          "removed": false
        },
        {
          "address": "0x82af49447d8a07e3bd95bd0d56f35241523fbab1",
          "topics": [
            "0x8c5be1e5ebec7d5bd14f71427d1e84f3dd0314c0f7b2291e5b200ac8c7c3b925",
            "0x000000000000000000000000d8ed7139feef8775c8a6c9974da8bb8df22868c1",
            "0x0000000000000000000000007452c558d45f8afc8c83dae62c3f8a5be19c71f6"
          ],
          "data": "0x0000000000000000000000000000000000000000000000008ac7230489e80000",
          "blockHash": "0x854e175637f20ccc1615decabd0bd7aa1c1a3cbc42a29abceb1bc8700a0aefeb",
          "blockNumber": "0x19efc7dc",
          "transactionHash": "0x7c7bf3527abd1689f426f3b85d4a3ea4270f39f11fe96faba0b5d746c137e14e",
          "transactionIndex": "0x0",
          "logIndex": "0x2",
          "removed": false
        },
        {
          "address": "0x82af49447d8a07e3bd95bd0d56f35241523fbab1",
          "topics": [
            "0xddf252ad1be2c89b69c2b068fc378daa952ba7f163c4a11628f55a4df523b3ef",
            "0x000000000000000000000000d8ed7139feef8775c8a6c9974da8bb8df22868c1",
            "0x00000000000000000000000031ef83a530fde1b38ee9a18093a333d8bbbc40d5"
          ],
          "data": "0x0000000000000000000000000000000000000000000000008ac7230489e80000",
          "blockHash": "0x854e175637f20ccc1615decabd0bd7aa1c1a3cbc42a29abceb1bc8700a0aefeb",
          "blockNumber": "0x19efc7dc",
          "transactionHash": "0x7c7bf3527abd1689f426f3b85d4a3ea4270f39f11fe96faba0b5d746c137e14e",
          "transactionIndex": "0x0",
          "logIndex": "0x3",
          "removed": false
        },
        {
          "address": "0x82af49447d8a07e3bd95bd0d56f35241523fbab1",
          "topics": [
            "0x8c5be1e5ebec7d5bd14f71427d1e84f3dd0314c0f7b2291e5b200ac8c7c3b925",
            "0x000000000000000000000000d8ed7139feef8775c8a6c9974da8bb8df22868c1",
            "0x0000000000000000000000007452c558d45f8afc8c83dae62c3f8a5be19c71f6"
          ],
          "data": "0x0000000000000000000000000000000000000000000000000000000000000000",
          "blockHash": "0x854e175637f20ccc1615decabd0bd7aa1c1a3cbc42a29abceb1bc8700a0aefeb",
          "blockNumber": "0x19efc7dc",
          "transactionHash": "0x7c7bf3527abd1689f426f3b85d4a3ea4270f39f11fe96faba0b5d746c137e14e",
          "transactionIndex": "0x0",
          "logIndex": "0x4",
          "removed": false
        },
        {
          "address": "0xc8ee91a54287db53897056e12d9819156d3822fb",
          "topics": [
            "0x468a25a7ba624ceea6e540ad6f49171b52495b648417ae91bca21676d8a24dc5",
            "0xa7427759bfd3b941f14e687e129519da3c9b0046c5b9aaa290bb1dede63753b3",
            "0xa65404baf31ee07cae6bf94245afcd0a8386c3160f74d56c924b577a5d45c17b",
            "0x000000000000000000000000d8ed7139feef8775c8a6c9974da8bb8df22868c1"
          ],
          "data": "0x00000000000000000000000063492b775e30a9e6b4b4761c12605eb9d071d5e9000000000000000000000000000000000000000000000000000000000000006000000000000000000000000000000000000000000000000000000000000000a0000000000000000000000000000000000000000000000000000000000000000c4f7264657243726561746564000000000000000000000000000000000000000000000000000000000000000000000000000000000000000000000000000000e000000000000000000000000000000000000000000000000000000000000006800000000000000000000000000000000000000000000000000000000000000e800000000000000000000000000000000000000000000000000000000000000f000000000000000000000000000000000000000000000000000000000000001160000000000000000000000000000000000000000000000000000000000000134000000000000000000000000000000000000000000000000000000000000013c0000000000000000000000000000000000000000000000000000000000000004000000000000000000000000000000000000000000000000000000000000004c0000000000000000000000000000000000000000000000000000000000000000700000000000000000000000000000000000000000000000000000000000000e0000000000000000000000000000000000000000000000000000000000000016000000000000000000000000000000000000000000000000000000000000001e0000000000000000000000000000000000000000000000000000000000000026000000000000000000000000000000000000000000000000000000000000002e0000000000000000000000000000000000000000000000000000000000000036000000000000000000000000000000000000000000000000000000000000003e00000000000000000000000000000000000000000000000000000000000000040000000000000000000000000d8ed7139feef8775c8a6c9974da8bb8df22868c100000000000000000000000000000000000000000000000000000000000000076163636f756e740000000000000000000000000000000000000000000000000000000000000000000000000000000000000000000000000000000000000000400000000000000000000000000571235134dc15a00f02916987c2c16b5fc52e2a0000000000000000000000000000000000000000000000000000000000000008726563656976657200000000000000000000000000000000000000000000000000000000000000000000000000000000000000000000000000000000000000400000000000000000000000000000000000000000000000000000000000000000000000000000000000000000000000000000000000000000000000000000001063616c6c6261636b436f6e74726163740000000000000000000000000000000000000000000000000000000000000000000000000000000000000000000000400000000000000000000000000000000000000000000000000000000000000000000000000000000000000000000000000000000000000000000000000000000d7569466565526563656976657200000000000000000000000000000000000000000000000000000000000000000000000000000000000000000000000000004000000000000000000000000070d95587d40a2caf56bd97485ab3eec10bee633600000000000000000000000000000000000000000000000000000000000000066d61726b65740000000000000000000000000000000000000000000000000000000000000000000000000000000000000000000000000000000000000000004000000000000000000000000082af49447d8a07e3bd95bd0d56f35241523fbab10000000000000000000000000000000000000000000000000000000000000016696e697469616c436f6c6c61746572616c546f6b656e0000000000000000000000000000000000000000000000000000000000000000000000000000000000400000000000000000000000000000000000000000000000000000000000000000000000000000000000000000000000000000000000000000000000000000001463616e63656c6c6174696f6e52656365697665720000000000000000000000000000000000000000000000000000000000000000000000000000000000000001000000000000000000000000000000000000000000000000000000000000002000000000000000000000000000000000000000000000000000000000000000400000000000000000000000000000000000000000000000000000000000000080000000000000000000000000000000000000000000000000000000000000000873776170506174680000000000000000000000000000000000000000000000000000000000000000000000000000000000000000000000000000000000000000000000000000000000000000000000000000000000000000000000000000004000000000000000000000000000000000000000000000000000000000000007e0000000000000000000000000000000000000000000000000000000000000000c0000000000000000000000000000000000000000000000000000000000000180000000000000000000000000000000000000000000000000000000000000020000000000000000000000000000000000000000000000000000000000000002800000000000000000000000000000000000000000000000000000000000000300000000000000000000000000000000000000000000000000000000000000038000000000000000000000000000000000000000000000000000000000000004000000000000000000000000000000000000000000000000000000000000000480000000000000000000000000000000000000000000000000000000000000050000000000000000000000000000000000000000000000000000000000000005800000000000000000000000000000000000000000000000000000000000000600000000000000000000000000000000000000000000000000000000000000068000000000000000000000000000000000000000000000000000000000000007000000000000000000000000000000000000000000000000000000000000000040000000000000000000000000000000000000000000000000000000000000000200000000000000000000000000000000000000000000000000000000000000096f726465725479706500000000000000000000000000000000000000000000000000000000000000000000000000000000000000000000000000000000000040000000000000000000000000000000000000000000000000000000000000000000000000000000000000000000000000000000000000000000000000000000186465637265617365506f736974696f6e537761705479706500000000000000000000000000000000000000000000000000000000000000000000000000000040000000000000000000000000000000000000000c9f2c9cd04674edea40000000000000000000000000000000000000000000000000000000000000000000000c73697a6544656c7461557364000000000000000000000000000000000000000000000000000000000000000000000000000000000000000000000000000000400000000000000000000000000000000000000000000000008ac7230489e80000000000000000000000000000000000000000000000000000000000000000001c696e697469616c436f6c6c61746572616c44656c7461416d6f756e7400000000000000000000000000000000000000000000000000000000000000000000004000000000000000000000000000000000000000327cb2734119d3b7a900000000000000000000000000000000000000000000000000000000000000000000000c7472696767657250726963650000000000000000000000000000000000000000000000000000000000000000000000000000000000000000000000000000004000000000000000000000000000000000000000327cb2734119d3b7a900000000000000000000000000000000000000000000000000000000000000000000000f61636365707461626c6550726963650000000000000000000000000000000000000000000000000000000000000000000000000000000000000000000000004000000000000000000000000000000000000000000000000000038d7ea4c68000000000000000000000000000000000000000000000000000000000000000000c657865637574696f6e466565000000000000000000000000000000000000000000000000000000000000000000000000000000000000000000000000000000400000000000000000000000000000000000000000000000000000000000000000000000000000000000000000000000000000000000000000000000000000001063616c6c6261636b4761734c696d69740000000000000000000000000000000000000000000000000000000000000000000000000000000000000000000000400000000000000000000000000000000000000000000000000000000000000000000000000000000000000000000000000000000000000000000000000000000f6d696e4f7574707574416d6f756e740000000000000000000000000000000000000000000000000000000000000000000000000000000000000000000000004000000000000000000000000000000000000000000000000000000000699da019000000000000000000000000000000000000000000000000000000000000000d75706461746564417454696d650000000000000000000000000000000000000000000000000000000000000000000000000000000000000000000000000000400000000000000000000000000000000000000000000000000000000000000000000000000000000000000000000000000000000000000000000000000000000d76616c696446726f6d54696d650000000000000000000000000000000000000000000000000000000000000000000000000000000000000000000000000000400000000000000000000000000000000000000000000000000000000000000000000000000000000000000000000000000000000000000000000000000000000a737263436861696e49640000000000000000000000000000000000000000000000000000000000000000000000000000000000000000000000000000000000000000000000000000000000000000000000000000000000000000000000000040000000000000000000000000000000000000000000000000000000000000006000000000000000000000000000000000000000000000000000000000000000000000000000000000000000000000000000000000000000000000000000000000000000000000000000000000000000000000000000000000000000000000004000000000000000000000000000000000000000000000000000000000000002400000000000000000000000000000000000000000000000000000000000000003000000000000000000000000000000000000000000000000000000000000006000000000000000000000000000000000000000000000000000000000000000e0000000000000000000000000000000000000000000000000000000000000016000000000000000000000000000000000000000000000000000000000000000400000000000000000000000000000000000000000000000000000000000000001000000000000000000000000000000000000000000000000000000000000000669734c6f6e67000000000000000000000000000000000000000000000000000000000000000000000000000000000000000000000000000000000000000000400000000000000000000000000000000000000000000000000000000000000000000000000000000000000000000000000000000000000000000000000000001773686f756c64556e777261704e6174697665546f6b656e00000000000000000000000000000000000000000000000000000000000000000000000000000000400000000000000000000000000000000000000000000000000000000000000000000000000000000000000000000000000000000000000000000000000000000a6175746f43616e63656c00000000000000000000000000000000000000000000000000000000000000000000000000000000000000000000000000000000000000000000000000000000000000000000000000000000000000000000000000400000000000000000000000000000000000000000000000000000000000000100000000000000000000000000000000000000000000000000000000000000000100000000000000000000000000000000000000000000000000000000000000200000000000000000000000000000000000000000000000000000000000000040a65404baf31ee07cae6bf94245afcd0a8386c3160f74d56c924b577a5d45c17b00000000000000000000000000000000000000000000000000000000000000036b6579000000000000000000000000000000000000000000000000000000000000000000000000000000000000000000000000000000000000000000000000010000000000000000000000000000000000000000000000000000000000000020000000000000000000000000000000000000000000000000000000000000004000000000000000000000000000000000000000000000000000000000000000800000000000000000000000000000000000000000000000000000000000000008646174614c697374000000000000000000000000000000000000000000000000000000000000000000000000000000000000000000000000000000000000000000000000000000000000000000000000000000000000000000000000000000400000000000000000000000000000000000000000000000000000000000000060000000000000000000000000000000000000000000000000000000000000000000000000000000000000000000000000000000000000000000000000000000000000000000000000000000000000000000000000000000000000000000000040000000000000000000000000000000000000000000000000000000000000006000000000000000000000000000000000000000000000000000000000000000000000000000000000000000000000000000000000000000000000000000000000",
          "blockHash": "0x854e175637f20ccc1615decabd0bd7aa1c1a3cbc42a29abceb1bc8700a0aefeb",
          "blockNumber": "0x19efc7dc",
          "transactionHash": "0x7c7bf3527abd1689f426f3b85d4a3ea4270f39f11fe96faba0b5d746c137e14e",
          "transactionIndex": "0x0",
          "logIndex": "0x5",
          "removed": false
        },
        {
          "address": "0xd8ed7139feef8775c8a6c9974da8bb8df22868c1",
          "topics": [
            "0x3f32b521b7496d2074765239e094aa3dd8d92a3bade84ef40d07dda0da018ce8",
            "0x0000000000000000000000000000000000000000000000000000000000000000"
          ],
          "data": "0x00000000000000000000000000000000000000000000000000038d7ea4c68000",
          "blockHash": "0x854e175637f20ccc1615decabd0bd7aa1c1a3cbc42a29abceb1bc8700a0aefeb",
          "blockNumber": "0x19efc7dc",
          "transactionHash": "0x7c7bf3527abd1689f426f3b85d4a3ea4270f39f11fe96faba0b5d746c137e14e",
          "transactionIndex": "0x0",
          "logIndex": "0x6",
          "removed": false
        }
      ],
      "logsBloom": "0x00000000000000100000000000001010000000000000000000000000000000000000000000000000000000000000000000004000008002000000020008200000000008010000000000000008001020000000000000400000000000000000000000000000020000000000000400100800000000040000000000000010000000000000000000000000000000200000000400000000000000000000100000000000020400000000000000000000000000000000000000000000000000000000000000000002000000000000000000010000010000000000000000004000000020040010004000000000040000000040800002000804000000000000002000000020",
      "type": "0x2",
      "transactionHash": "0x7c7bf3527abd1689f426f3b85d4a3ea4270f39f11fe96faba0b5d746c137e14e",
      "transactionIndex": "0x0",
      "blockHash": "0x854e175637f20ccc1615decabd0bd7aa1c1a3cbc42a29abceb1bc8700a0aefeb",
      "blockNumber": "0x19efc7dc",
      "gasUsed": "0xdd64c",
      "effectiveGasPrice": "0x1334811",
      "blobGasUsed": "0x0",
      "from": "0x0571235134dc15a00f02916987c2c16b5fc52e2a",
      "to": "0xd8ed7139feef8775c8a6c9974da8bb8df22868c1",
      "contractAddress": null
    }
  ],
  "libraries": [],
  "pending": [],
  "returns": {},
  "timestamp": 1771937819,
  "chain": 42161,
  "commit": "f073e1b"
}