{
  "transactions": [
    {
      "hash": "0x098df817e3c6600beaed8c90c3bc05a08a922ca675355c9e88c79c93bbecdccd",
      "transactionType": "CALL",
      "contractName": null,
      "contractAddress": "0x82af49447d8a07e3bd95bd0d56f35241523fbab1",
      "function": "deposit()",
      "arguments": [],
      "transaction": {
        "from": "0x0571235134dc15a00f02916987c2c16b5fc52e2a",
        "to": "0x82af49447d8a07e3bd95bd0d56f35241523fbab1",
        "gas": "0x12b09",
        "value": "0x8ac7230489e80000",
        "input": "0xd0e30db0",
        "nonce": "0x10",
        "chainId": "0xa4b1"
      },
      "additionalContracts": [],
      "isFixedGasLimit": false
    },
    {
      "hash": "0x0256618490e6d25b09eaef4cdeaacea6632b718292971c143ac135f6e8594cfe",
      "transactionType": "CALL",
      "contractName": null,
      "contractAddress": "0x82af49447d8a07e3bd95bd0d56f35241523fbab1",
      "function": "transfer(address,uint256)",
      "arguments": [
        "0x21131aB05A31E97902e04f9dA60a2D53ADD82121",
        "10000000000000000000"
      ],
      "transaction": {
        "from": "0x0571235134dc15a00f02916987c2c16b5fc52e2a",
        "to": "0x82af49447d8a07e3bd95bd0d56f35241523fbab1",
        "gas": "0x1249b",
        "value": "0x0",
        "input": "0xa9059cbb00000000000000000000000021131ab05a31e97902e04f9da60a2d53add821210000000000000000000000000000000000000000000000008ac7230489e80000",
        "nonce": "0x11",
        "chainId": "0xa4b1"
      },
      "additionalContracts": [],
      "isFixedGasLimit": false
    },
    {
      "hash": "0x5aa70fcd7991ce42a478c4491a296d1161d7d67e42768a61cbe7b826e574e151",
      "transactionType": "CALL",
      "contractName": null,
      "contractAddress": "0x21131ab05a31e97902e04f9da60a2d53add82121",
      "function": "createLongOrder((address,uint256,address,uint256,((address,address,address,address,address,address,address[]),(uint256,uint256,uint256,uint256,uint256,uint256,uint256,uint256),uint8,uint8,bool,bool,bool,bytes32,bytes32[])))",
      "arguments": [
        "(0x31eF83a530Fde1B38EE9A18093A333D8Bbbc40D5, 1000000000000000, 0x82aF49447D8a07e3bd95BD0d56f35241523fBab1, 10000000000000000000, ((0x21131aB05A31E97902e04f9dA60a2D53ADD82121, 0x0000000000000000000000000000000000000000, 0x0000000000000000000000000000000000000000, 0x0000000000000000000000000000000000000000, 0x70d95587d40A2caf56bd97485aB3Eec10Bee6336, 0x82aF49447D8a07e3bd95BD0d56f35241523fBab1, []), (1000000000000000000000000000000, 0, 4000000000000000000000000000000, 4000000000000000000000000000000, 1000000000000000, 0, 0, 0), 2, 0, true, false, false, 0x0000000000000000000000000000000000000000000000000000000000000000, []))"
      ],
      "transaction": {
        "from": "0x0571235134dc15a00f02916987c2c16b5fc52e2a",
        "to": "0x21131ab05a31e97902e04f9da60a2d53add82121",
        "gas": "0x12b83a",
        "value": "0x38d7ea4c68000",
        "input": "0x85eeaf55000000000000000000000000000000000000000000000000000000000000002000000000000000000000000031ef83a530fde1b38ee9a18093a333d8bbbc40d500000000000000000000000000000000000000000000000000038d7ea4c6800000000000000000000000000082af49447d8a07e3bd95bd0d56f35241523fbab10000000000000000000000000000000000000000000000008ac7230489e8000000000000000000000000000000000000000000000000000000000000000000a00000000000000000000000000000000000000000000000000000000000000200000000000000000000000000000000000000000c9f2c9cd04674edea40000000000000000000000000000000000000000000000000000000000000000000000000000000000000000000000000000000000000327cb2734119d3b7a90000000000000000000000000000000000000000000000327cb2734119d3b7a90000000000000000000000000000000000000000000000000000000000038d7ea4c68000000000000000000000000000000000000000000000000000000000000000000000000000000000000000000000000000000000000000000000000000000000000000000000000000000000000000000000000000000000000000000000000000000000000000000000000000000000000000000000000000000000000000000200000000000000000000000000000000000000000000000000000000000000000000000000000000000000000000000000000000000000000000000000000001000000000000000000000000000000000000000000000000000000000000000000000000000000000000000000000000000000000000000000000000000000000000000000000000000000000000000000000000000000000000000000000000000000000000000000000000000000000000000000000000000000000000030000000000000000000000000021131ab05a31e97902e04f9da60a2d53add8212100000000000000000000000000000000000000000000000000000000000000000000000000000000000000000000000000000000000000000000000000000000000000000000000000000000000000000000000000000000000000000000000000000000000000000000000070d95587d40a2caf56bd97485ab3eec10bee633600000000000000000000000082af49447d8a07e3bd95bd0d56f35241523fbab100000000000000000000000000000000000000000000000000000000000000e000000000000000000000000000000000000000000000000000000000000000000000000000000000000000000000000000000000000000000000000000000000",
        "nonce": "0x12",
        "chainId": "0xa4b1"
      },
      "additionalContracts": [],
      "isFixedGasLimit": false
    }
  ],
  "receipts": [
    {
      "status": "0x1",
      "cumulativeGasUsed": "0xe2c2",
      "logs": [
        {
          "address": "0x82af49447d8a07e3bd95bd0d56f35241523fbab1",
          "topics": [
            "0xddf252ad1be2c89b69c2b068fc378daa952ba7f163c4a11628f55a4df523b3ef",
            "0x0000000000000000000000000000000000000000000000000000000000000000",
            "0x0000000000000000000000000571235134dc15a00f02916987c2c16b5fc52e2a"
          ],
          "data": "0x0000000000000000000000000000000000000000000000008ac7230489e80000",
          "blockHash": "0x0e7bd2e74d16916a07ecdfcee5366040ec3e044e78c19b3a1a0a381f2e21e016",
          "blockNumber": "0x19efc7d0",
          "transactionHash": "0x098df817e3c6600beaed8c90c3bc05a08a922ca675355c9e88c79c93bbecdccd",
          "transactionIndex": "0x0",
          "logIndex": "0x0",
          "removed": false
        }
      ],
      "logsBloom": "0x00000000000000000000000000000000000000000000000000000000000000000000000000000000000000000000000000004000000000000000000000000000000000010000000000000008000000000000000000000000000000000000000000000020020000000000000400000800000000000000000000000010000000000000000000000000000000000000000000000000000000000000000000000000000000000000004000000000000000000000000000000000000000000000000000000002000000000000000000000000000000000000000000000000000020000000000000000000000000000000000000000000000400000000000000000000",
      "type": "0x2",
      "transactionHash": "0x098df817e3c6600beaed8c90c3bc05a08a922ca675355c9e88c79c93bbecdccd",
      "transactionIndex": "0x0",
      "blockHash": "0x0e7bd2e74d16916a07ecdfcee5366040ec3e044e78c19b3a1a0a381f2e21e016",
      "blockNumber": "0x19efc7d0",
      "gasUsed": "0xe2c2",
      "effectiveGasPrice": "0x1334811",
      "blobGasUsed": "0x0",
      "from": "0x0571235134dc15a00f02916987c2c16b5fc52e2a",
      "to": "0x82af49447d8a07e3bd95bd0d56f35241523fbab1",
      "contractAddress": null
    },
    {
      "status": "0x1",
      "cumulativeGasUsed": "0xd445",
      "logs": [
        {
          "address": "0x82af49447d8a07e3bd95bd0d56f35241523fbab1",
          "topics": [
            "0xddf252ad1be2c89b69c2b068fc378daa952ba7f163c4a11628f55a4df523b3ef",
            "0x0000000000000000000000000571235134dc15a00f02916987c2c16b5fc52e2a",
            "0x00000000000000000000000021131ab05a31e97902e04f9da60a2d53add82121"
          ],
          "data": "0x0000000000000000000000000000000000000000000000008ac7230489e80000",
          "blockHash": "0xc7d4108030244bfbdc4586050a6cfd899474799ff78acd233520b58a1b0724af",
          "blockNumber": "0x19efc7d1",
          "transactionHash": "0x0256618490e6d25b09eaef4cdeaacea6632b718292971c143ac135f6e8594cfe",
          "transactionIndex": "0x0",
          "logIndex": "0x0",
          "removed": false
        }
      ],
      "logsBloom": "0x00000000000000000000000000000000000000000000000000000000000000000000000000000000000000000000000000004000000000000000000000000000000000010000000000000008004000000000000000000000000000000080000000000020000000000000000400000000000000000000000000000010000000000000000000000000000000000000000000000000000000000000000000000000000000000000004000001000000000000000000000000000000000000000000000000002000000000000000000000000000000000000000000000000000000000000000000000000000000000000000000000000000400000000000000000000",
      "type": "0x2",
      "transactionHash": "0x0256618490e6d25b09eaef4cdeaacea6632b718292971c143ac135f6e8594cfe",
      "transactionIndex": "0x0",
      "blockHash": "0xc7d4108030244bfbdc4586050a6cfd899474799ff78acd233520b58a1b0724af",
      "blockNumber": "0x19efc7d1",
      "gasUsed": "0xd445",
      "effectiveGasPrice": "0x1334811",
      "blobGasUsed": "0x0",
      "from": "0x0571235134dc15a00f02916987c2c16b5fc52e2a",
      "to": "0x82af49447d8a07e3bd95bd0d56f35241523fbab1",
      "contractAddress": null
    },
    {
      "status": "0x1",
      "cumulativeGasUsed": "0xd8e72",
      "logs": [
        {
          "address": "0x82af49447d8a07e3bd95bd0d56f35241523fbab1",
          "topics": [
            "0xddf252ad1be2c89b69c2b068fc378daa952ba7f163c4a11628f55a4df523b3ef",
            "0x0000000000000000000000000000000000000000000000000000000000000000",
            "0x0000000000000000000000001c3fa76e6e1088bce750f23a5bfcffa1efef6a41"
          ],
          "data": "0x00000000000000000000000000000000000000000000000000038d7ea4c68000",
          "blockHash": "0x68a700265b5b8afd4d2d73c823ccecc91504b5e80fa5d32b88e5ee202cbfbf62",
          "blockNumber": "0x19efc7d2",
          "transactionHash": "0x5aa70fcd7991ce42a478c4491a296d1161d7d67e42768a61cbe7b826e574e151",
          "transactionIndex": "0x0",
          "logIndex": "0x0",
          "removed": false
        },
        {
          "address": "0x82af49447d8a07e3bd95bd0d56f35241523fbab1",
          "topics": [
            "0xddf252ad1be2c89b69c2b068fc378daa952ba7f163c4a11628f55a4df523b3ef",
            "0x0000000000000000000000001c3fa76e6e1088bce750f23a5bfcffa1efef6a41",
            "0x00000000000000000000000031ef83a530fde1b38ee9a18093a333d8bbbc40d5"
          ],
          "data": "0x00000000000000000000000000000000000000000000000000038d7ea4c68000",
          "blockHash": "0x68a700265b5b8afd4d2d73c823ccecc91504b5e80fa5d32b88e5ee202cbfbf62",
          "blockNumber": "0x19efc7d2",
          "transactionHash": "0x5aa70fcd7991ce42a478c4491a296d1161d7d67e42768a61cbe7b826e574e151",
          "transactionIndex": "0x0",
          "logIndex": "0x1",
          "removed": false
        },
        {
          "address": "0x82af49447d8a07e3bd95bd0d56f35241523fbab1",
          "topics": [
            "0x8c5be1e5ebec7d5bd14f71427d1e84f3dd0314c0f7b2291e5b200ac8c7c3b925",
            "0x00000000000000000000000021131ab05a31e97902e04f9da60a2d53add82121",
            "0x0000000000000000000000007452c558d45f8afc8c83dae62c3f8a5be19c71f6"
          ],
          "data": "0x0000000000000000000000000000000000000000000000008ac7230489e80000",
          "blockHash": "0x68a700265b5b8afd4d2d73c823ccecc91504b5e80fa5d32b88e5ee202cbfbf62",
          "blockNumber": "0x19efc7d2",
          "transactionHash": "0x5aa70fcd7991ce42a478c4491a296d1161d7d67e42768a61cbe7b826e574e151",
          "transactionIndex": "0x0",
          "logIndex": "0x2",
          "removed": false
        },
        {
          "address": "0x82af49447d8a07e3bd95bd0d56f35241523fbab1",
          "topics": [
            "0xddf252ad1be2c89b69c2b068fc378daa952ba7f163c4a11628f55a4df523b3ef",
            "0x00000000000000000000000021131ab05a31e97902e04f9da60a2d53add82121",
            "0x00000000000000000000000031ef83a530fde1b38ee9a18093a333d8bbbc40d5"
          ],
          "data": "0x0000000000000000000000000000000000000000000000008ac7230489e80000",
          "blockHash": "0x68a700265b5b8afd4d2d73c823ccecc91504b5e80fa5d32b88e5ee202cbfbf62",
          "blockNumber": "0x19efc7d2",
          "transactionHash": "0x5aa70fcd7991ce42a478c4491a296d1161d7d67e42768a61cbe7b826e574e151",
          "transactionIndex": "0x0",
          "logIndex": "0x3",
          "removed": false
        },
        {
          "address": "0x82af49447d8a07e3bd95bd0d56f35241523fbab1",
          "topics": [
            "0x8c5be1e5ebec7d5bd14f71427d1e84f3dd0314c0f7b2291e5b200ac8c7c3b925",
            "0x00000000000000000000000021131ab05a31e97902e04f9da60a2d53add82121",
            "0x0000000000000000000000007452c558d45f8afc8c83dae62c3f8a5be19c71f6"
          ],
          "data": "0x0000000000000000000000000000000000000000000000000000000000000000",
          "blockHash": "0x68a700265b5b8afd4d2d73c823ccecc91504b5e80fa5d32b88e5ee202cbfbf62",
          "blockNumber": "0x19efc7d2",
          "transactionHash": "0x5aa70fcd7991ce42a478c4491a296d1161d7d67e42768a61cbe7b826e574e151",
          "transactionIndex": "0x0",
          "logIndex": "0x4",
          "removed": false
        },
        {
          "address": "0xc8ee91a54287db53897056e12d9819156d3822fb",
          "topics": [
            "0x468a25a7ba624ceea6e540ad6f49171b52495b648417ae91bca21676d8a24dc5",
            "0xa7427759bfd3b941f14e687e129519da3c9b0046c5b9aaa290bb1dede63753b3",
            "0x75084f489b3db9541c2e328df20c447c62ed0c42c96d1ba261af85f81e9d86fa",
            "0x00000000000000000000000021131ab05a31e97902e04f9da60a2d53add82121"
          ],
          "data": "0x00000000000000000000000063492b775e30a9e6b4b4761c12605eb9d071d5e9000000000000000000000000000000000000000000000000000000000000006000000000000000000000000000000000000000000000000000000000000000a0000000000000000000000000000000000000000000000000000000000000000c4f7264657243726561746564000000000000000000000000000000000000000000000000000000000000000000000000000000000000000000000000000000e000000000000000000000000000000000000000000000000000000000000006800000000000000000000000000000000000000000000000000000000000000e800000000000000000000000000000000000000000000000000000000000000f000000000000000000000000000000000000000000000000000000000000001160000000000000000000000000000000000000000000000000000000000000134000000000000000000000000000000000000000000000000000000000000013c0000000000000000000000000000000000000000000000000000000000000004000000000000000000000000000000000000000000000000000000000000004c0000000000000000000000000000000000000000000000000000000000000000700000000000000000000000000000000000000000000000000000000000000e0000000000000000000000000000000000000000000000000000000000000016000000000000000000000000000000000000000000000000000000000000001e0000000000000000000000000000000000000000000000000000000000000026000000000000000000000000000000000000000000000000000000000000002e0000000000000000000000000000000000000000000000000000000000000036000000000000000000000000000000000000000000000000000000000000003e0000000000000000000000000000000000000000000000000000000000000004000000000000000000000000021131ab05a31e97902e04f9da60a2d53add8212100000000000000000000000000000000000000000000000000000000000000076163636f756e7400000000000000000000000000000000000000000000000000000000000000000000000000000000000000000000000000000000000000004000000000000000000000000021131ab05a31e97902e04f9da60a2d53add821210000000000000000000000000000000000000000000000000000000000000008726563656976657200000000000000000000000000000000000000000000000000000000000000000000000000000000000000000000000000000000000000400000000000000000000000000000000000000000000000000000000000000000000000000000000000000000000000000000000000000000000000000000001063616c6c6261636b436f6e74726163740000000000000000000000000000000000000000000000000000000000000000000000000000000000000000000000400000000000000000000000000000000000000000000000000000000000000000000000000000000000000000000000000000000000000000000000000000000d7569466565526563656976657200000000000000000000000000000000000000000000000000000000000000000000000000000000000000000000000000004000000000000000000000000070d95587d40a2caf56bd97485ab3eec10bee633600000000000000000000000000000000000000000000000000000000000000066d61726b65740000000000000000000000000000000000000000000000000000000000000000000000000000000000000000000000000000000000000000004000000000000000000000000082af49447d8a07e3bd95bd0d56f35241523fbab10000000000000000000000000000000000000000000000000000000000000016696e697469616c436f6c6c61746572616c546f6b656e0000000000000000000000000000000000000000000000000000000000000000000000000000000000400000000000000000000000000000000000000000000000000000000000000000000000000000000000000000000000000000000000000000000000000000001463616e63656c6c6174696f6e52656365697665720000000000000000000000000000000000000000000000000000000000000000000000000000000000000001000000000000000000000000000000000000000000000000000000000000002000000000000000000000000000000000000000000000000000000000000000400000000000000000000000000000000000000000000000000000000000000080000000000000000000000000000000000000000000000000000000000000000873776170506174680000000000000000000000000000000000000000000000000000000000000000000000000000000000000000000000000000000000000000000000000000000000000000000000000000000000000000000000000000004000000000000000000000000000000000000000000000000000000000000007e0000000000000000000000000000000000000000000000000000000000000000c0000000000000000000000000000000000000000000000000000000000000180000000000000000000000000000000000000000000000000000000000000020000000000000000000000000000000000000000000000000000000000000002800000000000000000000000000000000000000000000000000000000000000300000000000000000000000000000000000000000000000000000000000000038000000000000000000000000000000000000000000000000000000000000004000000000000000000000000000000000000000000000000000000000000000480000000000000000000000000000000000000000000000000000000000000050000000000000000000000000000000000000000000000000000000000000005800000000000000000000000000000000000000000000000000000000000000600000000000000000000000000000000000000000000000000000000000000068000000000000000000000000000000000000000000000000000000000000007000000000000000000000000000000000000000000000000000000000000000040000000000000000000000000000000000000000000000000000000000000000200000000000000000000000000000000000000000000000000000000000000096f726465725479706500000000000000000000000000000000000000000000000000000000000000000000000000000000000000000000000000000000000040000000000000000000000000000000000000000000000000000000000000000000000000000000000000000000000000000000000000000000000000000000186465637265617365506f736974696f6e537761705479706500000000000000000000000000000000000000000000000000000000000000000000000000000040000000000000000000000000000000000000000c9f2c9cd04674edea40000000000000000000000000000000000000000000000000000000000000000000000c73697a6544656c7461557364000000000000000000000000000000000000000000000000000000000000000000000000000000000000000000000000000000400000000000000000000000000000000000000000000000008ac7230489e80000000000000000000000000000000000000000000000000000000000000000001c696e697469616c436f6c6c61746572616c44656c7461416d6f756e7400000000000000000000000000000000000000000000000000000000000000000000004000000000000000000000000000000000000000327cb2734119d3b7a900000000000000000000000000000000000000000000000000000000000000000000000c7472696767657250726963650000000000000000000000000000000000000000000000000000000000000000000000000000000000000000000000000000004000000000000000000000000000000000000000327cb2734119d3b7a900000000000000000000000000000000000000000000000000000000000000000000000f61636365707461626c6550726963650000000000000000000000000000000000000000000000000000000000000000000000000000000000000000000000004000000000000000000000000000000000000000000000000000038d7ea4c68000000000000000000000000000000000000000000000000000000000000000000c657865637574696f6e466565000000000000000000000000000000000000000000000000000000000000000000000000000000000000000000000000000000400000000000000000000000000000000000000000000000000000000000000000000000000000000000000000000000000000000000000000000000000000001063616c6c6261636b4761734c696d69740000000000000000000000000000000000000000000000000000000000000000000000000000000000000000000000400000000000000000000000000000000000000000000000000000000000000000000000000000000000000000000000000000000000000000000000000000000f6d696e4f7574707574416d6f756e740000000000000000000000000000000000000000000000000000000000000000000000000000000000000000000000004000000000000000000000000000000000000000000000000000000000699cd073000000000000000000000000000000000000000000000000000000000000000d75706461746564417454696d650000000000000000000000000000000000000000000000000000000000000000000000000000000000000000000000000000400000000000000000000000000000000000000000000000000000000000000000000000000000000000000000000000000000000000000000000000000000000d76616c696446726f6d54696d650000000000000000000000000000000000000000000000000000000000000000000000000000000000000000000000000000400000000000000000000000000000000000000000000000000000000000000000000000000000000000000000000000000000000000000000000000000000000a737263436861696e49640000000000000000000000000000000000000000000000000000000000000000000000000000000000000000000000000000000000000000000000000000000000000000000000000000000000000000000000000040000000000000000000000000000000000000000000000000000000000000006000000000000000000000000000000000000000000000000000000000000000000000000000000000000000000000000000000000000000000000000000000000000000000000000000000000000000000000000000000000000000000000004000000000000000000000000000000000000000000000000000000000000002400000000000000000000000000000000000000000000000000000000000000003000000000000000000000000000000000000000000000000000000000000006000000000000000000000000000000000000000000000000000000000000000e0000000000000000000000000000000000000000000000000000000000000016000000000000000000000000000000000000000000000000000000000000000400000000000000000000000000000000000000000000000000000000000000001000000000000000000000000000000000000000000000000000000000000000669734c6f6e67000000000000000000000000000000000000000000000000000000000000000000000000000000000000000000000000000000000000000000400000000000000000000000000000000000000000000000000000000000000000000000000000000000000000000000000000000000000000000000000000001773686f756c64556e777261704e6174697665546f6b656e00000000000000000000000000000000000000000000000000000000000000000000000000000000400000000000000000000000000000000000000000000000000000000000000000000000000000000000000000000000000000000000000000000000000000000a6175746f43616e63656c0000000000000000000000000000000000000000000000000000000000000000000000000000000000000000000000000000000000000000000000000000000000000000000000000000000000000000000000000040000000000000000000000000000000000000000000000000000000000000010000000000000000000000000000000000000000000000000000000000000000010000000000000000000000000000000000000000000000000000000000000020000000000000000000000000000000000000000000000000000000000000004075084f489b3db9541c2e328df20c447c62ed0c42c96d1ba261af85f81e9d86fa00000000000000000000000000000000000000000000000000000000000000036b6579000000000000000000000000000000000000000000000000000000000000000000000000000000000000000000000000000000000000000000000000010000000000000000000000000000000000000000000000000000000000000020000000000000000000000000000000000000000000000000000000000000004000000000000000000000000000000000000000000000000000000000000000800000000000000000000000000000000000000000000000000000000000000008646174614c697374000000000000000000000000000000000000000000000000000000000000000000000000000000000000000000000000000000000000000000000000000000000000000000000000000000000000000000000000000000400000000000000000000000000000000000000000000000000000000000000060000000000000000000000000000000000000000000000000000000000000000000000000000000000000000000000000000000000000000000000000000000000000000000000000000000000000000000000000000000000000000000000040000000000000000000000000000000000000000000000000000000000000006000000000000000000000000000000000000000000000000000000000000000000000000000000000000000000000000000000000000000000000000000000000",
          "blockHash": "0x68a700265b5b8afd4d2d73c823ccecc91504b5e80fa5d32b88e5ee202cbfbf62",
          "blockNumber": "0x19efc7d2",
          "transactionHash": "0x5aa70fcd7991ce42a478c4491a296d1161d7d67e42768a61cbe7b826e574e151",
          "transactionIndex": "0x0",
          "logIndex": "0x5",
          "removed": false
        },
        {
          "address": "0x21131ab05a31e97902e04f9da60a2d53add82121",
          "topics": [
            "0x3f32b521b7496d2074765239e094aa3dd8d92a3bade84ef40d07dda0da018ce8",
            "0x0000000000000000000000000000000000000000000000000000000000000000"
          ],
          "data": "0x00000000000000000000000000000000000000000000000000038d7ea4c68000",
          "blockHash": "0x68a700265b5b8afd4d2d73c823ccecc91504b5e80fa5d32b88e5ee202cbfbf62",
          "blockNumber": "0x19efc7d2",
          "transactionHash": "0x5aa70fcd7991ce42a478c4491a296d1161d7d67e42768a61cbe7b826e574e151",
          "transactionIndex": "0x0",
          "logIndex": "0x6",
          "removed": false
        }
      ],
      "logsBloom": "0x0000000000000010000000000000001000000000000000000000000000000000000000000000000000000020000000000000400000000200000002000820000000000809000000000000000800402000000000000000000000000000008000000000000002000000000000040000080000000004000000000000001000000000000000000000000000000020000000040000000000000000000010000000000002000000000000000000100000000000000000000000000000000000000000000000000200000000000080000000000000000000000000000000400000002004001000c000000000040000000000800006000804000000000010002000000020",
      "type": "0x2",
      "transactionHash": "0x5aa70fcd7991ce42a478c4491a296d1161d7d67e42768a61cbe7b826e574e151",
      "transactionIndex": "0x0",
      "blockHash": "0x68a700265b5b8afd4d2d73c823ccecc91504b5e80fa5d32b88e5ee202cbfbf62",
      "blockNumber": "0x19efc7d2",
      "gasUsed": "0xd8e72",
      "effectiveGasPrice": "0x1334811",
      "blobGasUsed": "0x0",
      "from": "0x0571235134dc15a00f02916987c2c16b5fc52e2a",
      "to": "0x21131ab05a31e97902e04f9da60a2d53add82121",
      "contractAddress": null
    }
  ],
  "libraries": [],
  "pending": [],
  "returns": {},
  "timestamp": 1771884661,
  "chain": 42161,
  "commit": "f073e1b"
}