{
  "transactions": [
    {
      "hash": "0xbe43ba90f9d4765d4a05dc79aa0804e7026b70bc0649bd90a606088fcca96d2f",
      "transactionType": "CALL",
      "contractName": null,
      "contractAddress": "0x82af49447d8a07e3bd95bd0d56f35241523fbab1",
      "function": "deposit()",
      "arguments": [],
      "transaction": {
        "from": "0x0571235134dc15a00f02916987c2c16b5fc52e2a",
        "to": "0x82af49447d8a07e3bd95bd0d56f35241523fbab1",
        "gas": "0x12b09",
        "value": "0x8ac7230489e80000",
        "input": "0xd0e30db0",
        "nonce": "0x2",
        "chainId": "0xa4b1"
      },
      "additionalContracts": [],
      "isFixedGasLimit": false
    },
    {
      "hash": "0x2373f4fa9a04da0c477a90500cea10e939ad08f06c07f0a7121cc3883d2b440e",
      "transactionType": "CALL",
      "contractName": null,
      "contractAddress": "0x82af49447d8a07e3bd95bd0d56f35241523fbab1",
      "function": "transfer(address,uint256)",
      "arguments": [
        "0x2157b12B8841B22A64aF4d049F2914829C8Fdc79",
        "10000000000000000000"
      ],
      "transaction": {
        "from": "0x0571235134dc15a00f02916987c2c16b5fc52e2a",
        "to": "0x82af49447d8a07e3bd95bd0d56f35241523fbab1",
        "gas": "0x1249b",
        "value": "0x0",
        "input": "0xa9059cbb0000000000000000000000002157b12b8841b22a64af4d049f2914829c8fdc790000000000000000000000000000000000000000000000008ac7230489e80000",
        "nonce": "0x3",
        "chainId": "0xa4b1"
      },
      "additionalContracts": [],
      "isFixedGasLimit": false
    },
    {
      "hash": "0x6a74dcb40ccf5e7d4147c21d0046ad7acb9790fcb06a71495583ca48c86a698f",
      "transactionType": "CALL",
      "contractName": null,
      "contractAddress": "0x2157b12b8841b22a64af4d049f2914829c8fdc79",
      "function": "approveToken(address,uint256)",
      "arguments": [
        "0x82aF49447D8a07e3bd95BD0d56f35241523fBab1",
        "10000000000000000000"
      ],
      "transaction": {
        "from": "0x0571235134dc15a00f02916987c2c16b5fc52e2a",
        "to": "0x2157b12b8841b22a64af4d049f2914829c8fdc79",
        "gas": "0x13705",
        "value": "0x0",
        "input": "0x022fc88b00000000000000000000000082af49447d8a07e3bd95bd0d56f35241523fbab10000000000000000000000000000000000000000000000008ac7230489e80000",
        "nonce": "0x4",
        "chainId": "0xa4b1"
      },
      "additionalContracts": [],
      "isFixedGasLimit": false
    },
    {
      "hash": "0x7eb3deb27974b0f4db22e39c17efa0b6a7c937837cf4af27c21d8666ed4b3efa",
      "transactionType": "CALL",
      "contractName": null,
      "contractAddress": "0x2157b12b8841b22a64af4d049f2914829c8fdc79",
      "function": "execute(bytes,uint256)",
      "arguments": [
        "0xac9650d800000000000000000000000000000000000000000000000000000000000000200000000000000000000000000000000000000000000000000000000000000000",
        "0"
      ],
      "transaction": {
        "from": "0x0571235134dc15a00f02916987c2c16b5fc52e2a",
        "to": "0x2157b12b8841b22a64af4d049f2914829c8fdc79",
        "gas": "0x9a9f",
        "value": "0x0",
        "input": "0xab5898e8000000000000000000000000000000000000000000000000000000000000004000000000000000000000000000000000000000000000000000000000000000000000000000000000000000000000000000000000000000000000000000000044ac9650d80000000000000000000000000000000000000000000000000000000000000020000000000000000000000000000000000000000000000000000000000000000000000000000000000000000000000000000000000000000000000000",
        "nonce": "0x5",
        "chainId": "0xa4b1"
      },
      "additionalContracts": [],
      "isFixedGasLimit": false
    }
  ],
  "receipts": [
    {
      "status": "0x1",
      "cumulativeGasUsed": "0xe2c2",
      "logs": [
        {
          "address": "0x82af49447d8a07e3bd95bd0d56f35241523fbab1",
          "topics": [
            "0xddf252ad1be2c89b69c2b068fc378daa952ba7f163c4a11628f55a4df523b3ef",
            "0x0000000000000000000000000000000000000000000000000000000000000000",
            "0x0000000000000000000000000571235134dc15a00f02916987c2c16b5fc52e2a"
          ],
          "data": "0x0000000000000000000000000000000000000000000000008ac7230489e80000",
          "blockHash": "0x490c43875dc9029cb3996f4f933b0772d201bd172dd374ba8461b2b45417b62f",
          "blockNumber": "0x19efc7c2",
          "transactionHash": "0xbe43ba90f9d4765d4a05dc79aa0804e7026b70bc0649bd90a606088fcca96d2f",
          "transactionIndex": "0x0",
          "logIndex": "0x0",
          "removed": false
        }
      ],
      "logsBloom": "0x00000000000000000000000000000000000000000000000000000000000000000000000000000000000000000000000000004000000000000000000000000000000000010000000000000008000000000000000000000000000000000000000000000020020000000000000400000800000000000000000000000010000000000000000000000000000000000000000000000000000000000000000000000000000000000000004000000000000000000000000000000000000000000000000000000002000000000000000000000000000000000000000000000000000020000000000000000000000000000000000000000000000400000000000000000000",
      "type": "0x2",
      "transactionHash": "0xbe43ba90f9d4765d4a05dc79aa0804e7026b70bc0649bd90a606088fcca96d2f",
      "transactionIndex": "0x0",
      "blockHash": "0x490c43875dc9029cb3996f4f933b0772d201bd172dd374ba8461b2b45417b62f",
      "blockNumber": "0x19efc7c2",
      "gasUsed": "0xe2c2",
      "effectiveGasPrice": "0x1334811",
      "blobGasUsed": "0x0",
      "from": "0x0571235134dc15a00f02916987c2c16b5fc52e2a",
      "to": "0x82af49447d8a07e3bd95bd0d56f35241523fbab1",
      "contractAddress": null
    },
    {
      "status": "0x1",
      "cumulativeGasUsed": "0xd445",
      "logs": [
        {
          "address": "0x82af49447d8a07e3bd95bd0d56f35241523fbab1",
          "topics": [
            "0xddf252ad1be2c89b69c2b068fc378daa952ba7f163c4a11628f55a4df523b3ef",
            "0x0000000000000000000000000571235134dc15a00f02916987c2c16b5fc52e2a",
            "0x0000000000000000000000002157b12b8841b22a64af4d049f2914829c8fdc79"
          ],
          "data": "0x0000000000000000000000000000000000000000000000008ac7230489e80000",
          "blockHash": "0x62f1e4da6ddb79bf980b553b5d9efa58c4f71b9daba86eb25798b4d0821d605d",
          "blockNumber": "0x19efc7c3",
          "transactionHash": "0x2373f4fa9a04da0c477a90500cea10e939ad08f06c07f0a7121cc3883d2b440e",
          "transactionIndex": "0x0",
          "logIndex": "0x0",
          "removed": false
        }
      ],
      "logsBloom": "0x00000000000000000000000000000000000000000000000000000000000000000000000000000000000000000000000000004000000000000000000000000000000000010000000000000008000000010000000000000000000000000000000000000020000000000000000400000000000000000000000000000010000000040000000000000000000000000000000000000000000000000000000000000000000000000000004000000000000000000000000000000000000000000000000000000002000000000010000000000000000000000000000000000000000000000000000000000000000000000000000000000000000400000000000000000000",
      "type": "0x2",
      "transactionHash": "0x2373f4fa9a04da0c477a90500cea10e939ad08f06c07f0a7121cc3883d2b440e",
      "transactionIndex": "0x0",
      "blockHash": "0x62f1e4da6ddb79bf980b553b5d9efa58c4f71b9daba86eb25798b4d0821d605d",
      "blockNumber": "0x19efc7c3",
      "gasUsed": "0xd445",
      "effectiveGasPrice": "0x1334811",
      "blobGasUsed": "0x0",
      "from": "0x0571235134dc15a00f02916987c2c16b5fc52e2a",
      "to": "0x82af49447d8a07e3bd95bd0d56f35241523fbab1",
      "contractAddress": null
    },
    {
      "status": "0x1",
      "cumulativeGasUsed": "0xebec",
      "logs": [
        {
          "address": "0x82af49447d8a07e3bd95bd0d56f35241523fbab1",
          "topics": [
            "0x8c5be1e5ebec7d5bd14f71427d1e84f3dd0314c0f7b2291e5b200ac8c7c3b925",
            "0x0000000000000000000000002157b12b8841b22a64af4d049f2914829c8fdc79",
            "0x0000000000000000000000001c3fa76e6e1088bce750f23a5bfcffa1efef6a41"
          ],
          "data": "0x0000000000000000000000000000000000000000000000008ac7230489e80000",
          "blockHash": "0x2818cbbddd2bb387e157e1116263b79ab0da71f6cd19a2fbcd1f1c7e5d76a8fd",
          "blockNumber": "0x19efc7c4",
          "transactionHash": "0x6a74dcb40ccf5e7d4147c21d0046ad7acb9790fcb06a71495583ca48c86a698f",
          "transactionIndex": "0x0",
          "logIndex": "0x0",
          "removed": false
        }
      ],
      "logsBloom": "0x00000000000000000000000000000010000000000000000000000000000000000000000000000000000000000000000000004000000002000000000000200000000000010000000000000000000000010000000000000000000000000000000000000000000000000000000400000000000000000000000000000000000000040000000000000000000000200000000000000000000000000000000000000000020000000000000000000000000000000000000000000000000000000000000000000000000000000010000000000000000000000000000000000000000000000010000000000000000000000000000000000000000000000000000000000000",
      "type": "0x2",
      "transactionHash": "0x6a74dcb40ccf5e7d4147c21d0046ad7acb9790fcb06a71495583ca48c86a698f",
      "transactionIndex": "0x0",
      "blockHash": "0x2818cbbddd2bb387e157e1116263b79ab0da71f6cd19a2fbcd1f1c7e5d76a8fd",
      "blockNumber": "0x19efc7c4",
      "gasUsed": "0xebec",
      "effectiveGasPrice": "0x1334811",
      "blobGasUsed": "0x0",
      "from": "0x0571235134dc15a00f02916987c2c16b5fc52e2a",
      "to": "0x2157b12b8841b22a64af4d049f2914829c8fdc79",
      "contractAddress": null
    },
    {
      "status": "0x1",
      "cumulativeGasUsed": "0x756d",
      "logs": [],
      "logsBloom": "0x00000000000000000000000000000000000000000000000000000000000000000000000000000000000000000000000000000000000000000000000000000000000000000000000000000000000000000000000000000000000000000000000000000000000000000000000000000000000000000000000000000000000000000000000000000000000000000000000000000000000000000000000000000000000000000000000000000000000000000000000000000000000000000000000000000000000000000000000000000000000000000000000000000000000000000000000000000000000000000000000000000000000000000000000000000000",
      "type": "0x2",
      "transactionHash": "0x7eb3deb27974b0f4db22e39c17efa0b6a7c937837cf4af27c21d8666ed4b3efa",
      "transactionIndex": "0x0",
      "blockHash": "0x5772914af67aef8c334250ed5c8893df965d15a1431563f126d55f68e3272055",
      "blockNumber": "0x19efc7c5",
      "gasUsed": "0x756d",
      "effectiveGasPrice": "0x1334811",
      "blobGasUsed": "0x0",
      "from": "0x0571235134dc15a00f02916987c2c16b5fc52e2a",
      "to": "0x2157b12b8841b22a64af4d049f2914829c8fdc79",
      "contractAddress": null
    }
  ],
  "libraries": [],
  "pending": [],
  "returns": {},
  "timestamp": 1771857614,
  "chain": 42161,
  "commit": "c0695e3"
}