{
  "transactions": [
    {
      "hash": "0x9e5760e889e55f67c5a82e6ab07c769569066a8530c18e28a0e45d926d926ffb",
      "transactionType": "CALL",
      "contractName": null,
      "contractAddress": "0x7577c79a42ee3f198ee3db8bb1fcd231fa06851f",
      "function": "swapLoanSwap(uint256,uint256,uint256,uint256,uint24,uint24,uint24,address)",
      "arguments": [
        "0",
        "1000000000000",
        "0",
        "0",
        "500",
        "500",
        "500",
        "0x0571235134DC15a00f02916987C2c16b5fC52E2A"
      ],
      "transaction": {
        "from": "0x0571235134dc15a00f02916987c2c16b5fc52e2a",
        "to": "0x7577c79a42ee3f198ee3db8bb1fcd231fa06851f",
        "gas": "0xa498f",
        "value": "0xde0b6b3a7640000",
        "input": "0xd1f372720000000000000000000000000000000000000000000000000000000000000000000000000000000000000000000000000000000000000000000000e8d4a510000000000000000000000000000000000000000000000000000000000000000000000000000000000000000000000000000000000000000000000000000000000000000000000000000000000000000000000000000000000000000000000001f400000000000000000000000000000000000000000000000000000000000001f400000000000000000000000000000000000000000000000000000000000001f40000000000000000000000000571235134dc15a00f02916987c2c16b5fc52e2a",
        "nonce": "0x4",
        "chainId": "0x1"
      },
      "additionalContracts": [],
      "isFixedGasLimit": false
    }
  ],
  "receipts": [
    {
      "status": "0x1",
      "cumulativeGasUsed": "0x772a7",
      "logs": [
        {
          "address": "0xa0b86991c6218b36c1d19d4a2e9eb0ce3606eb48",
          "topics": [
            "0xddf252ad1be2c89b69c2b068fc378daa952ba7f163c4a11628f55a4df523b3ef",
            "0x00000000000000000000000088e6a0c2ddd26feeb64f039a2c41296fcb3f5640",
            "0x0000000000000000000000007577c79a42ee3f198ee3db8bb1fcd231fa06851f"
          ],
          "data": "0x00000000000000000000000000000000000000000000000000000000739027f5",
          "blockHash": "0x1e440064dfbe5325df72090048dcbb0c1528fa9ae842b35f4961fb485c904551",
          "blockNumber": "0x175a05c",
          "transactionHash": "0x9e5760e889e55f67c5a82e6ab07c769569066a8530c18e28a0e45d926d926ffb",
          "transactionIndex": "0x0",
          "logIndex": "0x0",
          "removed": false
        },
        {
          "address": "0xc02aaa39b223fe8d0a0e5c4f27ead9083c756cc2",
          "topics": [
            "0xe1fffcc4923d04b559f4d29a8bfc6cda04eb5b0d3c460751c2402c5c5cc9109c",
            "0x000000000000000000000000e592427a0aece92de3edee1f18e0157c05861564"
          ],
          "data": "0x0000000000000000000000000000000000000000000000000de0b6b3a7640000",
          "blockHash": "0x1e440064dfbe5325df72090048dcbb0c1528fa9ae842b35f4961fb485c904551",
          "blockNumber": "0x175a05c",
          "transactionHash": "0x9e5760e889e55f67c5a82e6ab07c769569066a8530c18e28a0e45d926d926ffb",
          "transactionIndex": "0x0",
          "logIndex": "0x1",
          "removed": false
        },
        {
          "address": "0xc02aaa39b223fe8d0a0e5c4f27ead9083c756cc2",
          "topics": [
            "0xddf252ad1be2c89b69c2b068fc378daa952ba7f163c4a11628f55a4df523b3ef",
            "0x000000000000000000000000e592427a0aece92de3edee1f18e0157c05861564",
            "0x00000000000000000000000088e6a0c2ddd26feeb64f039a2c41296fcb3f5640"
          ],
          "data": "0x0000000000000000000000000000000000000000000000000de0b6b3a7640000",
          "blockHash": "0x1e440064dfbe5325df72090048dcbb0c1528fa9ae842b35f4961fb485c904551",
          "blockNumber": "0x175a05c",
          "transactionHash": "0x9e5760e889e55f67c5a82e6ab07c769569066a8530c18e28a0e45d926d926ffb",
          "transactionIndex": "0x0",
          "logIndex": "0x2",
          "removed": false
        },
        {
          "address": "0x88e6a0c2ddd26feeb64f039a2c41296fcb3f5640",
          "topics": [
            "0xc42079f94a6350d7e6235f29174924f928cc2ac818eb64fed8004e115fbcca67",
            "0x000000000000000000000000e592427a0aece92de3edee1f18e0157c05861564",
            "0x0000000000000000000000007577c79a42ee3f198ee3db8bb1fcd231fa06851f"
          ],
          "data": "0xffffffffffffffffffffffffffffffffffffffffffffffffffffffff8c6fd80b0000000000000000000000000000000000000000000000000de0b6b3a764000000000000000000000000000000000000000058b10dcfba00c4fc6aa74d720169000000000000000000000000000000000000000000000000be58535f342612020000000000000000000000000000000000000000000000000000000000030fa8",
          "blockHash": "0x1e440064dfbe5325df72090048dcbb0c1528fa9ae842b35f4961fb485c904551",
          "blockNumber": "0x175a05c",
          "transactionHash": "0x9e5760e889e55f67c5a82e6ab07c769569066a8530c18e28a0e45d926d926ffb",
          "transactionIndex": "0x0",
          "logIndex": "0x3",
          "removed": false
        },
        {
          "address": "0x7577c79a42ee3f198ee3db8bb1fcd231fa06851f",
          "topics": [
            "0xd4522a66913bd922fe59d0f2cedd29842c747c2b0eda5c29cb6bb136ae150f93",
            "0x0000000000000000000000000571235134dc15a00f02916987c2c16b5fc52e2a",
            "0x0000000000000000000000007577c79a42ee3f198ee3db8bb1fcd231fa06851f"
          ],
          "data": "0x0000000000000000000000000000000000000000000000000de0b6b3a764000000000000000000000000000000000000000000000000000000000000739027f500000000000000000000000000000000000000000000000000000000000001f4",
          "blockHash": "0x1e440064dfbe5325df72090048dcbb0c1528fa9ae842b35f4961fb485c904551",
          "blockNumber": "0x175a05c",
          "transactionHash": "0x9e5760e889e55f67c5a82e6ab07c769569066a8530c18e28a0e45d926d926ffb",
          "transactionIndex": "0x0",
          "logIndex": "0x4",
          "removed": false
        },
        {
          "address": "0x7577c79a42ee3f198ee3db8bb1fcd231fa06851f",
          "topics": [
            "0x338d245618b26bd06912a80946af7231320ca452fff8c15635be31d4721660c7",
            "0x000000000000000000000000a0b86991c6218b36c1d19d4a2e9eb0ce3606eb48"
          ],
          "data": "0x000000000000000000000000000000000000000000000000000000e8d4a5100000000000000000000000000000000000000000000000000000000000000001f400000000000000000000000000000000000000000000000000000000000001f4",
          "blockHash": "0x1e440064dfbe5325df72090048dcbb0c1528fa9ae842b35f4961fb485c904551",
          "blockNumber": "0x175a05c",
          "transactionHash": "0x9e5760e889e55f67c5a82e6ab07c769569066a8530c18e28a0e45d926d926ffb",
          "transactionIndex": "0x0",
          "logIndex": "0x5",
          "removed": false
        },
        {
          "address": "0xa0b86991c6218b36c1d19d4a2e9eb0ce3606eb48",
          "topics": [
            "0xddf252ad1be2c89b69c2b068fc378daa952ba7f163c4a11628f55a4df523b3ef",
            "0x00000000000000000000000098c23e9d8f34fefb1b7bd6a91b7ff122f4e16f5c",
            "0x0000000000000000000000007577c79a42ee3f198ee3db8bb1fcd231fa06851f"
          ],
          "data": "0x000000000000000000000000000000000000000000000000000000e8d4a51000",
          "blockHash": "0x1e440064dfbe5325df72090048dcbb0c1528fa9ae842b35f4961fb485c904551",
          "blockNumber": "0x175a05c",
          "transactionHash": "0x9e5760e889e55f67c5a82e6ab07c769569066a8530c18e28a0e45d926d926ffb",
          "transactionIndex": "0x0",
          "logIndex": "0x6",
          "removed": false
        },
        {
          "address": "0xa0b86991c6218b36c1d19d4a2e9eb0ce3606eb48",
          "topics": [
            "0x8c5be1e5ebec7d5bd14f71427d1e84f3dd0314c0f7b2291e5b200ac8c7c3b925",
            "0x0000000000000000000000007577c79a42ee3f198ee3db8bb1fcd231fa06851f",
            "0x000000000000000000000000e592427a0aece92de3edee1f18e0157c05861564"
          ],
          "data": "0x000000000000000000000000000000000000000000000000000000e8d4a51000",
          "blockHash": "0x1e440064dfbe5325df72090048dcbb0c1528fa9ae842b35f4961fb485c904551",
          "blockNumber": "0x175a05c",
          "transactionHash": "0x9e5760e889e55f67c5a82e6ab07c769569066a8530c18e28a0e45d926d926ffb",
          "transactionIndex": "0x0",
          "logIndex": "0x7",
          "removed": false
        },
        {
          "address": "0xc02aaa39b223fe8d0a0e5c4f27ead9083c756cc2",
          "topics": [
            "0xddf252ad1be2c89b69c2b068fc378daa952ba7f163c4a11628f55a4df523b3ef",
            "0x00000000000000000000000088e6a0c2ddd26feeb64f039a2c41296fcb3f5640",
            "0x0000000000000000000000007577c79a42ee3f198ee3db8bb1fcd231fa06851f"
          ],
          "data": "0x00000000000000000000000000000000000000000000001be2d5fe0dd90c1696",
          "blockHash": "0x1e440064dfbe5325df72090048dcbb0c1528fa9ae842b35f4961fb485c904551",
          "blockNumber": "0x175a05c",
          "transactionHash": "0x9e5760e889e55f67c5a82e6ab07c769569066a8530c18e28a0e45d926d926ffb",
          "transactionIndex": "0x0",
          "logIndex": "0x8",
          "removed": false
        },
        {
          "address": "0xa0b86991c6218b36c1d19d4a2e9eb0ce3606eb48",
          "topics": [
            "0xddf252ad1be2c89b69c2b068fc378daa952ba7f163c4a11628f55a4df523b3ef",
            "0x0000000000000000000000007577c79a42ee3f198ee3db8bb1fcd231fa06851f",
            "0x00000000000000000000000088e6a0c2ddd26feeb64f039a2c41296fcb3f5640"
          ],
          "data": "0x000000000000000000000000000000000000000000000000000000e8d4a51000",
          "blockHash": "0x1e440064dfbe5325df72090048dcbb0c1528fa9ae842b35f4961fb485c904551",
          "blockNumber": "0x175a05c",
          "transactionHash": "0x9e5760e889e55f67c5a82e6ab07c769569066a8530c18e28a0e45d926d926ffb",
          "transactionIndex": "0x0",
          "logIndex": "0x9",
          "removed": false
        },
        {
          "address": "0x88e6a0c2ddd26feeb64f039a2c41296fcb3f5640",
          "topics": [
            "0xc42079f94a6350d7e6235f29174924f928cc2ac818eb64fed8004e115fbcca67",
            "0x000000000000000000000000e592427a0aece92de3edee1f18e0157c05861564",
            "0x0000000000000000000000007577c79a42ee3f198ee3db8bb1fcd231fa06851f"
          ],
          "data": "0x000000000000000000000000000000000000000000000000000000e8d4a51000ffffffffffffffffffffffffffffffffffffffffffffffe41d2a01f226f3e96a000000000000000000000000000000000000588b5e3b997f91fa6df31f297ac7000000000000000000000000000000000000000000000000bd30c5d9ba08519c0000000000000000000000000000000000000000000000000000000000030f87",
          "blockHash": "0x1e440064dfbe5325df72090048dcbb0c1528fa9ae842b35f4961fb485c904551",
          "blockNumber": "0x175a05c",
          "transactionHash": "0x9e5760e889e55f67c5a82e6ab07c769569066a8530c18e28a0e45d926d926ffb",
          "transactionIndex": "0x0",
          "logIndex": "0xa",
          "removed": false
        },
        {
          "address": "0xc02aaa39b223fe8d0a0e5c4f27ead9083c756cc2",
          "topics": [
            "0x8c5be1e5ebec7d5bd14f71427d1e84f3dd0314c0f7b2291e5b200ac8c7c3b925",
            "0x0000000000000000000000007577c79a42ee3f198ee3db8bb1fcd231fa06851f",
            "0x000000000000000000000000e592427a0aece92de3edee1f18e0157c05861564"
          ],
          "data": "0x00000000000000000000000000000000000000000000001be2d5fe0dd90c1696",
          "blockHash": "0x1e440064dfbe5325df72090048dcbb0c1528fa9ae842b35f4961fb485c904551",
          "blockNumber": "0x175a05c",
          "transactionHash": "0x9e5760e889e55f67c5a82e6ab07c769569066a8530c18e28a0e45d926d926ffb",
          "transactionIndex": "0x0",
          "logIndex": "0xb",
          "removed": false
        },
        {
          "address": "0xa0b86991c6218b36c1d19d4a2e9eb0ce3606eb48",
          "topics": [
            "0xddf252ad1be2c89b69c2b068fc378daa952ba7f163c4a11628f55a4df523b3ef",
            "0x00000000000000000000000088e6a0c2ddd26feeb64f039a2c41296fcb3f5640",
            "0x0000000000000000000000007577c79a42ee3f198ee3db8bb1fcd231fa06851f"
          ],
          "data": "0x000000000000000000000000000000000000000000000000000000e8991ab9dd",
          "blockHash": "0x1e440064dfbe5325df72090048dcbb0c1528fa9ae842b35f4961fb485c904551",
          "blockNumber": "0x175a05c",
          "transactionHash": "0x9e5760e889e55f67c5a82e6ab07c769569066a8530c18e28a0e45d926d926ffb",
          "transactionIndex": "0x0",
          "logIndex": "0xc",
          "removed": false
        },
        {
          "address": "0xc02aaa39b223fe8d0a0e5c4f27ead9083c756cc2",
          "topics": [
            "0xddf252ad1be2c89b69c2b068fc378daa952ba7f163c4a11628f55a4df523b3ef",
            "0x0000000000000000000000007577c79a42ee3f198ee3db8bb1fcd231fa06851f",
            "0x00000000000000000000000088e6a0c2ddd26feeb64f039a2c41296fcb3f5640"
          ],
          "data": "0x00000000000000000000000000000000000000000000001be2d5fe0dd90c1696",
          "blockHash": "0x1e440064dfbe5325df72090048dcbb0c1528fa9ae842b35f4961fb485c904551",
          "blockNumber": "0x175a05c",
          "transactionHash": "0x9e5760e889e55f67c5a82e6ab07c769569066a8530c18e28a0e45d926d926ffb",
          "transactionIndex": "0x0",
          "logIndex": "0xd",
          "removed": false
        },
        {
          "address": "0x88e6a0c2ddd26feeb64f039a2c41296fcb3f5640",
          "topics": [
            "0xc42079f94a6350d7e6235f29174924f928cc2ac818eb64fed8004e115fbcca67",
            "0x000000000000000000000000e592427a0aece92de3edee1f18e0157c05861564",
            "0x0000000000000000000000007577c79a42ee3f198ee3db8bb1fcd231fa06851f"
          ],
          "data": "0xffffffffffffffffffffffffffffffffffffffffffffffffffffff1766e5462300000000000000000000000000000000000000000000001be2d5fe0dd90c169600000000000000000000000000000000000058b10902c5a573faae0b720a9af3000000000000000000000000000000000000000000000000be58535f342612020000000000000000000000000000000000000000000000000000000000030fa8",
          "blockHash": "0x1e440064dfbe5325df72090048dcbb0c1528fa9ae842b35f4961fb485c904551",
          "blockNumber": "0x175a05c",
          "transactionHash": "0x9e5760e889e55f67c5a82e6ab07c769569066a8530c18e28a0e45d926d926ffb",
          "transactionIndex": "0x0",
          "logIndex": "0xe",
          "removed": false
        },
        {
          "address": "0xa0b86991c6218b36c1d19d4a2e9eb0ce3606eb48",
          "topics": [
            "0x8c5be1e5ebec7d5bd14f71427d1e84f3dd0314c0f7b2291e5b200ac8c7c3b925",
            "0x0000000000000000000000007577c79a42ee3f198ee3db8bb1fcd231fa06851f",
            "0x00000000000000000000000087870bca3f3fd6335c3f4ce8392d69350b4fa4e2"
          ],
          "data": "0x000000000000000000000000000000000000000000000000000000e8f2727500",
          "blockHash": "0x1e440064dfbe5325df72090048dcbb0c1528fa9ae842b35f4961fb485c904551",
          "blockNumber": "0x175a05c",
          "transactionHash": "0x9e5760e889e55f67c5a82e6ab07c769569066a8530c18e28a0e45d926d926ffb",
          "transactionIndex": "0x0",
          "logIndex": "0xf",
          "removed": false
        },
        {
          "address": "0xa0b86991c6218b36c1d19d4a2e9eb0ce3606eb48",
          "topics": [
            "0xddf252ad1be2c89b69c2b068fc378daa952ba7f163c4a11628f55a4df523b3ef",
            "0x0000000000000000000000007577c79a42ee3f198ee3db8bb1fcd231fa06851f",
            "0x0000000000000000000000000571235134dc15a00f02916987c2c16b5fc52e2a"
          ],
          "data": "0x000000000000000000000000000000000000000000000000000000001a386cd2",
          "blockHash": "0x1e440064dfbe5325df72090048dcbb0c1528fa9ae842b35f4961fb485c904551",
          "blockNumber": "0x175a05c",
          "transactionHash": "0x9e5760e889e55f67c5a82e6ab07c769569066a8530c18e28a0e45d926d926ffb",
          "transactionIndex": "0x0",
          "logIndex": "0x10",
          "removed": false
        },
        {
          "address": "0x7577c79a42ee3f198ee3db8bb1fcd231fa06851f",
          "topics": [
            "0x0a969393a5ed5d41dfc598b9441b2acd71f827d57c30b4767137c1f24d62ef96",
            "0x000000000000000000000000a0b86991c6218b36c1d19d4a2e9eb0ce3606eb48"
          ],
          "data": "0x000000000000000000000000000000000000000000000000000000e8d4a51000000000000000000000000000000000000000000000000000000000001dcd6500000000000000000000000000000000000000000000000000000000e8f2727500000000000000000000000000000000000000000000000000000000e90caae1d2",
          "blockHash": "0x1e440064dfbe5325df72090048dcbb0c1528fa9ae842b35f4961fb485c904551",
          "blockNumber": "0x175a05c",
          "transactionHash": "0x9e5760e889e55f67c5a82e6ab07c769569066a8530c18e28a0e45d926d926ffb",
          "transactionIndex": "0x0",
          "logIndex": "0x11",
          "removed": false
        },
        {
          "address": "0x87870bca3f3fd6335c3f4ce8392d69350b4fa4e2",
          "topics": [
            "0x804c9b842b2748a22bb64b345453a3de7ca54a6ca45ce00d415894979e22897a",
            "0x000000000000000000000000a0b86991c6218b36c1d19d4a2e9eb0ce3606eb48"
          ],
          "data": "0x000000000000000000000000000000000000000000133f1ff703ecc0c0f79d5c00000000000000000000000000000000000000000000000000000000000000000000000000000000000000000000000000000000001f019b9f426f4cde31ed00000000000000000000000000000000000000000003c1c960bc0df7b659ecf1d8000000000000000000000000000000000000000003efecdde80955f6a21c36d2",
          "blockHash": "0x1e440064dfbe5325df72090048dcbb0c1528fa9ae842b35f4961fb485c904551",
          "blockNumber": "0x175a05c",
          "transactionHash": "0x9e5760e889e55f67c5a82e6ab07c769569066a8530c18e28a0e45d926d926ffb",
          "transactionIndex": "0x0",
          "logIndex": "0x12",
          "removed": false
        },
        {
          "address": "0xa0b86991c6218b36c1d19d4a2e9eb0ce3606eb48",
          "topics": [
            "0xddf252ad1be2c89b69c2b068fc378daa952ba7f163c4a11628f55a4df523b3ef",
            "0x0000000000000000000000007577c79a42ee3f198ee3db8bb1fcd231fa06851f",
            "0x00000000000000000000000098c23e9d8f34fefb1b7bd6a91b7ff122f4e16f5c"
          ],
          "data": "0x000000000000000000000000000000000000000000000000000000e8f2727500",
          "blockHash": "0x1e440064dfbe5325df72090048dcbb0c1528fa9ae842b35f4961fb485c904551",
          "blockNumber": "0x175a05c",
          "transactionHash": "0x9e5760e889e55f67c5a82e6ab07c769569066a8530c18e28a0e45d926d926ffb",
          "transactionIndex": "0x0",
          "logIndex": "0x13",
          "removed": false
        },
        {
          "address": "0x87870bca3f3fd6335c3f4ce8392d69350b4fa4e2",
          "topics": [
            "0xefefaba5e921573100900a3ad9cf29f222d995fb3b6045797eaea7521bd8d6f0",
            "0x0000000000000000000000007577c79a42ee3f198ee3db8bb1fcd231fa06851f",
            "0x000000000000000000000000a0b86991c6218b36c1d19d4a2e9eb0ce3606eb48",
            "0x0000000000000000000000000000000000000000000000000000000000000000"
          ],
          "data": "0x0000000000000000000000007577c79a42ee3f198ee3db8bb1fcd231fa06851f000000000000000000000000000000000000000000000000000000e8d4a510000000000000000000000000000000000000000000000000000000000000000000000000000000000000000000000000000000000000000000000000001dcd6500",
          "blockHash": "0x1e440064dfbe5325df72090048dcbb0c1528fa9ae842b35f4961fb485c904551",
          "blockNumber": "0x175a05c",
          "transactionHash": "0x9e5760e889e55f67c5a82e6ab07c769569066a8530c18e28a0e45d926d926ffb",
          "transactionIndex": "0x0",
          "logIndex": "0x14",
          "removed": false
        }
      ],
      "logsBloom": "0x0000002201800000000000000000000000000000000000200000000004000002000000100000000000000a000000020002000040080020000000000000200000000000000000001808000008000000000000000000000000001000008000000000000020020000000000100000000800004000000000000000000010800900080000040000000000000000000040000200000001010000008000000000000008020000000001204000000000c0000000000000000810000000200000000801000000000200000000000000200000000000000400000c000000100000010020000010200000000020000010000000000004000000000400400000000000000000",
      "type": "0x2",
      "transactionHash": "0x9e5760e889e55f67c5a82e6ab07c769569066a8530c18e28a0e45d926d926ffb",
      "transactionIndex": "0x0",
      "blockHash": "0x1e440064dfbe5325df72090048dcbb0c1528fa9ae842b35f4961fb485c904551",
      "blockNumber": "0x175a05c",
      "gasUsed": "0x772a7",
      "effectiveGasPrice": "0x41f0ab",
      "blobGasUsed": "0x0",
      "from": "0x0571235134dc15a00f02916987c2c16b5fc52e2a",
      "to": "0x7577c79a42ee3f198ee3db8bb1fcd231fa06851f",
      "contractAddress": null
    }
  ],
  "libraries": [],
  "pending": [],
  "returns": {},
  "timestamp": 1771469536,
  "chain": 1,
  "commit": null
}